{"abi":[{"type":"function","name":"MAX_PROTOCOL_FEE","inputs":[],"outputs":[{"name":"","type":"uint16","internalType":"uint16"}],"stateMutability":"view"}],"bytecode":{"object":"0x60bd61004c600b8282823980515f1a6073146040577f4e487b71000000000000000000000000000000000000000000000000000000005f525f60045260245ffd5b305f52607381538281f3fe73000000000000000000000000000000000000000030146080604052600436106032575f3560e01c8063b8ca3b83146036575b5f80fd5b603c6050565b604051604791906070565b60405180910390f35b6103e881565b5f61ffff82169050919050565b606a816056565b82525050565b5f60208201905060815f8301846063565b9291505056fea26469706673582212200577922941fc114e5ba4795b172dc188aab90dda42b8b9c1aeb284ee22b50ced64736f6c634300081a0033","linkReferences":{}},"methodIdentifiers":{"MAX_PROTOCOL_FEE()":"b8ca3b83"},"id":52}