{"abi":[{"type":"constructor","inputs":[{"name":"_manager","type":"address","internalType":"contract IPoolManager"},{"name":"_maxAbsTickDelta","type":"int24","internalType":"int24"}],"stateMutability":"nonpayable"},{"type":"function","name":"MAX_ABS_TICK_DELTA","inputs":[],"outputs":[{"name":"","type":"int24","internalType":"int24"}],"stateMutability":"view"},{"type":"function","name":"afterAddLiquidity","inputs":[{"name":"sender","type":"address","internalType":"address"},{"name":"key","type":"tuple","internalType":"struct PoolKey","components":[{"name":"currency0","type":"address","internalType":"Currency"},{"name":"currency1","type":"address","internalType":"Currency"},{"name":"fee","type":"uint24","internalType":"uint24"},{"name":"tickSpacing","type":"int24","internalType":"int24"},{"name":"hooks","type":"address","internalType":"contract IHooks"}]},{"name":"params","type":"tuple","internalType":"struct IPoolManager.ModifyLiquidityParams","components":[{"name":"tickLower","type":"int24","internalType":"int24"},{"name":"tickUpper","type":"int24","internalType":"int24"},{"name":"liquidityDelta","type":"int256","internalType":"int256"},{"name":"salt","type":"bytes32","internalType":"bytes32"}]},{"name":"delta","type":"int256","internalType":"BalanceDelta"},{"name":"feesAccrued","type":"int256","internalType":"BalanceDelta"},{"name":"hookData","type":"bytes","internalType":"bytes"}],"outputs":[{"name":"","type":"bytes4","internalType":"bytes4"},{"name":"","type":"int256","internalType":"BalanceDelta"}],"stateMutability":"nonpayable"},{"type":"function","name":"afterDonate","inputs":[{"name":"sender","type":"address","internalType":"address"},{"name":"key","type":"tuple","internalType":"struct PoolKey","components":[{"name":"currency0","type":"address","internalType":"Currency"},{"name":"currency1","type":"address","internalType":"Currency"},{"name":"fee","type":"uint24","internalType":"uint24"},{"name":"tickSpacing","type":"int24","internalType":"int24"},{"name":"hooks","type":"address","internalType":"contract IHooks"}]},{"name":"amount0","type":"uint256","internalType":"uint256"},{"name":"amount1","type":"uint256","internalType":"uint256"},{"name":"hookData","type":"bytes","internalType":"bytes"}],"outputs":[{"name":"","type":"bytes4","internalType":"bytes4"}],"stateMutability":"nonpayable"},{"type":"function","name":"afterInitialize","inputs":[{"name":"sender","type":"address","internalType":"address"},{"name":"key","type":"tuple","internalType":"struct PoolKey","components":[{"name":"currency0","type":"address","internalType":"Currency"},{"name":"currency1","type":"address","internalType":"Currency"},{"name":"fee","type":"uint24","internalType":"uint24"},{"name":"tickSpacing","type":"int24","internalType":"int24"},{"name":"hooks","type":"address","internalType":"contract IHooks"}]},{"name":"sqrtPriceX96","type":"uint160","internalType":"uint160"},{"name":"tick","type":"int24","internalType":"int24"}],"outputs":[{"name":"","type":"bytes4","internalType":"bytes4"}],"stateMutability":"nonpayable"},{"type":"function","name":"afterRemoveLiquidity","inputs":[{"name":"sender","type":"address","internalType":"address"},{"name":"key","type":"tuple","internalType":"struct PoolKey","components":[{"name":"currency0","type":"address","internalType":"Currency"},{"name":"currency1","type":"address","internalType":"Currency"},{"name":"fee","type":"uint24","internalType":"uint24"},{"name":"tickSpacing","type":"int24","internalType":"int24"},{"name":"hooks","type":"address","internalType":"contract IHooks"}]},{"name":"params","type":"tuple","internalType":"struct IPoolManager.ModifyLiquidityParams","components":[{"name":"tickLower","type":"int24","internalType":"int24"},{"name":"tickUpper","type":"int24","internalType":"int24"},{"name":"liquidityDelta","type":"int256","internalType":"int256"},{"name":"salt","type":"bytes32","internalType":"bytes32"}]},{"name":"delta","type":"int256","internalType":"BalanceDelta"},{"name":"feesAccrued","type":"int256","internalType":"BalanceDelta"},{"name":"hookData","type":"bytes","internalType":"bytes"}],"outputs":[{"name":"","type":"bytes4","internalType":"bytes4"},{"name":"","type":"int256","internalType":"BalanceDelta"}],"stateMutability":"nonpayable"},{"type":"function","name":"afterSwap","inputs":[{"name":"sender","type":"address","internalType":"address"},{"name":"key","type":"tuple","internalType":"struct PoolKey","components":[{"name":"currency0","type":"address","internalType":"Currency"},{"name":"currency1","type":"address","internalType":"Currency"},{"name":"fee","type":"uint24","internalType":"uint24"},{"name":"tickSpacing","type":"int24","internalType":"int24"},{"name":"hooks","type":"address","internalType":"contract IHooks"}]},{"name":"params","type":"tuple","internalType":"struct IPoolManager.SwapParams","components":[{"name":"zeroForOne","type":"bool","internalType":"bool"},{"name":"amountSpecified","type":"int256","internalType":"int256"},{"name":"sqrtPriceLimitX96","type":"uint160","internalType":"uint160"}]},{"name":"delta","type":"int256","internalType":"BalanceDelta"},{"name":"hookData","type":"bytes","internalType":"bytes"}],"outputs":[{"name":"","type":"bytes4","internalType":"bytes4"},{"name":"","type":"int128","internalType":"int128"}],"stateMutability":"nonpayable"},{"type":"function","name":"beforeAddLiquidity","inputs":[{"name":"sender","type":"address","internalType":"address"},{"name":"key","type":"tuple","internalType":"struct PoolKey","components":[{"name":"currency0","type":"address","internalType":"Currency"},{"name":"currency1","type":"address","internalType":"Currency"},{"name":"fee","type":"uint24","internalType":"uint24"},{"name":"tickSpacing","type":"int24","internalType":"int24"},{"name":"hooks","type":"address","internalType":"contract IHooks"}]},{"name":"params","type":"tuple","internalType":"struct IPoolManager.ModifyLiquidityParams","components":[{"name":"tickLower","type":"int24","internalType":"int24"},{"name":"tickUpper","type":"int24","internalType":"int24"},{"name":"liquidityDelta","type":"int256","internalType":"int256"},{"name":"salt","type":"bytes32","internalType":"bytes32"}]},{"name":"hookData","type":"bytes","internalType":"bytes"}],"outputs":[{"name":"","type":"bytes4","internalType":"bytes4"}],"stateMutability":"nonpayable"},{"type":"function","name":"beforeDonate","inputs":[{"name":"sender","type":"address","internalType":"address"},{"name":"key","type":"tuple","internalType":"struct PoolKey","components":[{"name":"currency0","type":"address","internalType":"Currency"},{"name":"currency1","type":"address","internalType":"Currency"},{"name":"fee","type":"uint24","internalType":"uint24"},{"name":"tickSpacing","type":"int24","internalType":"int24"},{"name":"hooks","type":"address","internalType":"contract IHooks"}]},{"name":"amount0","type":"uint256","internalType":"uint256"},{"name":"amount1","type":"uint256","internalType":"uint256"},{"name":"hookData","type":"bytes","internalType":"bytes"}],"outputs":[{"name":"","type":"bytes4","internalType":"bytes4"}],"stateMutability":"nonpayable"},{"type":"function","name":"beforeInitialize","inputs":[{"name":"sender","type":"address","internalType":"address"},{"name":"key","type":"tuple","internalType":"struct PoolKey","components":[{"name":"currency0","type":"address","internalType":"Currency"},{"name":"currency1","type":"address","internalType":"Currency"},{"name":"fee","type":"uint24","internalType":"uint24"},{"name":"tickSpacing","type":"int24","internalType":"int24"},{"name":"hooks","type":"address","internalType":"contract IHooks"}]},{"name":"sqrtPriceX96","type":"uint160","internalType":"uint160"}],"outputs":[{"name":"","type":"bytes4","internalType":"bytes4"}],"stateMutability":"nonpayable"},{"type":"function","name":"beforeRemoveLiquidity","inputs":[{"name":"sender","type":"address","internalType":"address"},{"name":"key","type":"tuple","internalType":"struct PoolKey","components":[{"name":"currency0","type":"address","internalType":"Currency"},{"name":"currency1","type":"address","internalType":"Currency"},{"name":"fee","type":"uint24","internalType":"uint24"},{"name":"tickSpacing","type":"int24","internalType":"int24"},{"name":"hooks","type":"address","internalType":"contract IHooks"}]},{"name":"params","type":"tuple","internalType":"struct IPoolManager.ModifyLiquidityParams","components":[{"name":"tickLower","type":"int24","internalType":"int24"},{"name":"tickUpper","type":"int24","internalType":"int24"},{"name":"liquidityDelta","type":"int256","internalType":"int256"},{"name":"salt","type":"bytes32","internalType":"bytes32"}]},{"name":"hookData","type":"bytes","internalType":"bytes"}],"outputs":[{"name":"","type":"bytes4","internalType":"bytes4"}],"stateMutability":"nonpayable"},{"type":"function","name":"beforeSwap","inputs":[{"name":"sender","type":"address","internalType":"address"},{"name":"key","type":"tuple","internalType":"struct PoolKey","components":[{"name":"currency0","type":"address","internalType":"Currency"},{"name":"currency1","type":"address","internalType":"Currency"},{"name":"fee","type":"uint24","internalType":"uint24"},{"name":"tickSpacing","type":"int24","internalType":"int24"},{"name":"hooks","type":"address","internalType":"contract IHooks"}]},{"name":"params","type":"tuple","internalType":"struct IPoolManager.SwapParams","components":[{"name":"zeroForOne","type":"bool","internalType":"bool"},{"name":"amountSpecified","type":"int256","internalType":"int256"},{"name":"sqrtPriceLimitX96","type":"uint160","internalType":"uint160"}]},{"name":"hookData","type":"bytes","internalType":"bytes"}],"outputs":[{"name":"","type":"bytes4","internalType":"bytes4"},{"name":"","type":"int256","internalType":"BeforeSwapDelta"},{"name":"","type":"uint24","internalType":"uint24"}],"stateMutability":"nonpayable"},{"type":"function","name":"getHookPermissions","inputs":[],"outputs":[{"name":"","type":"tuple","internalType":"struct Hooks.Permissions","components":[{"name":"beforeInitialize","type":"bool","internalType":"bool"},{"name":"afterInitialize","type":"bool","internalType":"bool"},{"name":"beforeAddLiquidity","type":"bool","internalType":"bool"},{"name":"afterAddLiquidity","type":"bool","internalType":"bool"},{"name":"beforeRemoveLiquidity","type":"bool","internalType":"bool"},{"name":"afterRemoveLiquidity","type":"bool","internalType":"bool"},{"name":"beforeSwap","type":"bool","internalType":"bool"},{"name":"afterSwap","type":"bool","internalType":"bool"},{"name":"beforeDonate","type":"bool","internalType":"bool"},{"name":"afterDonate","type":"bool","internalType":"bool"},{"name":"beforeSwapReturnDelta","type":"bool","internalType":"bool"},{"name":"afterSwapReturnDelta","type":"bool","internalType":"bool"},{"name":"afterAddLiquidityReturnDelta","type":"bool","internalType":"bool"},{"name":"afterRemoveLiquidityReturnDelta","type":"bool","internalType":"bool"}]}],"stateMutability":"pure"},{"type":"function","name":"increaseObservationCardinalityNext","inputs":[{"name":"observationCardinalityNext","type":"uint16","internalType":"uint16"},{"name":"underlyingPoolId","type":"bytes32","internalType":"PoolId"}],"outputs":[],"stateMutability":"nonpayable"},{"type":"function","name":"manager","inputs":[],"outputs":[{"name":"","type":"address","internalType":"contract IPoolManager"}],"stateMutability":"view"},{"type":"function","name":"observationsById","inputs":[{"name":"","type":"bytes32","internalType":"PoolId"},{"name":"","type":"uint256","internalType":"uint256"}],"outputs":[{"name":"blockTimestamp","type":"uint32","internalType":"uint32"},{"name":"prevTruncatedTick","type":"int24","internalType":"int24"},{"name":"tickCumulative","type":"int56","internalType":"int56"},{"name":"tickCumulativeTruncated","type":"int56","internalType":"int56"},{"name":"initialized","type":"bool","internalType":"bool"}],"stateMutability":"view"},{"type":"function","name":"observe","inputs":[{"name":"secondsAgos","type":"uint32[]","internalType":"uint32[]"},{"name":"underlyingPoolId","type":"bytes32","internalType":"PoolId"}],"outputs":[{"name":"","type":"int56[]","internalType":"int56[]"},{"name":"","type":"int56[]","internalType":"int56[]"}],"stateMutability":"view"},{"type":"function","name":"poolManager","inputs":[],"outputs":[{"name":"","type":"address","internalType":"contract IPoolManager"}],"stateMutability":"view"},{"type":"function","name":"standardAdapter","inputs":[{"name":"","type":"bytes32","internalType":"PoolId"}],"outputs":[{"name":"","type":"address","internalType":"address"}],"stateMutability":"view"},{"type":"function","name":"stateById","inputs":[{"name":"","type":"bytes32","internalType":"PoolId"}],"outputs":[{"name":"observationIndex","type":"uint16","internalType":"uint16"},{"name":"observationCardinality","type":"uint16","internalType":"uint16"},{"name":"observationCardinalityNext","type":"uint16","internalType":"uint16"}],"stateMutability":"view"},{"type":"function","name":"truncatedAdapter","inputs":[{"name":"","type":"bytes32","internalType":"PoolId"}],"outputs":[{"name":"","type":"address","internalType":"address"}],"stateMutability":"view"},{"type":"event","name":"IncreaseObservationCardinalityNext","inputs":[{"name":"observationCardinalityNextOld","type":"uint16","indexed":false,"internalType":"uint16"},{"name":"observationCardinalityNextNew","type":"uint16","indexed":false,"internalType":"uint16"}],"anonymous":false},{"type":"event","name":"OracleInitialized","inputs":[{"name":"poolId","type":"bytes32","indexed":true,"internalType":"PoolId"},{"name":"standardAdapter","type":"address","indexed":false,"internalType":"address"},{"name":"truncatedAdapter","type":"address","indexed":false,"internalType":"address"}],"anonymous":false},{"type":"error","name":"HookNotImplemented","inputs":[]},{"type":"error","name":"NotManager","inputs":[]},{"type":"error","name":"NotPoolManager","inputs":[]},{"type":"error","name":"TargetPredatesOldestObservation","inputs":[{"name":"oldestTimestamp","type":"uint32","internalType":"uint32"},{"name":"targetTimestamp","type":"uint32","internalType":"uint32"}]}],"bytecode":{"object":"0x60e060405234801561000f575f80fd5b506040516166e33803806166e383398181016040528101906100319190610662565b81808073ffffffffffffffffffffffffffffffffffffffff1660808173ffffffffffffffffffffffffffffffffffffffff168152505050610077306100c160201b60201c565b508173ffffffffffffffffffffffffffffffffffffffff1660a08173ffffffffffffffffffffffffffffffffffffffff16815250508060020b60c08160020b8152505050506106a0565b6100de816100d36100e160201b60201c565b61016a60201b60201c565b50565b6100e9610540565b604051806101c001604052805f151581526020016001151581526020015f151581526020015f151581526020015f151581526020015f151581526020016001151581526020015f151581526020015f151581526020015f151581526020015f151581526020015f151581526020015f151581526020015f1515815250905090565b6101956120008373ffffffffffffffffffffffffffffffffffffffff166104f960201b90919060201c565b1515815f015115151415806101dc57506101d06110008373ffffffffffffffffffffffffffffffffffffffff166104f960201b90919060201c565b15158160200151151514155b80610219575061020d6108008373ffffffffffffffffffffffffffffffffffffffff166104f960201b90919060201c565b15158160400151151514155b80610256575061024a6104008373ffffffffffffffffffffffffffffffffffffffff166104f960201b90919060201c565b15158160600151151514155b8061029357506102876102008373ffffffffffffffffffffffffffffffffffffffff166104f960201b90919060201c565b15158160800151151514155b806102d057506102c46101008373ffffffffffffffffffffffffffffffffffffffff166104f960201b90919060201c565b15158160a00151151514155b8061030c575061030060808373ffffffffffffffffffffffffffffffffffffffff166104f960201b90919060201c565b15158160c00151151514155b80610348575061033c60408373ffffffffffffffffffffffffffffffffffffffff166104f960201b90919060201c565b15158160e00151151514155b80610385575061037860208373ffffffffffffffffffffffffffffffffffffffff166104f960201b90919060201c565b1515816101000151151514155b806103c257506103b560108373ffffffffffffffffffffffffffffffffffffffff166104f960201b90919060201c565b1515816101200151151514155b806103ff57506103f260088373ffffffffffffffffffffffffffffffffffffffff166104f960201b90919060201c565b1515816101400151151514155b8061043c575061042f60048373ffffffffffffffffffffffffffffffffffffffff166104f960201b90919060201c565b1515816101600151151514155b80610479575061046c60028373ffffffffffffffffffffffffffffffffffffffff166104f960201b90919060201c565b1515816101800151151514155b806104b657506104a960018373ffffffffffffffffffffffffffffffffffffffff166104f960201b90919060201c565b1515816101a00151151514155b156104f5576104f48263e65af6a060e01b7bffffffffffffffffffffffffffffffffffffffffffffffffffffffff191661051e60201b90919060201c565b5b5050565b5f8082841673ffffffffffffffffffffffffffffffffffffffff161415905092915050565b815f5273ffffffffffffffffffffffffffffffffffffffff811660045260245ffd5b604051806101c001604052805f151581526020015f151581526020015f151581526020015f151581526020015f151581526020015f151581526020015f151581526020015f151581526020015f151581526020015f151581526020015f151581526020015f151581526020015f151581526020015f151581525090565b5f80fd5b5f73ffffffffffffffffffffffffffffffffffffffff82169050919050565b5f6105ea826105c1565b9050919050565b5f6105fb826105e0565b9050919050565b61060b816105f1565b8114610615575f80fd5b50565b5f8151905061062681610602565b92915050565b5f8160020b9050919050565b6106418161062c565b811461064b575f80fd5b50565b5f8151905061065c81610638565b92915050565b5f8060408385031215610678576106776105bd565b5b5f61068585828601610618565b92505060206106968582860161064e565b9150509250929050565b60805160a05160c051615f9b6107485f395f818161049f015281816105df01526113a301525f81816105460152818161079d0152818161122501528181611346015281816114d40152818161163f015261169701525f8181610632015281816106d00152818161088d01528181610932015281816109d701528181610a7401528181610b9a01528181610c3d01528181610d6501528181610dd70152610e710152615f9b5ff3fe608060405234801561000f575f80fd5b5060043610610129575f3560e01c80639f063efc116100ab578063dc4c90d31161006f578063dc4c90d3146103bd578063dc86496c146103db578063dc98354e1461040d578063e1b4af691461043d578063fdee5ead1461046d57610129565b80639f063efc146102d9578063a5cf88401461030a578063b47b2fb11461033e578063b6a8b0fa1461036f578063c4e833ce1461039f57610129565b8063481c6a75116100f2578063481c6a751461020c5780634f4132371461022a578063575e24b4146102465780636c2bbe7e146102785780636fe7e6eb146102a957610129565b8062c843241461012d5780630520d4451461014b57806321d0ee701461017c578063259982e5146101ac57806341cd7797146101dc575b5f80fd5b61013561049d565b604051610142919061265e565b60405180910390f35b6101656004803603810190610160919061271c565b6104c1565b60405161017392919061283c565b60405180910390f35b61019660048036038101906101919190612960565b61062f565b6040516101a39190612a20565b60405180910390f35b6101c660048036038101906101c19190612960565b6106cd565b6040516101d39190612a20565b60405180910390f35b6101f660048036038101906101f19190612a39565b61076b565b6040516102039190612a73565b60405180910390f35b61021461079b565b6040516102219190612ae7565b60405180910390f35b610244600480360381019061023f9190612b37565b6107bf565b005b610260600480360381019061025b9190612b93565b610888565b60405161026f93929190612c6f565b60405180910390f35b610292600480360381019061028d9190612cce565b61092e565b6040516102a0929190612d8b565b60405180910390f35b6102c360048036038101906102be9190612e06565b6109d4565b6040516102d09190612a20565b60405180910390f35b6102f360048036038101906102ee9190612cce565b610a70565b604051610301929190612d8b565b60405180910390f35b610324600480360381019061031f9190612e9e565b610b16565b604051610335959493929190612f23565b60405180910390f35b61035860048036038101906103539190612f74565b610b96565b604051610366929190613028565b60405180910390f35b6103896004803603810190610384919061304f565b610c3a565b6040516103969190612a20565b60405180910390f35b6103a7610cda565b6040516103b49190613214565b60405180910390f35b6103c5610d63565b6040516103d29190612ae7565b60405180910390f35b6103f560048036038101906103f09190612a39565b610d87565b6040516104049392919061323d565b60405180910390f35b61042760048036038101906104229190613272565b610dd4565b6040516104349190612a20565b60405180910390f35b6104576004803603810190610452919061304f565b610e6e565b6040516104649190612a20565b60405180910390f35b61048760048036038101906104829190612a39565b610f0e565b6040516104949190612a73565b60405180910390f35b7f000000000000000000000000000000000000000000000000000000000000000081565b6060805f60015f8581526020019081526020015f206040518060600160405290815f82015f9054906101000a900461ffff1661ffff1661ffff1681526020015f820160029054906101000a900461ffff1661ffff1661ffff1681526020015f820160049054906101000a900461ffff1661ffff1661ffff168152505090505f610589857f000000000000000000000000000000000000000000000000000000000000000073ffffffffffffffffffffffffffffffffffffffff16610f3e90919063ffffffff16565b5050915050610621428888808060200260200160405190810160405280939291908181526020018383602002808284375f81840152601f19601f8201169050808301925050505050505083855f015186602001517f00000000000000000000000000000000000000000000000000000000000000005f808d81526020019081526020015f2061100c909695949392919063ffffffff16565b935093505050935093915050565b5f7f000000000000000000000000000000000000000000000000000000000000000073ffffffffffffffffffffffffffffffffffffffff163373ffffffffffffffffffffffffffffffffffffffff16146106b5576040517fae18210a00000000000000000000000000000000000000000000000000000000815260040160405180910390fd5b6106c2868686868661113f565b905095945050505050565b5f7f000000000000000000000000000000000000000000000000000000000000000073ffffffffffffffffffffffffffffffffffffffff163373ffffffffffffffffffffffffffffffffffffffff1614610753576040517fae18210a00000000000000000000000000000000000000000000000000000000815260040160405180910390fd5b6107608686868686611172565b905095945050505050565b6003602052805f5260405f205f915054906101000a900473ffffffffffffffffffffffffffffffffffffffff1681565b7f000000000000000000000000000000000000000000000000000000000000000081565b5f60015f8381526020019081526020015f205f0160049054906101000a900461ffff1690505f61080982855f808781526020019081526020015f206111a59092919063ffffffff16565b90508060015f8581526020019081526020015f205f0160046101000a81548161ffff021916908361ffff1602179055508061ffff168261ffff1614610882577fac49e518f90a358f652e4400164f05a5d8f7e35e7747279bc3a93dbf584e125a82826040516108799291906132c2565b60405180910390a15b50505050565b5f805f7f000000000000000000000000000000000000000000000000000000000000000073ffffffffffffffffffffffffffffffffffffffff163373ffffffffffffffffffffffffffffffffffffffff1614610910576040517fae18210a00000000000000000000000000000000000000000000000000000000815260040160405180910390fd5b61091d8888888888611220565b925092509250955095509592505050565b5f807f000000000000000000000000000000000000000000000000000000000000000073ffffffffffffffffffffffffffffffffffffffff163373ffffffffffffffffffffffffffffffffffffffff16146109b5576040517fae18210a00000000000000000000000000000000000000000000000000000000815260040160405180910390fd5b6109c48989898989898961149d565b9150915097509795505050505050565b5f7f000000000000000000000000000000000000000000000000000000000000000073ffffffffffffffffffffffffffffffffffffffff163373ffffffffffffffffffffffffffffffffffffffff1614610a5a576040517fae18210a00000000000000000000000000000000000000000000000000000000815260040160405180910390fd5b610a66858585856114d1565b9050949350505050565b5f807f000000000000000000000000000000000000000000000000000000000000000073ffffffffffffffffffffffffffffffffffffffff163373ffffffffffffffffffffffffffffffffffffffff1614610af7576040517fae18210a00000000000000000000000000000000000000000000000000000000815260040160405180910390fd5b610b06898989898989896117db565b9150915097509795505050505050565b5f602052815f5260405f208161ffff8110610b2f575f80fd5b015f9150915050805f015f9054906101000a900463ffffffff1690805f0160049054906101000a900460020b90805f0160079054906101000a900460060b90805f01600e9054906101000a900460060b90805f0160159054906101000a900460ff16905085565b5f807f000000000000000000000000000000000000000000000000000000000000000073ffffffffffffffffffffffffffffffffffffffff163373ffffffffffffffffffffffffffffffffffffffff1614610c1d576040517fae18210a00000000000000000000000000000000000000000000000000000000815260040160405180910390fd5b610c2b88888888888861180f565b91509150965096945050505050565b5f7f000000000000000000000000000000000000000000000000000000000000000073ffffffffffffffffffffffffffffffffffffffff163373ffffffffffffffffffffffffffffffffffffffff1614610cc0576040517fae18210a00000000000000000000000000000000000000000000000000000000815260040160405180910390fd5b610cce878787878787611843565b90509695505050505050565b610ce2612571565b604051806101c001604052805f151581526020016001151581526020015f151581526020015f151581526020015f151581526020015f151581526020016001151581526020015f151581526020015f151581526020015f151581526020015f151581526020015f151581526020015f151581526020015f1515815250905090565b7f000000000000000000000000000000000000000000000000000000000000000081565b6001602052805f5260405f205f91509050805f015f9054906101000a900461ffff1690805f0160029054906101000a900461ffff1690805f0160049054906101000a900461ffff16905083565b5f7f000000000000000000000000000000000000000000000000000000000000000073ffffffffffffffffffffffffffffffffffffffff163373ffffffffffffffffffffffffffffffffffffffff1614610e5a576040517fae18210a00000000000000000000000000000000000000000000000000000000815260040160405180910390fd5b610e65848484611876565b90509392505050565b5f7f000000000000000000000000000000000000000000000000000000000000000073ffffffffffffffffffffffffffffffffffffffff163373ffffffffffffffffffffffffffffffffffffffff1614610ef4576040517fae18210a00000000000000000000000000000000000000000000000000000000815260040160405180910390fd5b610f028787878787876118a9565b90509695505050505050565b6002602052805f5260405f205f915054906101000a900473ffffffffffffffffffffffffffffffffffffffff1681565b5f805f805f610f4c866118dc565b90505f8773ffffffffffffffffffffffffffffffffffffffff16631e2eaeaf836040518263ffffffff1660e01b8152600401610f8891906132f8565b602060405180830381865afa158015610fa3573d5f803e3d5ffd5b505050506040513d601f19601f82011682018060405250810190610fc7919061333b565b905073ffffffffffffffffffffffffffffffffffffffff811695508060a01c60020b945062ffffff8160b81c16935062ffffff8160d01c169250505092959194509250565b606080865167ffffffffffffffff81111561102a57611029613366565b5b6040519080825280602002602001820160405280156110585781602001602082028036833780820191505090505b509150865167ffffffffffffffff81111561107657611075613366565b5b6040519080825280602002602001820160405280156110a45781602001602082028036833780820191505090505b5090505f5b8751811015611132576110db8a8a8a84815181106110ca576110c9613393565b5b60200260200101518a8a8a8a611910565b8483815181106110ee576110ed613393565b5b6020026020010184848151811061110857611107613393565b5b602002602001018260060b60060b8152508260060b60060b815250505080806001019150506110a9565b5097509795505050505050565b5f6040517f0a85dc2900000000000000000000000000000000000000000000000000000000815260040160405180910390fd5b5f6040517f0a85dc2900000000000000000000000000000000000000000000000000000000815260040160405180910390fd5b5f8261ffff168261ffff16116111bd57829050611219565b5b8161ffff168361ffff161015611215576001848461ffff1661ffff81106111e8576111e7613393565b5b015f015f6101000a81548163ffffffff021916908363ffffffff16021790555082806001019350506111be565b8190505b9392505050565b5f805f7f000000000000000000000000000000000000000000000000000000000000000073ffffffffffffffffffffffffffffffffffffffff163373ffffffffffffffffffffffffffffffffffffffff16146112a8576040517fc0fc8a8a00000000000000000000000000000000000000000000000000000000815260040160405180910390fd5b5f6112c2888036038101906112bd9190613537565b611b19565b90505f60015f8381526020019081526020015f206040518060600160405290815f82015f9054906101000a900461ffff1661ffff1661ffff1681526020015f820160029054906101000a900461ffff1661ffff1661ffff1681526020015f820160049054906101000a900461ffff1661ffff1661ffff168152505090505f611389837f000000000000000000000000000000000000000000000000000000000000000073ffffffffffffffffffffffffffffffffffffffff16610f3e90919063ffffffff16565b50509150506113e5825f01514283856020015186604001517f00000000000000000000000000000000000000000000000000000000000000005f808b81526020019081526020015f20611b25909695949392919063ffffffff16565b835f01846020018261ffff1661ffff168152508261ffff1661ffff1681525050508160015f8581526020019081526020015f205f820151815f015f6101000a81548161ffff021916908361ffff1602179055506020820151815f0160026101000a81548161ffff021916908361ffff1602179055506040820151815f0160046101000a81548161ffff021916908361ffff16021790555090505063575e24b460e01b5f80955095509550505050955095509592505050565b5f806040517f0a85dc2900000000000000000000000000000000000000000000000000000000815260040160405180910390fd5b5f7f000000000000000000000000000000000000000000000000000000000000000073ffffffffffffffffffffffffffffffffffffffff163373ffffffffffffffffffffffffffffffffffffffff1614611557576040517fc0fc8a8a00000000000000000000000000000000000000000000000000000000815260040160405180910390fd5b5f6115718580360381019061156c9190613537565b611b19565b90505f8061159942865f808781526020019081526020015f20611d509092919063ffffffff16565b9150915060405180606001604052805f61ffff1681526020018361ffff1681526020018261ffff1681525060015f8581526020019081526020015f205f820151815f015f6101000a81548161ffff021916908361ffff1602179055506020820151815f0160026101000a81548161ffff021916908361ffff1602179055506040820151815f0160046101000a81548161ffff021916908361ffff1602179055509050505f7f0000000000000000000000000000000000000000000000000000000000000000308560405161166c906125ee565b611678939291906135a2565b604051809103905ff080158015611691573d5f803e3d5ffd5b5090505f7f000000000000000000000000000000000000000000000000000000000000000030866040516116c4906125fb565b6116d0939291906135a2565b604051809103905ff0801580156116e9573d5f803e3d5ffd5b5090508160025f8781526020019081526020015f205f6101000a81548173ffffffffffffffffffffffffffffffffffffffff021916908373ffffffffffffffffffffffffffffffffffffffff1602179055508060035f8781526020019081526020015f205f6101000a81548173ffffffffffffffffffffffffffffffffffffffff021916908373ffffffffffffffffffffffffffffffffffffffff160217905550847faea802fd90d610f3dd92f106096121bf1eaac415fd8d998dd8d62f4e6650831183836040516117bc9291906135d7565b60405180910390a2636fe7e6eb60e01b95505050505050949350505050565b5f806040517f0a85dc2900000000000000000000000000000000000000000000000000000000815260040160405180910390fd5b5f806040517f0a85dc2900000000000000000000000000000000000000000000000000000000815260040160405180910390fd5b5f6040517f0a85dc2900000000000000000000000000000000000000000000000000000000815260040160405180910390fd5b5f6040517f0a85dc2900000000000000000000000000000000000000000000000000000000815260040160405180910390fd5b5f6040517f0a85dc2900000000000000000000000000000000000000000000000000000000815260040160405180910390fd5b5f8160065f1b6040516020016118f392919061361e565b604051602081830303815290604052805190602001209050919050565b5f805f8763ffffffff1603611a11575f898661ffff1661ffff811061193857611937613393565b5b016040518060a00160405290815f82015f9054906101000a900463ffffffff1663ffffffff1663ffffffff1681526020015f820160049054906101000a900460020b60020b60020b81526020015f820160079054906101000a900460060b60060b60060b81526020015f8201600e9054906101000a900460060b60060b60060b81526020015f820160159054906101000a900460ff16151515158152505090508863ffffffff16815f015163ffffffff16146119fd576119fa818a8987611e7a565b90505b806040015181606001519250925050611b0d565b5f87890390505f80611a288c8c858c8c8c8c611f3e565b91509150815f015163ffffffff168363ffffffff1603611a58578160400151826060015194509450505050611b0d565b805f015163ffffffff168363ffffffff1603611a84578060400151816060015194509450505050611b0d565b5f825f0151825f01510390505f835f0151850390508063ffffffff168263ffffffff1660060b856040015185604001510360060b81611ac657611ac5613649565b5b05028460400151018163ffffffff168363ffffffff1660060b866060015186606001510360060b81611afb57611afa613649565b5b05028560600151019650965050505050505b97509795505050505050565b5f60a082209050919050565b5f805f898961ffff1661ffff8110611b4057611b3f613393565b5b016040518060a00160405290815f82015f9054906101000a900463ffffffff1663ffffffff1663ffffffff1681526020015f820160049054906101000a900460020b60020b60020b81526020015f820160079054906101000a900460060b60060b60060b81526020015f8201600e9054906101000a900460060b60060b60060b81526020015f820160159054906101000a900460ff16151515158152505090508763ffffffff16815f015163ffffffff1603611c025788869250925050611d44565b8561ffff168561ffff16118015611c2357506001860361ffff168961ffff16145b15611c3057849150611c34565b8591505b8161ffff1660018a0161ffff1681611c4f57611c4e613649565b5b069250611c5e81898987611e7a565b8a8461ffff1661ffff8110611c7657611c75613393565b5b015f820151815f015f6101000a81548163ffffffff021916908363ffffffff1602179055506020820151815f0160046101000a81548162ffffff021916908360020b62ffffff1602179055506040820151815f0160076101000a81548166ffffffffffffff021916908360060b66ffffffffffffff1602179055506060820151815f01600e6101000a81548166ffffffffffffff021916908360060b66ffffffffffffff1602179055506080820151815f0160156101000a81548160ff021916908315150217905550905050505b97509795505050505050565b5f806040518060a001604052808563ffffffff1681526020018460020b81526020015f60060b81526020015f60060b815260200160011515815250855f61ffff8110611d9f57611d9e613393565b5b015f820151815f015f6101000a81548163ffffffff021916908363ffffffff1602179055506020820151815f0160046101000a81548162ffffff021916908360020b62ffffff1602179055506040820151815f0160076101000a81548166ffffffffffffff021916908360060b66ffffffffffffff1602179055506060820151815f01600e6101000a81548166ffffffffffffff021916908360060b66ffffffffffffff1602179055506080820151815f0160156101000a81548160ff02191690831515021790555090505060018091509150935093915050565b611e82612608565b5f8390505f8660200151850390508360020b8160020b1380611eab5750835f0360020b8160020b125b15611ecd575f8160020b13611ec257835f03611ec4565b835b87602001510191505b5f875f0151870390506040518060a001604052808863ffffffff1681526020018460020b81526020018263ffffffff168860020b028a604001510160060b81526020018263ffffffff168560020b028a606001510160060b8152602001600115158152509350505050949350505050565b611f46612608565b611f4e612608565b888561ffff1661ffff8110611f6657611f65613393565b5b016040518060a00160405290815f82015f9054906101000a900463ffffffff1663ffffffff1663ffffffff1681526020015f820160049054906101000a900460020b60020b60020b81526020015f820160079054906101000a900460060b60060b60060b81526020015f8201600e9054906101000a900460060b60060b60060b81526020015f820160159054906101000a900460ff161515151581525050915061201488835f015189612249565b15612046578663ffffffff16825f015163ffffffff16031561223d578161203d83898987611e7a565b9150915061223d565b888461ffff166001870161ffff168161206257612061613649565b5b0661ffff1661ffff811061207957612078613393565b5b016040518060a00160405290815f82015f9054906101000a900463ffffffff1663ffffffff1663ffffffff1681526020015f820160049054906101000a900460020b60020b60020b81526020015f820160079054906101000a900460060b60060b60060b81526020015f8201600e9054906101000a900460060b60060b60060b81526020015f820160159054906101000a900460ff161515151581525050915081608001516121d757885f61ffff811061213657612135613393565b5b016040518060a00160405290815f82015f9054906101000a900463ffffffff1663ffffffff1663ffffffff1681526020015f820160049054906101000a900460020b60020b60020b81526020015f820160079054906101000a900460060b60060b60060b81526020015f8201600e9054906101000a900460060b60060b60060b81526020015f820160159054906101000a900460ff16151515158152505091505b6121e588835f015189612249565b61222b57815f0151876040517f28e44dc0000000000000000000000000000000000000000000000000000000008152600401612222929190613676565b60405180910390fd5b612238898989888861230e565b915091505b97509795505050505050565b5f8363ffffffff168363ffffffff161115801561227257508363ffffffff168263ffffffff1611155b1561228e578163ffffffff168363ffffffff1611159050612307565b5f8463ffffffff168463ffffffff16116122b5576401000000008463ffffffff16016122bd565b8363ffffffff165b64ffffffffff1690505f8563ffffffff168463ffffffff16116122ed576401000000008463ffffffff16016122f5565b8363ffffffff165b64ffffffffff16905080821115925050505b9392505050565b612316612608565b61231e612608565b5f8361ffff166001860161ffff168161233a57612339613649565b5b0661ffff1690505f60018561ffff1683010390505f5b6001156125645760028284018161236a57612369613649565b5b049050898661ffff16828161238257612381613649565b5b0661ffff811061239557612394613393565b5b016040518060a00160405290815f82015f9054906101000a900463ffffffff1663ffffffff1663ffffffff1681526020015f820160049054906101000a900460020b60020b60020b81526020015f820160079054906101000a900460060b60060b60060b81526020015f8201600e9054906101000a900460060b60060b60060b81526020015f820160159054906101000a900460ff1615151515815250509450846080015161244957600181019250612350565b898661ffff16600183018161246157612460613649565b5b0661ffff811061247457612473613393565b5b016040518060a00160405290815f82015f9054906101000a900463ffffffff1663ffffffff1663ffffffff1681526020015f820160049054906101000a900460020b60020b60020b81526020015f820160079054906101000a900460060b60060b60060b81526020015f8201600e9054906101000a900460060b60060b60060b81526020015f820160159054906101000a900460ff16151515158152505093505f6125238a875f01518b612249565b905080801561253c575061253b8a8a875f0151612249565b5b156125475750612564565b806125575760018203925061255e565b6001820193505b50612350565b5050509550959350505050565b604051806101c001604052805f151581526020015f151581526020015f151581526020015f151581526020015f151581526020015f151581526020015f151581526020015f151581526020015f151581526020015f151581526020015f151581526020015f151581526020015f151581526020015f151581525090565b6114638061369e83390190565b61146580614b0183390190565b6040518060a001604052805f63ffffffff1681526020015f60020b81526020015f60060b81526020015f60060b81526020015f151581525090565b5f8160020b9050919050565b61265881612643565b82525050565b5f6020820190506126715f83018461264f565b92915050565b5f604051905090565b5f80fd5b5f80fd5b5f80fd5b5f80fd5b5f80fd5b5f8083601f8401126126a9576126a8612688565b5b8235905067ffffffffffffffff8111156126c6576126c561268c565b5b6020830191508360208202830111156126e2576126e1612690565b5b9250929050565b5f819050919050565b6126fb816126e9565b8114612705575f80fd5b50565b5f81359050612716816126f2565b92915050565b5f805f6040848603121561273357612732612680565b5b5f84013567ffffffffffffffff8111156127505761274f612684565b5b61275c86828701612694565b9350935050602061276f86828701612708565b9150509250925092565b5f81519050919050565b5f82825260208201905092915050565b5f819050602082019050919050565b5f8160060b9050919050565b6127b7816127a2565b82525050565b5f6127c883836127ae565b60208301905092915050565b5f602082019050919050565b5f6127ea82612779565b6127f48185612783565b93506127ff83612793565b805f5b8381101561282f57815161281688826127bd565b9750612821836127d4565b925050600181019050612802565b5085935050505092915050565b5f6040820190508181035f83015261285481856127e0565b9050818103602083015261286881846127e0565b90509392505050565b5f73ffffffffffffffffffffffffffffffffffffffff82169050919050565b5f61289a82612871565b9050919050565b6128aa81612890565b81146128b4575f80fd5b50565b5f813590506128c5816128a1565b92915050565b5f80fd5b5f60a082840312156128e4576128e36128cb565b5b81905092915050565b5f60808284031215612902576129016128cb565b5b81905092915050565b5f8083601f8401126129205761291f612688565b5b8235905067ffffffffffffffff81111561293d5761293c61268c565b5b60208301915083600182028301111561295957612958612690565b5b9250929050565b5f805f805f610160868803121561297a57612979612680565b5b5f612987888289016128b7565b9550506020612998888289016128cf565b94505060c06129a9888289016128ed565b93505061014086013567ffffffffffffffff8111156129cb576129ca612684565b5b6129d78882890161290b565b92509250509295509295909350565b5f7fffffffff0000000000000000000000000000000000000000000000000000000082169050919050565b612a1a816129e6565b82525050565b5f602082019050612a335f830184612a11565b92915050565b5f60208284031215612a4e57612a4d612680565b5b5f612a5b84828501612708565b91505092915050565b612a6d81612890565b82525050565b5f602082019050612a865f830184612a64565b92915050565b5f819050919050565b5f612aaf612aaa612aa584612871565b612a8c565b612871565b9050919050565b5f612ac082612a95565b9050919050565b5f612ad182612ab6565b9050919050565b612ae181612ac7565b82525050565b5f602082019050612afa5f830184612ad8565b92915050565b5f61ffff82169050919050565b612b1681612b00565b8114612b20575f80fd5b50565b5f81359050612b3181612b0d565b92915050565b5f8060408385031215612b4d57612b4c612680565b5b5f612b5a85828601612b23565b9250506020612b6b85828601612708565b9150509250929050565b5f60608284031215612b8a57612b896128cb565b5b81905092915050565b5f805f805f6101408688031215612bad57612bac612680565b5b5f612bba888289016128b7565b9550506020612bcb888289016128cf565b94505060c0612bdc88828901612b75565b93505061012086013567ffffffffffffffff811115612bfe57612bfd612684565b5b612c0a8882890161290b565b92509250509295509295909350565b5f819050919050565b5f612c3c612c37612c3284612c19565b612a8c565b612c19565b9050919050565b612c4c81612c22565b82525050565b5f62ffffff82169050919050565b612c6981612c52565b82525050565b5f606082019050612c825f830186612a11565b612c8f6020830185612c43565b612c9c6040830184612c60565b949350505050565b612cad81612c19565b8114612cb7575f80fd5b50565b5f81359050612cc881612ca4565b92915050565b5f805f805f805f6101a0888a031215612cea57612ce9612680565b5b5f612cf78a828b016128b7565b9750506020612d088a828b016128cf565b96505060c0612d198a828b016128ed565b955050610140612d2b8a828b01612cba565b945050610160612d3d8a828b01612cba565b93505061018088013567ffffffffffffffff811115612d5f57612d5e612684565b5b612d6b8a828b0161290b565b925092505092959891949750929550565b612d8581612c22565b82525050565b5f604082019050612d9e5f830185612a11565b612dab6020830184612d7c565b9392505050565b612dbb81612871565b8114612dc5575f80fd5b50565b5f81359050612dd681612db2565b92915050565b612de581612643565b8114612def575f80fd5b50565b5f81359050612e0081612ddc565b92915050565b5f805f806101008587031215612e1f57612e1e612680565b5b5f612e2c878288016128b7565b9450506020612e3d878288016128cf565b93505060c0612e4e87828801612dc8565b92505060e0612e5f87828801612df2565b91505092959194509250565b5f819050919050565b612e7d81612e6b565b8114612e87575f80fd5b50565b5f81359050612e9881612e74565b92915050565b5f8060408385031215612eb457612eb3612680565b5b5f612ec185828601612708565b9250506020612ed285828601612e8a565b9150509250929050565b5f63ffffffff82169050919050565b612ef481612edc565b82525050565b612f03816127a2565b82525050565b5f8115159050919050565b612f1d81612f09565b82525050565b5f60a082019050612f365f830188612eeb565b612f43602083018761264f565b612f506040830186612efa565b612f5d6060830185612efa565b612f6a6080830184612f14565b9695505050505050565b5f805f805f806101608789031215612f8f57612f8e612680565b5b5f612f9c89828a016128b7565b9650506020612fad89828a016128cf565b95505060c0612fbe89828a01612b75565b945050610120612fd089828a01612cba565b93505061014087013567ffffffffffffffff811115612ff257612ff1612684565b5b612ffe89828a0161290b565b92509250509295509295509295565b5f81600f0b9050919050565b6130228161300d565b82525050565b5f60408201905061303b5f830185612a11565b6130486020830184613019565b9392505050565b5f805f805f80610120878903121561306a57613069612680565b5b5f61307789828a016128b7565b965050602061308889828a016128cf565b95505060c061309989828a01612e8a565b94505060e06130aa89828a01612e8a565b93505061010087013567ffffffffffffffff8111156130cc576130cb612684565b5b6130d889828a0161290b565b92509250509295509295509295565b6130f081612f09565b82525050565b6101c082015f82015161310b5f8501826130e7565b50602082015161311e60208501826130e7565b50604082015161313160408501826130e7565b50606082015161314460608501826130e7565b50608082015161315760808501826130e7565b5060a082015161316a60a08501826130e7565b5060c082015161317d60c08501826130e7565b5060e082015161319060e08501826130e7565b506101008201516131a56101008501826130e7565b506101208201516131ba6101208501826130e7565b506101408201516131cf6101408501826130e7565b506101608201516131e46101608501826130e7565b506101808201516131f96101808501826130e7565b506101a082015161320e6101a08501826130e7565b50505050565b5f6101c0820190506132285f8301846130f6565b92915050565b61323781612b00565b82525050565b5f6060820190506132505f83018661322e565b61325d602083018561322e565b61326a604083018461322e565b949350505050565b5f805f60e0848603121561328957613288612680565b5b5f613296868287016128b7565b93505060206132a7868287016128cf565b92505060c06132b886828701612dc8565b9150509250925092565b5f6040820190506132d55f83018561322e565b6132e2602083018461322e565b9392505050565b6132f2816126e9565b82525050565b5f60208201905061330b5f8301846132e9565b92915050565b61331a816126e9565b8114613324575f80fd5b50565b5f8151905061333581613311565b92915050565b5f602082840312156133505761334f612680565b5b5f61335d84828501613327565b91505092915050565b7f4e487b71000000000000000000000000000000000000000000000000000000005f52604160045260245ffd5b7f4e487b71000000000000000000000000000000000000000000000000000000005f52603260045260245ffd5b5f80fd5b5f601f19601f8301169050919050565b6133dd826133c4565b810181811067ffffffffffffffff821117156133fc576133fb613366565b5b80604052505050565b5f61340e612677565b905061341a82826133d4565b919050565b61342881612890565b8114613432575f80fd5b50565b5f813590506134438161341f565b92915050565b61345281612c52565b811461345c575f80fd5b50565b5f8135905061346d81613449565b92915050565b5f61347d82612890565b9050919050565b61348d81613473565b8114613497575f80fd5b50565b5f813590506134a881613484565b92915050565b5f60a082840312156134c3576134c26133c0565b5b6134cd60a0613405565b90505f6134dc84828501613435565b5f8301525060206134ef84828501613435565b60208301525060406135038482850161345f565b604083015250606061351784828501612df2565b606083015250608061352b8482850161349a565b60808301525092915050565b5f60a0828403121561354c5761354b612680565b5b5f613559848285016134ae565b91505092915050565b5f61356c82612ab6565b9050919050565b61357c81613562565b82525050565b5f61358c826126e9565b9050919050565b61359c81613582565b82525050565b5f6060820190506135b55f830186612ad8565b6135c26020830185613573565b6135cf6040830184613593565b949350505050565b5f6040820190506135ea5f830185612a64565b6135f76020830184612a64565b9392505050565b5f819050919050565b613618613613826126e9565b6135fe565b82525050565b5f6136298285613607565b6020820191506136398284613607565b6020820191508190509392505050565b7f4e487b71000000000000000000000000000000000000000000000000000000005f52601260045260245ffd5b5f6040820190506136895f830185612eeb565b6136966020830184612eeb565b939250505056fe60e060405234801561000f575f80fd5b5060405161146338038061146383398181016040528101906100319190610186565b8273ffffffffffffffffffffffffffffffffffffffff1660a08173ffffffffffffffffffffffffffffffffffffffff16815250508173ffffffffffffffffffffffffffffffffffffffff1660808173ffffffffffffffffffffffffffffffffffffffff16815250508060c081815250505050506101d6565b5f80fd5b5f73ffffffffffffffffffffffffffffffffffffffff82169050919050565b5f6100d6826100ad565b9050919050565b5f6100e7826100cc565b9050919050565b6100f7816100dd565b8114610101575f80fd5b50565b5f81519050610112816100ee565b92915050565b5f610122826100cc565b9050919050565b61013281610118565b811461013c575f80fd5b50565b5f8151905061014d81610129565b92915050565b5f819050919050565b61016581610153565b811461016f575f80fd5b50565b5f815190506101808161015c565b92915050565b5f805f6060848603121561019d5761019c6100a9565b5b5f6101aa86828701610104565b93505060206101bb8682870161013f565b92505060406101cc86828701610172565b9150509250925092565b60805160a05160c05161121d6102465f395f81816101bf015281816102960152818161030e015281816103bb01528181610453015261050001525f818161032f015261049b01525f8181610183015281816102590152818161037f0152818161047701526104c2015261121d5ff3fe608060405234801561000f575f80fd5b506004361061007b575f3560e01c80633e0dc34e116100595780633e0dc34e146100f25780634469102b14610110578063481c6a751461012e578063883bdbfd1461014c5761007b565b8063252c09d71461007f57806332148f67146100b25780633850c7bd146100ce575b5f80fd5b6100996004803603810190610094919061071f565b61017d565b6040516100a994939291906107cb565b60405180910390f35b6100cc60048036038101906100c79190610845565b610257565b005b6100d6610302565b6040516100e997969594939291906108b5565b60405180910390f35b6100fa610451565b604051610107919061094b565b60405180910390f35b610118610475565b60405161012591906109bf565b60405180910390f35b610136610499565b60405161014391906109f8565b60405180910390f35b61016660048036038101906101619190610a72565b6104bd565b604051610174929190610c2b565b60405180910390f35b5f805f807f000000000000000000000000000000000000000000000000000000000000000073ffffffffffffffffffffffffffffffffffffffff1663a5cf88407f0000000000000000000000000000000000000000000000000000000000000000876040518363ffffffff1660e01b81526004016101fc929190610c90565b60a060405180830381865afa158015610217573d5f803e3d5ffd5b505050506040513d601f19601f8201168201806040525081019061023b9190610d5f565b9091925090508093508195508296505050505f91509193509193565b7f000000000000000000000000000000000000000000000000000000000000000073ffffffffffffffffffffffffffffffffffffffff16634f413237827f00000000000000000000000000000000000000000000000000000000000000006040518363ffffffff1660e01b81526004016102d2929190610dd6565b5f604051808303815f87803b1580156102e9575f80fd5b505af11580156102fb573d5f803e3d5ffd5b5050505050565b5f805f805f805f6103727f00000000000000000000000000000000000000000000000000000000000000007f000000000000000000000000000000000000000000000000000000000000000073ffffffffffffffffffffffffffffffffffffffff166105d990919063ffffffff16565b90505080975081985050507f000000000000000000000000000000000000000000000000000000000000000073ffffffffffffffffffffffffffffffffffffffff1663dc86496c7f00000000000000000000000000000000000000000000000000000000000000006040518263ffffffff1660e01b81526004016103f6919061094b565b606060405180830381865afa158015610411573d5f803e3d5ffd5b505050506040513d601f19601f820116820180604052508101906104359190610e11565b8095508196508297505050505f91506001905090919293949596565b7f000000000000000000000000000000000000000000000000000000000000000081565b7f000000000000000000000000000000000000000000000000000000000000000081565b7f000000000000000000000000000000000000000000000000000000000000000081565b6060807f000000000000000000000000000000000000000000000000000000000000000073ffffffffffffffffffffffffffffffffffffffff16630520d44585857f00000000000000000000000000000000000000000000000000000000000000006040518463ffffffff1660e01b815260040161053d93929190610f31565b5f60405180830381865afa158015610557573d5f803e3d5ffd5b505050506040513d5f823e3d601f19601f8201168201806040525081019061057f91906110a9565b50809250508383905067ffffffffffffffff8111156105a1576105a0610f71565b5b6040519080825280602002602001820160405280156105cf5781602001602082028036833780820191505090505b5090509250929050565b5f805f805f6105e7866106a7565b90505f8773ffffffffffffffffffffffffffffffffffffffff16631e2eaeaf836040518263ffffffff1660e01b8152600401610623919061112e565b602060405180830381865afa15801561063e573d5f803e3d5ffd5b505050506040513d601f19601f820116820180604052508101906106629190611171565b905073ffffffffffffffffffffffffffffffffffffffff811695508060a01c60020b945062ffffff8160b81c16935062ffffff8160d01c169250505092959194509250565b5f8160065f1b6040516020016106be9291906111bc565b604051602081830303815290604052805190602001209050919050565b5f604051905090565b5f80fd5b5f80fd5b5f819050919050565b6106fe816106ec565b8114610708575f80fd5b50565b5f81359050610719816106f5565b92915050565b5f60208284031215610734576107336106e4565b5b5f6107418482850161070b565b91505092915050565b5f63ffffffff82169050919050565b6107628161074a565b82525050565b5f8160060b9050919050565b61077d81610768565b82525050565b5f73ffffffffffffffffffffffffffffffffffffffff82169050919050565b6107ab81610783565b82525050565b5f8115159050919050565b6107c5816107b1565b82525050565b5f6080820190506107de5f830187610759565b6107eb6020830186610774565b6107f860408301856107a2565b61080560608301846107bc565b95945050505050565b5f61ffff82169050919050565b6108248161080e565b811461082e575f80fd5b50565b5f8135905061083f8161081b565b92915050565b5f6020828403121561085a576108596106e4565b5b5f61086784828501610831565b91505092915050565b5f8160020b9050919050565b61088581610870565b82525050565b6108948161080e565b82525050565b5f60ff82169050919050565b6108af8161089a565b82525050565b5f60e0820190506108c85f83018a6107a2565b6108d5602083018961087c565b6108e2604083018861088b565b6108ef606083018761088b565b6108fc608083018661088b565b61090960a08301856108a6565b61091660c08301846107bc565b98975050505050505050565b5f819050919050565b5f61093582610922565b9050919050565b6109458161092b565b82525050565b5f60208201905061095e5f83018461093c565b92915050565b5f819050919050565b5f61098761098261097d84610783565b610964565b610783565b9050919050565b5f6109988261096d565b9050919050565b5f6109a98261098e565b9050919050565b6109b98161099f565b82525050565b5f6020820190506109d25f8301846109b0565b92915050565b5f6109e28261098e565b9050919050565b6109f2816109d8565b82525050565b5f602082019050610a0b5f8301846109e9565b92915050565b5f80fd5b5f80fd5b5f80fd5b5f8083601f840112610a3257610a31610a11565b5b8235905067ffffffffffffffff811115610a4f57610a4e610a15565b5b602083019150836020820283011115610a6b57610a6a610a19565b5b9250929050565b5f8060208385031215610a8857610a876106e4565b5b5f83013567ffffffffffffffff811115610aa557610aa46106e8565b5b610ab185828601610a1d565b92509250509250929050565b5f81519050919050565b5f82825260208201905092915050565b5f819050602082019050919050565b610aef81610768565b82525050565b5f610b008383610ae6565b60208301905092915050565b5f602082019050919050565b5f610b2282610abd565b610b2c8185610ac7565b9350610b3783610ad7565b805f5b83811015610b67578151610b4e8882610af5565b9750610b5983610b0c565b925050600181019050610b3a565b5085935050505092915050565b5f81519050919050565b5f82825260208201905092915050565b5f819050602082019050919050565b610ba681610783565b82525050565b5f610bb78383610b9d565b60208301905092915050565b5f602082019050919050565b5f610bd982610b74565b610be38185610b7e565b9350610bee83610b8e565b805f5b83811015610c1e578151610c058882610bac565b9750610c1083610bc3565b925050600181019050610bf1565b5085935050505092915050565b5f6040820190508181035f830152610c438185610b18565b90508181036020830152610c578184610bcf565b90509392505050565b5f610c7a610c75610c708461080e565b610964565b6106ec565b9050919050565b610c8a81610c60565b82525050565b5f604082019050610ca35f83018561093c565b610cb06020830184610c81565b9392505050565b610cc08161074a565b8114610cca575f80fd5b50565b5f81519050610cdb81610cb7565b92915050565b610cea81610870565b8114610cf4575f80fd5b50565b5f81519050610d0581610ce1565b92915050565b610d1481610768565b8114610d1e575f80fd5b50565b5f81519050610d2f81610d0b565b92915050565b610d3e816107b1565b8114610d48575f80fd5b50565b5f81519050610d5981610d35565b92915050565b5f805f805f60a08688031215610d7857610d776106e4565b5b5f610d8588828901610ccd565b9550506020610d9688828901610cf7565b9450506040610da788828901610d21565b9350506060610db888828901610d21565b9250506080610dc988828901610d4b565b9150509295509295909350565b5f604082019050610de95f83018561088b565b610df6602083018461093c565b9392505050565b5f81519050610e0b8161081b565b92915050565b5f805f60608486031215610e2857610e276106e4565b5b5f610e3586828701610dfd565b9350506020610e4686828701610dfd565b9250506040610e5786828701610dfd565b9150509250925092565b5f82825260208201905092915050565b5f819050919050565b610e838161074a565b82525050565b5f610e948383610e7a565b60208301905092915050565b5f81359050610eae81610cb7565b92915050565b5f610ec26020840184610ea0565b905092915050565b5f602082019050919050565b5f610ee18385610e61565b9350610eec82610e71565b805f5b85811015610f2457610f018284610eb4565b610f0b8882610e89565b9750610f1683610eca565b925050600181019050610eef565b5085925050509392505050565b5f6040820190508181035f830152610f4a818587610ed6565b9050610f59602083018461093c565b949350505050565b5f601f19601f8301169050919050565b7f4e487b71000000000000000000000000000000000000000000000000000000005f52604160045260245ffd5b610fa782610f61565b810181811067ffffffffffffffff82111715610fc657610fc5610f71565b5b80604052505050565b5f610fd86106db565b9050610fe48282610f9e565b919050565b5f67ffffffffffffffff82111561100357611002610f71565b5b602082029050602081019050919050565b5f61102661102184610fe9565b610fcf565b9050808382526020820190506020840283018581111561104957611048610a19565b5b835b81811015611072578061105e8882610d21565b84526020840193505060208101905061104b565b5050509392505050565b5f82601f8301126110905761108f610a11565b5b81516110a0848260208601611014565b91505092915050565b5f80604083850312156110bf576110be6106e4565b5b5f83015167ffffffffffffffff8111156110dc576110db6106e8565b5b6110e88582860161107c565b925050602083015167ffffffffffffffff811115611109576111086106e8565b5b6111158582860161107c565b9150509250929050565b61112881610922565b82525050565b5f6020820190506111415f83018461111f565b92915050565b61115081610922565b811461115a575f80fd5b50565b5f8151905061116b81611147565b92915050565b5f60208284031215611186576111856106e4565b5b5f6111938482850161115d565b91505092915050565b5f819050919050565b6111b66111b182610922565b61119c565b82525050565b5f6111c782856111a5565b6020820191506111d782846111a5565b602082019150819050939250505056fea26469706673582212204d3eda928c222fe9af2497f110ced58fd3e6650f38ee54135aa35ffb9120a5d464736f6c634300081a003360e060405234801561000f575f80fd5b5060405161146538038061146583398181016040528101906100319190610186565b8273ffffffffffffffffffffffffffffffffffffffff1660a08173ffffffffffffffffffffffffffffffffffffffff16815250508173ffffffffffffffffffffffffffffffffffffffff1660808173ffffffffffffffffffffffffffffffffffffffff16815250508060c081815250505050506101d6565b5f80fd5b5f73ffffffffffffffffffffffffffffffffffffffff82169050919050565b5f6100d6826100ad565b9050919050565b5f6100e7826100cc565b9050919050565b6100f7816100dd565b8114610101575f80fd5b50565b5f81519050610112816100ee565b92915050565b5f610122826100cc565b9050919050565b61013281610118565b811461013c575f80fd5b50565b5f8151905061014d81610129565b92915050565b5f819050919050565b61016581610153565b811461016f575f80fd5b50565b5f815190506101808161015c565b92915050565b5f805f6060848603121561019d5761019c6100a9565b5b5f6101aa86828701610104565b93505060206101bb8682870161013f565b92505060406101cc86828701610172565b9150509250925092565b60805160a05160c05161121f6102465f395f81816101bf015281816102970152818161030f015281816103bc01528181610454015261050101525f8181610330015261049c01525f81816101830152818161025a015281816103800152818161047801526104c3015261121f5ff3fe608060405234801561000f575f80fd5b506004361061007b575f3560e01c80633e0dc34e116100595780633e0dc34e146100f25780634469102b14610110578063481c6a751461012e578063883bdbfd1461014c5761007b565b8063252c09d71461007f57806332148f67146100b25780633850c7bd146100ce575b5f80fd5b61009960048036038101906100949190610721565b61017d565b6040516100a994939291906107cd565b60405180910390f35b6100cc60048036038101906100c79190610847565b610258565b005b6100d6610303565b6040516100e997969594939291906108b7565b60405180910390f35b6100fa610452565b604051610107919061094d565b60405180910390f35b610118610476565b60405161012591906109c1565b60405180910390f35b61013661049a565b60405161014391906109fa565b60405180910390f35b61016660048036038101906101619190610a74565b6104be565b604051610174929190610c2d565b60405180910390f35b5f805f807f000000000000000000000000000000000000000000000000000000000000000073ffffffffffffffffffffffffffffffffffffffff1663a5cf88407f0000000000000000000000000000000000000000000000000000000000000000876040518363ffffffff1660e01b81526004016101fc929190610c92565b60a060405180830381865afa158015610217573d5f803e3d5ffd5b505050506040513d601f19601f8201168201806040525081019061023b9190610d61565b909192509091508093508195508296505050505f91509193509193565b7f000000000000000000000000000000000000000000000000000000000000000073ffffffffffffffffffffffffffffffffffffffff16634f413237827f00000000000000000000000000000000000000000000000000000000000000006040518363ffffffff1660e01b81526004016102d3929190610dd8565b5f604051808303815f87803b1580156102ea575f80fd5b505af11580156102fc573d5f803e3d5ffd5b5050505050565b5f805f805f805f6103737f00000000000000000000000000000000000000000000000000000000000000007f000000000000000000000000000000000000000000000000000000000000000073ffffffffffffffffffffffffffffffffffffffff166105db90919063ffffffff16565b90505080975081985050507f000000000000000000000000000000000000000000000000000000000000000073ffffffffffffffffffffffffffffffffffffffff1663dc86496c7f00000000000000000000000000000000000000000000000000000000000000006040518263ffffffff1660e01b81526004016103f7919061094d565b606060405180830381865afa158015610412573d5f803e3d5ffd5b505050506040513d601f19601f820116820180604052508101906104369190610e13565b8095508196508297505050505f91506001905090919293949596565b7f000000000000000000000000000000000000000000000000000000000000000081565b7f000000000000000000000000000000000000000000000000000000000000000081565b7f000000000000000000000000000000000000000000000000000000000000000081565b6060807f000000000000000000000000000000000000000000000000000000000000000073ffffffffffffffffffffffffffffffffffffffff16630520d44585857f00000000000000000000000000000000000000000000000000000000000000006040518463ffffffff1660e01b815260040161053e93929190610f33565b5f60405180830381865afa158015610558573d5f803e3d5ffd5b505050506040513d5f823e3d601f19601f8201168201806040525081019061058091906110ab565b9050809250508383905067ffffffffffffffff8111156105a3576105a2610f73565b5b6040519080825280602002602001820160405280156105d15781602001602082028036833780820191505090505b5090509250929050565b5f805f805f6105e9866106a9565b90505f8773ffffffffffffffffffffffffffffffffffffffff16631e2eaeaf836040518263ffffffff1660e01b81526004016106259190611130565b602060405180830381865afa158015610640573d5f803e3d5ffd5b505050506040513d601f19601f820116820180604052508101906106649190611173565b905073ffffffffffffffffffffffffffffffffffffffff811695508060a01c60020b945062ffffff8160b81c16935062ffffff8160d01c169250505092959194509250565b5f8160065f1b6040516020016106c09291906111be565b604051602081830303815290604052805190602001209050919050565b5f604051905090565b5f80fd5b5f80fd5b5f819050919050565b610700816106ee565b811461070a575f80fd5b50565b5f8135905061071b816106f7565b92915050565b5f60208284031215610736576107356106e6565b5b5f6107438482850161070d565b91505092915050565b5f63ffffffff82169050919050565b6107648161074c565b82525050565b5f8160060b9050919050565b61077f8161076a565b82525050565b5f73ffffffffffffffffffffffffffffffffffffffff82169050919050565b6107ad81610785565b82525050565b5f8115159050919050565b6107c7816107b3565b82525050565b5f6080820190506107e05f83018761075b565b6107ed6020830186610776565b6107fa60408301856107a4565b61080760608301846107be565b95945050505050565b5f61ffff82169050919050565b61082681610810565b8114610830575f80fd5b50565b5f813590506108418161081d565b92915050565b5f6020828403121561085c5761085b6106e6565b5b5f61086984828501610833565b91505092915050565b5f8160020b9050919050565b61088781610872565b82525050565b61089681610810565b82525050565b5f60ff82169050919050565b6108b18161089c565b82525050565b5f60e0820190506108ca5f83018a6107a4565b6108d7602083018961087e565b6108e4604083018861088d565b6108f1606083018761088d565b6108fe608083018661088d565b61090b60a08301856108a8565b61091860c08301846107be565b98975050505050505050565b5f819050919050565b5f61093782610924565b9050919050565b6109478161092d565b82525050565b5f6020820190506109605f83018461093e565b92915050565b5f819050919050565b5f61098961098461097f84610785565b610966565b610785565b9050919050565b5f61099a8261096f565b9050919050565b5f6109ab82610990565b9050919050565b6109bb816109a1565b82525050565b5f6020820190506109d45f8301846109b2565b92915050565b5f6109e482610990565b9050919050565b6109f4816109da565b82525050565b5f602082019050610a0d5f8301846109eb565b92915050565b5f80fd5b5f80fd5b5f80fd5b5f8083601f840112610a3457610a33610a13565b5b8235905067ffffffffffffffff811115610a5157610a50610a17565b5b602083019150836020820283011115610a6d57610a6c610a1b565b5b9250929050565b5f8060208385031215610a8a57610a896106e6565b5b5f83013567ffffffffffffffff811115610aa757610aa66106ea565b5b610ab385828601610a1f565b92509250509250929050565b5f81519050919050565b5f82825260208201905092915050565b5f819050602082019050919050565b610af18161076a565b82525050565b5f610b028383610ae8565b60208301905092915050565b5f602082019050919050565b5f610b2482610abf565b610b2e8185610ac9565b9350610b3983610ad9565b805f5b83811015610b69578151610b508882610af7565b9750610b5b83610b0e565b925050600181019050610b3c565b5085935050505092915050565b5f81519050919050565b5f82825260208201905092915050565b5f819050602082019050919050565b610ba881610785565b82525050565b5f610bb98383610b9f565b60208301905092915050565b5f602082019050919050565b5f610bdb82610b76565b610be58185610b80565b9350610bf083610b90565b805f5b83811015610c20578151610c078882610bae565b9750610c1283610bc5565b925050600181019050610bf3565b5085935050505092915050565b5f6040820190508181035f830152610c458185610b1a565b90508181036020830152610c598184610bd1565b90509392505050565b5f610c7c610c77610c7284610810565b610966565b6106ee565b9050919050565b610c8c81610c62565b82525050565b5f604082019050610ca55f83018561093e565b610cb26020830184610c83565b9392505050565b610cc28161074c565b8114610ccc575f80fd5b50565b5f81519050610cdd81610cb9565b92915050565b610cec81610872565b8114610cf6575f80fd5b50565b5f81519050610d0781610ce3565b92915050565b610d168161076a565b8114610d20575f80fd5b50565b5f81519050610d3181610d0d565b92915050565b610d40816107b3565b8114610d4a575f80fd5b50565b5f81519050610d5b81610d37565b92915050565b5f805f805f60a08688031215610d7a57610d796106e6565b5b5f610d8788828901610ccf565b9550506020610d9888828901610cf9565b9450506040610da988828901610d23565b9350506060610dba88828901610d23565b9250506080610dcb88828901610d4d565b9150509295509295909350565b5f604082019050610deb5f83018561088d565b610df8602083018461093e565b9392505050565b5f81519050610e0d8161081d565b92915050565b5f805f60608486031215610e2a57610e296106e6565b5b5f610e3786828701610dff565b9350506020610e4886828701610dff565b9250506040610e5986828701610dff565b9150509250925092565b5f82825260208201905092915050565b5f819050919050565b610e858161074c565b82525050565b5f610e968383610e7c565b60208301905092915050565b5f81359050610eb081610cb9565b92915050565b5f610ec46020840184610ea2565b905092915050565b5f602082019050919050565b5f610ee38385610e63565b9350610eee82610e73565b805f5b85811015610f2657610f038284610eb6565b610f0d8882610e8b565b9750610f1883610ecc565b925050600181019050610ef1565b5085925050509392505050565b5f6040820190508181035f830152610f4c818587610ed8565b9050610f5b602083018461093e565b949350505050565b5f601f19601f8301169050919050565b7f4e487b71000000000000000000000000000000000000000000000000000000005f52604160045260245ffd5b610fa982610f63565b810181811067ffffffffffffffff82111715610fc857610fc7610f73565b5b80604052505050565b5f610fda6106dd565b9050610fe68282610fa0565b919050565b5f67ffffffffffffffff82111561100557611004610f73565b5b602082029050602081019050919050565b5f61102861102384610feb565b610fd1565b9050808382526020820190506020840283018581111561104b5761104a610a1b565b5b835b8181101561107457806110608882610d23565b84526020840193505060208101905061104d565b5050509392505050565b5f82601f83011261109257611091610a13565b5b81516110a2848260208601611016565b91505092915050565b5f80604083850312156110c1576110c06106e6565b5b5f83015167ffffffffffffffff8111156110de576110dd6106ea565b5b6110ea8582860161107e565b925050602083015167ffffffffffffffff81111561110b5761110a6106ea565b5b6111178582860161107e565b9150509250929050565b61112a81610924565b82525050565b5f6020820190506111435f830184611121565b92915050565b61115281610924565b811461115c575f80fd5b50565b5f8151905061116d81611149565b92915050565b5f60208284031215611188576111876106e6565b5b5f6111958482850161115f565b91505092915050565b5f819050919050565b6111b86111b382610924565b61119e565b82525050565b5f6111c982856111a7565b6020820191506111d982846111a7565b602082019150819050939250505056fea264697066735822122044f4d6ddeb76a457262a9c96feb421921ef527390c8bb3ab43d2bb60d3285ff364736f6c634300081a0033a264697066735822122079729ecaa127b0ca8928527c95efde7d67d3927d1302319b94b294184342c54364736f6c634300081a0033","linkReferences":{}},"methodIdentifiers":{"MAX_ABS_TICK_DELTA()":"00c84324","afterAddLiquidity(address,(address,address,uint24,int24,address),(int24,int24,int256,bytes32),int256,int256,bytes)":"9f063efc","afterDonate(address,(address,address,uint24,int24,address),uint256,uint256,bytes)":"e1b4af69","afterInitialize(address,(address,address,uint24,int24,address),uint160,int24)":"6fe7e6eb","afterRemoveLiquidity(address,(address,address,uint24,int24,address),(int24,int24,int256,bytes32),int256,int256,bytes)":"6c2bbe7e","afterSwap(address,(address,address,uint24,int24,address),(bool,int256,uint160),int256,bytes)":"b47b2fb1","beforeAddLiquidity(address,(address,address,uint24,int24,address),(int24,int24,int256,bytes32),bytes)":"259982e5","beforeDonate(address,(address,address,uint24,int24,address),uint256,uint256,bytes)":"b6a8b0fa","beforeInitialize(address,(address,address,uint24,int24,address),uint160)":"dc98354e","beforeRemoveLiquidity(address,(address,address,uint24,int24,address),(int24,int24,int256,bytes32),bytes)":"21d0ee70","beforeSwap(address,(address,address,uint24,int24,address),(bool,int256,uint160),bytes)":"575e24b4","getHookPermissions()":"c4e833ce","increaseObservationCardinalityNext(uint16,bytes32)":"4f413237","manager()":"481c6a75","observationsById(bytes32,uint256)":"a5cf8840","observe(uint32[],bytes32)":"0520d445","poolManager()":"dc4c90d3","standardAdapter(bytes32)":"fdee5ead","stateById(bytes32)":"dc86496c","truncatedAdapter(bytes32)":"41cd7797"},"id":69}