{"abi":[{"type":"constructor","inputs":[{"name":"_manager","type":"address","internalType":"contract IPoolManager"},{"name":"_v3StyleOracle","type":"address","internalType":"contract V3StyleOracleHook"},{"name":"_poolId","type":"bytes32","internalType":"PoolId"}],"stateMutability":"nonpayable"},{"type":"function","name":"increaseObservationCardinalityNext","inputs":[{"name":"observationCardinalityNext","type":"uint16","internalType":"uint16"}],"outputs":[],"stateMutability":"nonpayable"},{"type":"function","name":"manager","inputs":[],"outputs":[{"name":"","type":"address","internalType":"contract IPoolManager"}],"stateMutability":"view"},{"type":"function","name":"observations","inputs":[{"name":"index","type":"uint256","internalType":"uint256"}],"outputs":[{"name":"blockTimestamp","type":"uint32","internalType":"uint32"},{"name":"tickCumulativeTruncated","type":"int56","internalType":"int56"},{"name":"secondsPerLiquidityCumulativeX128","type":"uint160","internalType":"uint160"},{"name":"initialized","type":"bool","internalType":"bool"}],"stateMutability":"view"},{"type":"function","name":"observe","inputs":[{"name":"secondsAgos","type":"uint32[]","internalType":"uint32[]"}],"outputs":[{"name":"tickCumulativesTruncated","type":"int56[]","internalType":"int56[]"},{"name":"secondsPerLiquidityCumulativeX128s","type":"uint160[]","internalType":"uint160[]"}],"stateMutability":"view"},{"type":"function","name":"poolId","inputs":[],"outputs":[{"name":"","type":"bytes32","internalType":"PoolId"}],"stateMutability":"view"},{"type":"function","name":"slot0","inputs":[],"outputs":[{"name":"sqrtPriceX96","type":"uint160","internalType":"uint160"},{"name":"tick","type":"int24","internalType":"int24"},{"name":"observationIndex","type":"uint16","internalType":"uint16"},{"name":"observationCardinality","type":"uint16","internalType":"uint16"},{"name":"observationCardinalityNext","type":"uint16","internalType":"uint16"},{"name":"feeProtocol","type":"uint8","internalType":"uint8"},{"name":"unlocked","type":"bool","internalType":"bool"}],"stateMutability":"view"},{"type":"function","name":"v3StyleOracle","inputs":[],"outputs":[{"name":"","type":"address","internalType":"contract V3StyleOracleHook"}],"stateMutability":"view"}],"bytecode":{"object":"0x60e060405234801561000f575f80fd5b5060405161146538038061146583398181016040528101906100319190610186565b8273ffffffffffffffffffffffffffffffffffffffff1660a08173ffffffffffffffffffffffffffffffffffffffff16815250508173ffffffffffffffffffffffffffffffffffffffff1660808173ffffffffffffffffffffffffffffffffffffffff16815250508060c081815250505050506101d6565b5f80fd5b5f73ffffffffffffffffffffffffffffffffffffffff82169050919050565b5f6100d6826100ad565b9050919050565b5f6100e7826100cc565b9050919050565b6100f7816100dd565b8114610101575f80fd5b50565b5f81519050610112816100ee565b92915050565b5f610122826100cc565b9050919050565b61013281610118565b811461013c575f80fd5b50565b5f8151905061014d81610129565b92915050565b5f819050919050565b61016581610153565b811461016f575f80fd5b50565b5f815190506101808161015c565b92915050565b5f805f6060848603121561019d5761019c6100a9565b5b5f6101aa86828701610104565b93505060206101bb8682870161013f565b92505060406101cc86828701610172565b9150509250925092565b60805160a05160c05161121f6102465f395f81816101bf015281816102970152818161030f015281816103bc01528181610454015261050101525f8181610330015261049c01525f81816101830152818161025a015281816103800152818161047801526104c3015261121f5ff3fe608060405234801561000f575f80fd5b506004361061007b575f3560e01c80633e0dc34e116100595780633e0dc34e146100f25780634469102b14610110578063481c6a751461012e578063883bdbfd1461014c5761007b565b8063252c09d71461007f57806332148f67146100b25780633850c7bd146100ce575b5f80fd5b61009960048036038101906100949190610721565b61017d565b6040516100a994939291906107cd565b60405180910390f35b6100cc60048036038101906100c79190610847565b610258565b005b6100d6610303565b6040516100e997969594939291906108b7565b60405180910390f35b6100fa610452565b604051610107919061094d565b60405180910390f35b610118610476565b60405161012591906109c1565b60405180910390f35b61013661049a565b60405161014391906109fa565b60405180910390f35b61016660048036038101906101619190610a74565b6104be565b604051610174929190610c2d565b60405180910390f35b5f805f807f000000000000000000000000000000000000000000000000000000000000000073ffffffffffffffffffffffffffffffffffffffff1663a5cf88407f0000000000000000000000000000000000000000000000000000000000000000876040518363ffffffff1660e01b81526004016101fc929190610c92565b60a060405180830381865afa158015610217573d5f803e3d5ffd5b505050506040513d601f19601f8201168201806040525081019061023b9190610d61565b909192509091508093508195508296505050505f91509193509193565b7f000000000000000000000000000000000000000000000000000000000000000073ffffffffffffffffffffffffffffffffffffffff16634f413237827f00000000000000000000000000000000000000000000000000000000000000006040518363ffffffff1660e01b81526004016102d3929190610dd8565b5f604051808303815f87803b1580156102ea575f80fd5b505af11580156102fc573d5f803e3d5ffd5b5050505050565b5f805f805f805f6103737f00000000000000000000000000000000000000000000000000000000000000007f000000000000000000000000000000000000000000000000000000000000000073ffffffffffffffffffffffffffffffffffffffff166105db90919063ffffffff16565b90505080975081985050507f000000000000000000000000000000000000000000000000000000000000000073ffffffffffffffffffffffffffffffffffffffff1663dc86496c7f00000000000000000000000000000000000000000000000000000000000000006040518263ffffffff1660e01b81526004016103f7919061094d565b606060405180830381865afa158015610412573d5f803e3d5ffd5b505050506040513d601f19601f820116820180604052508101906104369190610e13565b8095508196508297505050505f91506001905090919293949596565b7f000000000000000000000000000000000000000000000000000000000000000081565b7f000000000000000000000000000000000000000000000000000000000000000081565b7f000000000000000000000000000000000000000000000000000000000000000081565b6060807f000000000000000000000000000000000000000000000000000000000000000073ffffffffffffffffffffffffffffffffffffffff16630520d44585857f00000000000000000000000000000000000000000000000000000000000000006040518463ffffffff1660e01b815260040161053e93929190610f33565b5f60405180830381865afa158015610558573d5f803e3d5ffd5b505050506040513d5f823e3d601f19601f8201168201806040525081019061058091906110ab565b9050809250508383905067ffffffffffffffff8111156105a3576105a2610f73565b5b6040519080825280602002602001820160405280156105d15781602001602082028036833780820191505090505b5090509250929050565b5f805f805f6105e9866106a9565b90505f8773ffffffffffffffffffffffffffffffffffffffff16631e2eaeaf836040518263ffffffff1660e01b81526004016106259190611130565b602060405180830381865afa158015610640573d5f803e3d5ffd5b505050506040513d601f19601f820116820180604052508101906106649190611173565b905073ffffffffffffffffffffffffffffffffffffffff811695508060a01c60020b945062ffffff8160b81c16935062ffffff8160d01c169250505092959194509250565b5f8160065f1b6040516020016106c09291906111be565b604051602081830303815290604052805190602001209050919050565b5f604051905090565b5f80fd5b5f80fd5b5f819050919050565b610700816106ee565b811461070a575f80fd5b50565b5f8135905061071b816106f7565b92915050565b5f60208284031215610736576107356106e6565b5b5f6107438482850161070d565b91505092915050565b5f63ffffffff82169050919050565b6107648161074c565b82525050565b5f8160060b9050919050565b61077f8161076a565b82525050565b5f73ffffffffffffffffffffffffffffffffffffffff82169050919050565b6107ad81610785565b82525050565b5f8115159050919050565b6107c7816107b3565b82525050565b5f6080820190506107e05f83018761075b565b6107ed6020830186610776565b6107fa60408301856107a4565b61080760608301846107be565b95945050505050565b5f61ffff82169050919050565b61082681610810565b8114610830575f80fd5b50565b5f813590506108418161081d565b92915050565b5f6020828403121561085c5761085b6106e6565b5b5f61086984828501610833565b91505092915050565b5f8160020b9050919050565b61088781610872565b82525050565b61089681610810565b82525050565b5f60ff82169050919050565b6108b18161089c565b82525050565b5f60e0820190506108ca5f83018a6107a4565b6108d7602083018961087e565b6108e4604083018861088d565b6108f1606083018761088d565b6108fe608083018661088d565b61090b60a08301856108a8565b61091860c08301846107be565b98975050505050505050565b5f819050919050565b5f61093782610924565b9050919050565b6109478161092d565b82525050565b5f6020820190506109605f83018461093e565b92915050565b5f819050919050565b5f61098961098461097f84610785565b610966565b610785565b9050919050565b5f61099a8261096f565b9050919050565b5f6109ab82610990565b9050919050565b6109bb816109a1565b82525050565b5f6020820190506109d45f8301846109b2565b92915050565b5f6109e482610990565b9050919050565b6109f4816109da565b82525050565b5f602082019050610a0d5f8301846109eb565b92915050565b5f80fd5b5f80fd5b5f80fd5b5f8083601f840112610a3457610a33610a13565b5b8235905067ffffffffffffffff811115610a5157610a50610a17565b5b602083019150836020820283011115610a6d57610a6c610a1b565b5b9250929050565b5f8060208385031215610a8a57610a896106e6565b5b5f83013567ffffffffffffffff811115610aa757610aa66106ea565b5b610ab385828601610a1f565b92509250509250929050565b5f81519050919050565b5f82825260208201905092915050565b5f819050602082019050919050565b610af18161076a565b82525050565b5f610b028383610ae8565b60208301905092915050565b5f602082019050919050565b5f610b2482610abf565b610b2e8185610ac9565b9350610b3983610ad9565b805f5b83811015610b69578151610b508882610af7565b9750610b5b83610b0e565b925050600181019050610b3c565b5085935050505092915050565b5f81519050919050565b5f82825260208201905092915050565b5f819050602082019050919050565b610ba881610785565b82525050565b5f610bb98383610b9f565b60208301905092915050565b5f602082019050919050565b5f610bdb82610b76565b610be58185610b80565b9350610bf083610b90565b805f5b83811015610c20578151610c078882610bae565b9750610c1283610bc5565b925050600181019050610bf3565b5085935050505092915050565b5f6040820190508181035f830152610c458185610b1a565b90508181036020830152610c598184610bd1565b90509392505050565b5f610c7c610c77610c7284610810565b610966565b6106ee565b9050919050565b610c8c81610c62565b82525050565b5f604082019050610ca55f83018561093e565b610cb26020830184610c83565b9392505050565b610cc28161074c565b8114610ccc575f80fd5b50565b5f81519050610cdd81610cb9565b92915050565b610cec81610872565b8114610cf6575f80fd5b50565b5f81519050610d0781610ce3565b92915050565b610d168161076a565b8114610d20575f80fd5b50565b5f81519050610d3181610d0d565b92915050565b610d40816107b3565b8114610d4a575f80fd5b50565b5f81519050610d5b81610d37565b92915050565b5f805f805f60a08688031215610d7a57610d796106e6565b5b5f610d8788828901610ccf565b9550506020610d9888828901610cf9565b9450506040610da988828901610d23565b9350506060610dba88828901610d23565b9250506080610dcb88828901610d4d565b9150509295509295909350565b5f604082019050610deb5f83018561088d565b610df8602083018461093e565b9392505050565b5f81519050610e0d8161081d565b92915050565b5f805f60608486031215610e2a57610e296106e6565b5b5f610e3786828701610dff565b9350506020610e4886828701610dff565b9250506040610e5986828701610dff565b9150509250925092565b5f82825260208201905092915050565b5f819050919050565b610e858161074c565b82525050565b5f610e968383610e7c565b60208301905092915050565b5f81359050610eb081610cb9565b92915050565b5f610ec46020840184610ea2565b905092915050565b5f602082019050919050565b5f610ee38385610e63565b9350610eee82610e73565b805f5b85811015610f2657610f038284610eb6565b610f0d8882610e8b565b9750610f1883610ecc565b925050600181019050610ef1565b5085925050509392505050565b5f6040820190508181035f830152610f4c818587610ed8565b9050610f5b602083018461093e565b949350505050565b5f601f19601f8301169050919050565b7f4e487b71000000000000000000000000000000000000000000000000000000005f52604160045260245ffd5b610fa982610f63565b810181811067ffffffffffffffff82111715610fc857610fc7610f73565b5b80604052505050565b5f610fda6106dd565b9050610fe68282610fa0565b919050565b5f67ffffffffffffffff82111561100557611004610f73565b5b602082029050602081019050919050565b5f61102861102384610feb565b610fd1565b9050808382526020820190506020840283018581111561104b5761104a610a1b565b5b835b8181101561107457806110608882610d23565b84526020840193505060208101905061104d565b5050509392505050565b5f82601f83011261109257611091610a13565b5b81516110a2848260208601611016565b91505092915050565b5f80604083850312156110c1576110c06106e6565b5b5f83015167ffffffffffffffff8111156110de576110dd6106ea565b5b6110ea8582860161107e565b925050602083015167ffffffffffffffff81111561110b5761110a6106ea565b5b6111178582860161107e565b9150509250929050565b61112a81610924565b82525050565b5f6020820190506111435f830184611121565b92915050565b61115281610924565b811461115c575f80fd5b50565b5f8151905061116d81611149565b92915050565b5f60208284031215611188576111876106e6565b5b5f6111958482850161115f565b91505092915050565b5f819050919050565b6111b86111b382610924565b61119e565b82525050565b5f6111c982856111a7565b6020820191506111d982846111a7565b602082019150819050939250505056fea264697066735822122044f4d6ddeb76a457262a9c96feb421921ef527390c8bb3ab43d2bb60d3285ff364736f6c634300081a0033","linkReferences":{}},"methodIdentifiers":{"increaseObservationCardinalityNext(uint16)":"32148f67","manager()":"481c6a75","observations(uint256)":"252c09d7","observe(uint32[])":"883bdbfd","poolId()":"3e0dc34e","slot0()":"3850c7bd","v3StyleOracle()":"4469102b"},"id":71}