{"abi":[{"type":"constructor","inputs":[{"name":"_manager","type":"address","internalType":"contract IPoolManager"}],"stateMutability":"nonpayable"},{"type":"function","name":"burnCurrency","inputs":[{"name":"caller","type":"address","internalType":"address"},{"name":"currency","type":"address","internalType":"Currency"},{"name":"amount","type":"uint256","internalType":"uint256"}],"outputs":[],"stateMutability":"nonpayable"},{"type":"function","name":"mintCurrency","inputs":[{"name":"caller","type":"address","internalType":"address"},{"name":"currency","type":"address","internalType":"Currency"},{"name":"amount","type":"uint256","internalType":"uint256"}],"outputs":[],"stateMutability":"nonpayable"},{"type":"function","name":"modifyLiquidity","inputs":[{"name":"caller","type":"address","internalType":"address"},{"name":"key","type":"tuple","internalType":"struct PoolKey","components":[{"name":"currency0","type":"address","internalType":"Currency"},{"name":"currency1","type":"address","internalType":"Currency"},{"name":"fee","type":"uint24","internalType":"uint24"},{"name":"tickSpacing","type":"int24","internalType":"int24"},{"name":"hooks","type":"address","internalType":"contract IHooks"}]},{"name":"tickLower","type":"int24","internalType":"int24"},{"name":"tickUpper","type":"int24","internalType":"int24"},{"name":"liquidity","type":"int256","internalType":"int256"}],"outputs":[{"name":"","type":"int256","internalType":"int256"},{"name":"","type":"int256","internalType":"int256"}],"stateMutability":"nonpayable"},{"type":"function","name":"modifyLiquidityWithSalt","inputs":[{"name":"caller","type":"address","internalType":"address"},{"name":"key","type":"tuple","internalType":"struct PoolKey","components":[{"name":"currency0","type":"address","internalType":"Currency"},{"name":"currency1","type":"address","internalType":"Currency"},{"name":"fee","type":"uint24","internalType":"uint24"},{"name":"tickSpacing","type":"int24","internalType":"int24"},{"name":"hooks","type":"address","internalType":"contract IHooks"}]},{"name":"tickLower","type":"int24","internalType":"int24"},{"name":"tickUpper","type":"int24","internalType":"int24"},{"name":"liquidity","type":"int256","internalType":"int256"},{"name":"salt","type":"bytes32","internalType":"bytes32"}],"outputs":[],"stateMutability":"nonpayable"},{"type":"function","name":"swap","inputs":[{"name":"caller","type":"address","internalType":"address"},{"name":"key","type":"tuple","internalType":"struct PoolKey","components":[{"name":"currency0","type":"address","internalType":"Currency"},{"name":"currency1","type":"address","internalType":"Currency"},{"name":"fee","type":"uint24","internalType":"uint24"},{"name":"tickSpacing","type":"int24","internalType":"int24"},{"name":"hooks","type":"address","internalType":"contract IHooks"}]},{"name":"amountSpecified","type":"int256","internalType":"int256"},{"name":"zeroForOne","type":"bool","internalType":"bool"}],"outputs":[{"name":"","type":"int256","internalType":"int256"},{"name":"","type":"int256","internalType":"int256"}],"stateMutability":"nonpayable"},{"type":"function","name":"swapTo","inputs":[{"name":"caller","type":"address","internalType":"address"},{"name":"key","type":"tuple","internalType":"struct PoolKey","components":[{"name":"currency0","type":"address","internalType":"Currency"},{"name":"currency1","type":"address","internalType":"Currency"},{"name":"fee","type":"uint24","internalType":"uint24"},{"name":"tickSpacing","type":"int24","internalType":"int24"},{"name":"hooks","type":"address","internalType":"contract IHooks"}]},{"name":"sqrtPriceX96","type":"uint160","internalType":"uint160"}],"outputs":[],"stateMutability":"nonpayable"},{"type":"function","name":"unlockCallback","inputs":[{"name":"data","type":"bytes","internalType":"bytes"}],"outputs":[{"name":"","type":"bytes","internalType":"bytes"}],"stateMutability":"nonpayable"}],"bytecode":{"object":"0x60a060405234801561000f575f80fd5b5060405161410f38038061410f833981810160405281019061003191906100da565b8073ffffffffffffffffffffffffffffffffffffffff1660808173ffffffffffffffffffffffffffffffffffffffff168152505050610105565b5f80fd5b5f73ffffffffffffffffffffffffffffffffffffffff82169050919050565b5f6100988261006f565b9050919050565b5f6100a98261008e565b9050919050565b6100b98161009f565b81146100c3575f80fd5b50565b5f815190506100d4816100b0565b92915050565b5f602082840312156100ef576100ee61006b565b5b5f6100fc848285016100c6565b91505092915050565b608051613e7161029e5f395f8181610185015281816101d9015281816102de015281816103b6015281816104470152818161049101528181610538015281816105e201528181610675015281816106bf015281816107660152818161082c015281816108860152818161097501528181610a0901528181610a8d01528181610bd901528181610c6a01528181610ca501528181610d4c01528181610df601528181610e8901528181610ec401528181610f6b0152818161100b0152818161105e01528181611145015281816111cf0152818161125f015281816112b2015281816113a0015281816114760152818161150701528181611551015281816115f8015281816116a2015281816117350152818161177f0152818161182601528181611b1001528181611b6401528181611c6801528181611d9001528181611e2101528181611e5c01528181611f0301528181611fad015281816120400152818161207b01528181612122015281816121e70152818161223a01528181612321015281816123ac015281816123d301526124620152613e715ff3fe608060405234801561000f575f80fd5b506004361061007b575f3560e01c80635c9f919c116100595780635c9f919c146100e857806391dd734614610104578063e6209c2d14610134578063f02645b8146101655761007b565b806349c623eb1461007f5780634e3b3dad146100b05780634fa73919146100cc575b5f80fd5b61009960048036038101906100949190612963565b610181565b6040516100a79291906129eb565b60405180910390f35b6100ca60048036038101906100c59190612a3c565b61082a565b005b6100e660048036038101906100e19190612abf565b611009565b005b61010260048036038101906100fd9190612b42565b61125d565b005b61011e60048036038101906101199190612c2f565b6118c6565b60405161012b9190612cda565b60405180910390f35b61014e60048036038101906101499190612d2f565b611b0c565b60405161015c9291906129eb565b60405180910390f35b61017f600480360381019061017a9190612abf565b6121e5565b005b5f807f000000000000000000000000000000000000000000000000000000000000000073ffffffffffffffffffffffffffffffffffffffff163373ffffffffffffffffffffffffffffffffffffffff16146102db575f7f000000000000000000000000000000000000000000000000000000000000000073ffffffffffffffffffffffffffffffffffffffff166348c894915f338a8a8a8a60405160200161022d959493929190612eb1565b60405160208183030381529060405260405160200161024d929190612f49565b6040516020818303038152906040526040518263ffffffff1660e01b81526004016102789190612cda565b5f604051808303815f875af1158015610293573d5f803e3d5ffd5b505050506040513d5f823e3d601f19601f820116820180604052508101906102bb9190613019565b9050808060200190518101906102d19190613074565b9250925050610820565b5f7f000000000000000000000000000000000000000000000000000000000000000073ffffffffffffffffffffffffffffffffffffffff16635a6bcfda8860405180608001604052808a60020b81526020018960020b81526020018881526020015f801b8152506040518363ffffffff1660e01b815260040161035f929190613146565b60408051808303815f875af115801561037a573d5f803e3d5ffd5b505050506040513d601f19601f8201168201806040525081019061039e91906131ac565b5090505f6103ab826124f0565b600f0b1215610523577f000000000000000000000000000000000000000000000000000000000000000073ffffffffffffffffffffffffffffffffffffffff1663a5841194885f01516040518263ffffffff1660e01b815260040161041091906131f9565b5f604051808303815f87803b158015610427575f80fd5b505af1158015610439573d5f803e3d5ffd5b5050505061048f875f0151897f000000000000000000000000000000000000000000000000000000000000000061046f856124f0565b6104789061324b565b6fffffffffffffffffffffffffffffffff166124fc565b7f000000000000000000000000000000000000000000000000000000000000000073ffffffffffffffffffffffffffffffffffffffff166311da60b46040518163ffffffff1660e01b81526004016020604051808303815f875af11580156104f9573d5f803e3d5ffd5b505050506040513d601f19601f8201168201806040525081019061051d91906132a5565b506105cd565b5f61052d826124f0565b600f0b13156105cc577f000000000000000000000000000000000000000000000000000000000000000073ffffffffffffffffffffffffffffffffffffffff16630b0d9c09885f01518a610580856124f0565b6040518463ffffffff1660e01b815260040161059e9392919061331b565b5f604051808303815f87803b1580156105b5575f80fd5b505af11580156105c7573d5f803e3d5ffd5b505050505b5b5f6105d7826125c3565b600f0b1215610751577f000000000000000000000000000000000000000000000000000000000000000073ffffffffffffffffffffffffffffffffffffffff1663a584119488602001516040518263ffffffff1660e01b815260040161063d91906131f9565b5f604051808303815f87803b158015610654575f80fd5b505af1158015610666573d5f803e3d5ffd5b505050506106bd8760200151897f000000000000000000000000000000000000000000000000000000000000000061069d856125c3565b6106a69061324b565b6fffffffffffffffffffffffffffffffff166124fc565b7f000000000000000000000000000000000000000000000000000000000000000073ffffffffffffffffffffffffffffffffffffffff166311da60b46040518163ffffffff1660e01b81526004016020604051808303815f875af1158015610727573d5f803e3d5ffd5b505050506040513d601f19601f8201168201806040525081019061074b91906132a5565b506107fc565b5f61075b826125c3565b600f0b13156107fb577f000000000000000000000000000000000000000000000000000000000000000073ffffffffffffffffffffffffffffffffffffffff16630b0d9c0988602001518a6107af856125c3565b6040518463ffffffff1660e01b81526004016107cd9392919061331b565b5f604051808303815f87803b1580156107e4575f80fd5b505af11580156107f6573d5f803e3d5ffd5b505050505b5b610805816124f0565b61080e826125c3565b81600f0b915080600f0b905092509250505b9550959350505050565b7f000000000000000000000000000000000000000000000000000000000000000073ffffffffffffffffffffffffffffffffffffffff163373ffffffffffffffffffffffffffffffffffffffff16146109fa575f5b806109f4577f000000000000000000000000000000000000000000000000000000000000000073ffffffffffffffffffffffffffffffffffffffff166348c8949160013386866040516020016108d79392919061335f565b6040516020818303038152906040526040516020016108f79291906133cd565b6040516020818303038152906040526040518263ffffffff1660e01b81526004016109229190612cda565b5f604051808303815f875af115801561093d573d5f803e3d5ffd5b505050506040513d5f823e3d601f19601f820116820180604052508101906109659190613019565b505f6109b8610973856125cf565b7f000000000000000000000000000000000000000000000000000000000000000073ffffffffffffffffffffffffffffffffffffffff166125db90919063ffffffff16565b50505090508073ffffffffffffffffffffffffffffffffffffffff168373ffffffffffffffffffffffffffffffffffffffff161491505061087f565b50611004565b5f610a4c610a07846125cf565b7f000000000000000000000000000000000000000000000000000000000000000073ffffffffffffffffffffffffffffffffffffffff166125db90919063ffffffff16565b50505090508173ffffffffffffffffffffffffffffffffffffffff168173ffffffffffffffffffffffffffffffffffffffff1603610a8a5750611004565b5f7f000000000000000000000000000000000000000000000000000000000000000073ffffffffffffffffffffffffffffffffffffffff1663f3cd914c8560405180606001604052808773ffffffffffffffffffffffffffffffffffffffff168773ffffffffffffffffffffffffffffffffffffffff1611610b0c575f610b0f565b60015b1515815260200160017fffffffffffffffffffffffffffffffff80000000000000000000000000000000610b4391906133fb565b600f0b81526020018773ffffffffffffffffffffffffffffffffffffffff168152506040518363ffffffff1660e01b8152600401610b829291906134c0565b6020604051808303815f875af1158015610b9e573d5f803e3d5ffd5b505050506040513d601f19601f82011682018060405250810190610bc291906134fc565b90505f610bce826124f0565b600f0b1215610d37577f000000000000000000000000000000000000000000000000000000000000000073ffffffffffffffffffffffffffffffffffffffff1663a5841194855f01516040518263ffffffff1660e01b8152600401610c3391906131f9565b5f604051808303815f87803b158015610c4a575f80fd5b505af1158015610c5c573d5f803e3d5ffd5b50505050610ca3845f0151867f0000000000000000000000000000000000000000000000000000000000000000610c92856124f0565b600f0b610c9e90613527565b6124fc565b7f000000000000000000000000000000000000000000000000000000000000000073ffffffffffffffffffffffffffffffffffffffff166311da60b46040518163ffffffff1660e01b81526004016020604051808303815f875af1158015610d0d573d5f803e3d5ffd5b505050506040513d601f19601f82011682018060405250810190610d3191906132a5565b50610de1565b5f610d41826124f0565b600f0b1315610de0577f000000000000000000000000000000000000000000000000000000000000000073ffffffffffffffffffffffffffffffffffffffff16630b0d9c09855f015187610d94856124f0565b6040518463ffffffff1660e01b8152600401610db29392919061331b565b5f604051808303815f87803b158015610dc9575f80fd5b505af1158015610ddb573d5f803e3d5ffd5b505050505b5b5f610deb826125c3565b600f0b1215610f56577f000000000000000000000000000000000000000000000000000000000000000073ffffffffffffffffffffffffffffffffffffffff1663a584119485602001516040518263ffffffff1660e01b8152600401610e5191906131f9565b5f604051808303815f87803b158015610e68575f80fd5b505af1158015610e7a573d5f803e3d5ffd5b50505050610ec28460200151867f0000000000000000000000000000000000000000000000000000000000000000610eb1856125c3565b600f0b610ebd90613527565b6124fc565b7f000000000000000000000000000000000000000000000000000000000000000073ffffffffffffffffffffffffffffffffffffffff166311da60b46040518163ffffffff1660e01b81526004016020604051808303815f875af1158015610f2c573d5f803e3d5ffd5b505050506040513d601f19601f82011682018060405250810190610f5091906132a5565b50611001565b5f610f60826125c3565b600f0b1315611000577f000000000000000000000000000000000000000000000000000000000000000073ffffffffffffffffffffffffffffffffffffffff16630b0d9c09856020015187610fb4856125c3565b6040518463ffffffff1660e01b8152600401610fd29392919061331b565b5f604051808303815f87803b158015610fe9575f80fd5b505af1158015610ffb573d5f803e3d5ffd5b505050505b5b50505b505050565b7f000000000000000000000000000000000000000000000000000000000000000073ffffffffffffffffffffffffffffffffffffffff163373ffffffffffffffffffffffffffffffffffffffff1614611143577f000000000000000000000000000000000000000000000000000000000000000073ffffffffffffffffffffffffffffffffffffffff166348c8949160053385856040516020016110af9392919061357c565b6040516020818303038152906040526040516020016110cf9291906135ea565b6040516020818303038152906040526040518263ffffffff1660e01b81526004016110fa9190612cda565b5f604051808303815f875af1158015611115573d5f803e3d5ffd5b505050506040513d5f823e3d601f19601f8201168201806040525081019061113d9190613019565b50611258565b7f000000000000000000000000000000000000000000000000000000000000000073ffffffffffffffffffffffffffffffffffffffff1663f5298aca8484846040518463ffffffff1660e01b81526004016111a093929190613648565b5f604051808303815f87803b1580156111b7575f80fd5b505af11580156111c9573d5f803e3d5ffd5b505050507f000000000000000000000000000000000000000000000000000000000000000073ffffffffffffffffffffffffffffffffffffffff16630b0d9c098385846040518463ffffffff1660e01b815260040161122a9392919061331b565b5f604051808303815f87803b158015611241575f80fd5b505af1158015611253573d5f803e3d5ffd5b505050505b505050565b7f000000000000000000000000000000000000000000000000000000000000000073ffffffffffffffffffffffffffffffffffffffff163373ffffffffffffffffffffffffffffffffffffffff161461139d577f000000000000000000000000000000000000000000000000000000000000000073ffffffffffffffffffffffffffffffffffffffff166348c8949160033388888888886040516020016113099695949392919061368c565b604051602081830303815290604052604051602001611329929190613727565b6040516020818303038152906040526040518263ffffffff1660e01b81526004016113549190612cda565b5f604051808303815f875af115801561136f573d5f803e3d5ffd5b505050506040513d5f823e3d601f19601f820116820180604052508101906113979190613019565b506118be565b5f7f000000000000000000000000000000000000000000000000000000000000000073ffffffffffffffffffffffffffffffffffffffff16635a6bcfda8760405180608001604052808960020b81526020018860020b8152602001878152602001868152506040518363ffffffff1660e01b815260040161141f929190613146565b60408051808303815f875af115801561143a573d5f803e3d5ffd5b505050506040513d601f19601f8201168201806040525081019061145e91906131ac565b5090505f61146b826124f0565b600f0b12156115e3577f000000000000000000000000000000000000000000000000000000000000000073ffffffffffffffffffffffffffffffffffffffff1663a5841194875f01516040518263ffffffff1660e01b81526004016114d091906131f9565b5f604051808303815f87803b1580156114e7575f80fd5b505af11580156114f9573d5f803e3d5ffd5b5050505061154f865f0151887f000000000000000000000000000000000000000000000000000000000000000061152f856124f0565b6115389061324b565b6fffffffffffffffffffffffffffffffff166124fc565b7f000000000000000000000000000000000000000000000000000000000000000073ffffffffffffffffffffffffffffffffffffffff166311da60b46040518163ffffffff1660e01b81526004016020604051808303815f875af11580156115b9573d5f803e3d5ffd5b505050506040513d601f19601f820116820180604052508101906115dd91906132a5565b5061168d565b5f6115ed826124f0565b600f0b131561168c577f000000000000000000000000000000000000000000000000000000000000000073ffffffffffffffffffffffffffffffffffffffff16630b0d9c09875f015189611640856124f0565b6040518463ffffffff1660e01b815260040161165e9392919061331b565b5f604051808303815f87803b158015611675575f80fd5b505af1158015611687573d5f803e3d5ffd5b505050505b5b5f611697826125c3565b600f0b1215611811577f000000000000000000000000000000000000000000000000000000000000000073ffffffffffffffffffffffffffffffffffffffff1663a584119487602001516040518263ffffffff1660e01b81526004016116fd91906131f9565b5f604051808303815f87803b158015611714575f80fd5b505af1158015611726573d5f803e3d5ffd5b5050505061177d8660200151887f000000000000000000000000000000000000000000000000000000000000000061175d856125c3565b6117669061324b565b6fffffffffffffffffffffffffffffffff166124fc565b7f000000000000000000000000000000000000000000000000000000000000000073ffffffffffffffffffffffffffffffffffffffff166311da60b46040518163ffffffff1660e01b81526004016020604051808303815f875af11580156117e7573d5f803e3d5ffd5b505050506040513d601f19601f8201168201806040525081019061180b91906132a5565b506118bc565b5f61181b826125c3565b600f0b13156118bb577f000000000000000000000000000000000000000000000000000000000000000073ffffffffffffffffffffffffffffffffffffffff16630b0d9c0987602001518961186f856125c3565b6040518463ffffffff1660e01b815260040161188d9392919061331b565b5f604051808303815f87803b1580156118a4575f80fd5b505af11580156118b6573d5f803e3d5ffd5b505050505b5b505b505050505050565b60605f8084848101906118d991906137d1565b915091505f820361194c575f805f805f858060200190518101906118fd919061393f565b945094509450945094505f806119168787878787610181565b91509150818160405160200161192d9291906129eb565b6040516020818303038152906040529950505050505050505050611b06565b60018203611997575f805f8380602001905181019061196b91906139cc565b92509250925061197c83838361082a565b60405180602001604052805f81525095505050505050611b06565b60028203611a02575f805f80848060200190518101906119b79190613a30565b93509350935093505f806119cd86868686611b0c565b9150915081816040516020016119e49291906129eb565b60405160208183030381529060405298505050505050505050611b06565b60038203611a5c575f805f805f8086806020019051810190611a249190613aa9565b955095509550955095509550611a3e86868686868661125d565b60405180602001604052805f81525098505050505050505050611b06565b60048203611aa7575f805f83806020019051810190611a7b9190613b35565b925092509250611a8c8383836121e5565b60405180602001604052805f81525095505050505050611b06565b60058203611af2575f805f83806020019051810190611ac69190613b35565b925092509250611ad7838383611009565b60405180602001604052805f81525095505050505050611b06565b60405180602001604052805f815250925050505b92915050565b5f807f000000000000000000000000000000000000000000000000000000000000000073ffffffffffffffffffffffffffffffffffffffff163373ffffffffffffffffffffffffffffffffffffffff1614611c65575f7f000000000000000000000000000000000000000000000000000000000000000073ffffffffffffffffffffffffffffffffffffffff166348c89491600233898989604051602001611bb79493929190613b94565b604051602081830303815290604052604051602001611bd7929190613c11565b6040516020818303038152906040526040518263ffffffff1660e01b8152600401611c029190612cda565b5f604051808303815f875af1158015611c1d573d5f803e3d5ffd5b505050506040513d5f823e3d601f19601f82011682018060405250810190611c459190613019565b905080806020019051810190611c5b9190613074565b92509250506121dc565b5f7f000000000000000000000000000000000000000000000000000000000000000073ffffffffffffffffffffffffffffffffffffffff1663f3cd914c876040518060600160405280881515815260200189611cc090613527565b815260200188611cf057600173fffd8963efd1fc6a506488495d951d5263988d26611ceb9190613c3f565b611d03565b60016401000276a3611d029190613c86565b5b73ffffffffffffffffffffffffffffffffffffffff168152506040518363ffffffff1660e01b8152600401611d399291906134c0565b6020604051808303815f875af1158015611d55573d5f803e3d5ffd5b505050506040513d601f19601f82011682018060405250810190611d7991906134fc565b90505f611d85826124f0565b600f0b1215611eee577f000000000000000000000000000000000000000000000000000000000000000073ffffffffffffffffffffffffffffffffffffffff1663a5841194875f01516040518263ffffffff1660e01b8152600401611dea91906131f9565b5f604051808303815f87803b158015611e01575f80fd5b505af1158015611e13573d5f803e3d5ffd5b50505050611e5a865f0151887f0000000000000000000000000000000000000000000000000000000000000000611e49856124f0565b600f0b611e5590613527565b6124fc565b7f000000000000000000000000000000000000000000000000000000000000000073ffffffffffffffffffffffffffffffffffffffff166311da60b46040518163ffffffff1660e01b81526004016020604051808303815f875af1158015611ec4573d5f803e3d5ffd5b505050506040513d601f19601f82011682018060405250810190611ee891906132a5565b50611f98565b5f611ef8826124f0565b600f0b1315611f97577f000000000000000000000000000000000000000000000000000000000000000073ffffffffffffffffffffffffffffffffffffffff16630b0d9c09875f015189611f4b856124f0565b6040518463ffffffff1660e01b8152600401611f699392919061331b565b5f604051808303815f87803b158015611f80575f80fd5b505af1158015611f92573d5f803e3d5ffd5b505050505b5b5f611fa2826125c3565b600f0b121561210d577f000000000000000000000000000000000000000000000000000000000000000073ffffffffffffffffffffffffffffffffffffffff1663a584119487602001516040518263ffffffff1660e01b815260040161200891906131f9565b5f604051808303815f87803b15801561201f575f80fd5b505af1158015612031573d5f803e3d5ffd5b505050506120798660200151887f0000000000000000000000000000000000000000000000000000000000000000612068856125c3565b600f0b61207490613527565b6124fc565b7f000000000000000000000000000000000000000000000000000000000000000073ffffffffffffffffffffffffffffffffffffffff166311da60b46040518163ffffffff1660e01b81526004016020604051808303815f875af11580156120e3573d5f803e3d5ffd5b505050506040513d601f19601f8201168201806040525081019061210791906132a5565b506121b8565b5f612117826125c3565b600f0b13156121b7577f000000000000000000000000000000000000000000000000000000000000000073ffffffffffffffffffffffffffffffffffffffff16630b0d9c0987602001518961216b856125c3565b6040518463ffffffff1660e01b81526004016121899392919061331b565b5f604051808303815f87803b1580156121a0575f80fd5b505af11580156121b2573d5f803e3d5ffd5b505050505b5b6121c1816124f0565b6121ca826125c3565b81600f0b915080600f0b905092509250505b94509492505050565b7f000000000000000000000000000000000000000000000000000000000000000073ffffffffffffffffffffffffffffffffffffffff163373ffffffffffffffffffffffffffffffffffffffff161461231f577f000000000000000000000000000000000000000000000000000000000000000073ffffffffffffffffffffffffffffffffffffffff166348c89491600433858560405160200161228b9392919061357c565b6040516020818303038152906040526040516020016122ab929190613d06565b6040516020818303038152906040526040518263ffffffff1660e01b81526004016122d69190612cda565b5f604051808303815f875af11580156122f1573d5f803e3d5ffd5b505050506040513d5f823e3d601f19601f820116820180604052508101906123199190613019565b506124eb565b7f000000000000000000000000000000000000000000000000000000000000000073ffffffffffffffffffffffffffffffffffffffff1663a5841194836040518263ffffffff1660e01b815260040161237891906131f9565b5f604051808303815f87803b15801561238f575f80fd5b505af11580156123a1573d5f803e3d5ffd5b505050506123d182847f0000000000000000000000000000000000000000000000000000000000000000846124fc565b7f000000000000000000000000000000000000000000000000000000000000000073ffffffffffffffffffffffffffffffffffffffff166311da60b46040518163ffffffff1660e01b81526004016020604051808303815f875af115801561243b573d5f803e3d5ffd5b505050506040513d601f19601f8201168201806040525081019061245f91906132a5565b507f000000000000000000000000000000000000000000000000000000000000000073ffffffffffffffffffffffffffffffffffffffff1663156e29f68484846040518463ffffffff1660e01b81526004016124bd93929190613648565b5f604051808303815f87803b1580156124d4575f80fd5b505af11580156124e6573d5f803e3d5ffd5b505050505b505050565b5f8160801d9050919050565b5f6040517f23b872dd00000000000000000000000000000000000000000000000000000000815273ffffffffffffffffffffffffffffffffffffffff8516600482015273ffffffffffffffffffffffffffffffffffffffff8416602482015282604482015260205f6064835f8a5af13d15601f3d1160015f5114161716915050806125bc576040517f08c379a00000000000000000000000000000000000000000000000000000000081526004016125b390613d8e565b60405180910390fd5b5050505050565b5f81600f0b9050919050565b5f60a082209050919050565b5f805f805f6125e9866126a9565b90505f8773ffffffffffffffffffffffffffffffffffffffff16631e2eaeaf836040518263ffffffff1660e01b81526004016126259190613dac565b602060405180830381865afa158015612640573d5f803e3d5ffd5b505050506040513d601f19601f820116820180604052508101906126649190613dc5565b905073ffffffffffffffffffffffffffffffffffffffff811695508060a01c60020b945062ffffff8160b81c16935062ffffff8160d01c169250505092959194509250565b5f8160065f1b6040516020016126c0929190613e10565b604051602081830303815290604052805190602001209050919050565b5f604051905090565b5f80fd5b5f80fd5b5f73ffffffffffffffffffffffffffffffffffffffff82169050919050565b5f612717826126ee565b9050919050565b6127278161270d565b8114612731575f80fd5b50565b5f813590506127428161271e565b92915050565b5f80fd5b5f601f19601f8301169050919050565b7f4e487b71000000000000000000000000000000000000000000000000000000005f52604160045260245ffd5b6127928261274c565b810181811067ffffffffffffffff821117156127b1576127b061275c565b5b80604052505050565b5f6127c36126dd565b90506127cf8282612789565b919050565b6127dd8161270d565b81146127e7575f80fd5b50565b5f813590506127f8816127d4565b92915050565b5f62ffffff82169050919050565b612815816127fe565b811461281f575f80fd5b50565b5f813590506128308161280c565b92915050565b5f8160020b9050919050565b61284b81612836565b8114612855575f80fd5b50565b5f8135905061286681612842565b92915050565b5f6128768261270d565b9050919050565b6128868161286c565b8114612890575f80fd5b50565b5f813590506128a18161287d565b92915050565b5f60a082840312156128bc576128bb612748565b5b6128c660a06127ba565b90505f6128d5848285016127ea565b5f8301525060206128e8848285016127ea565b60208301525060406128fc84828501612822565b604083015250606061291084828501612858565b606083015250608061292484828501612893565b60808301525092915050565b5f819050919050565b61294281612930565b811461294c575f80fd5b50565b5f8135905061295d81612939565b92915050565b5f805f805f610120868803121561297d5761297c6126e6565b5b5f61298a88828901612734565b955050602061299b888289016128a7565b94505060c06129ac88828901612858565b93505060e06129bd88828901612858565b9250506101006129cf8882890161294f565b9150509295509295909350565b6129e581612930565b82525050565b5f6040820190506129fe5f8301856129dc565b612a0b60208301846129dc565b9392505050565b612a1b816126ee565b8114612a25575f80fd5b50565b5f81359050612a3681612a12565b92915050565b5f805f60e08486031215612a5357612a526126e6565b5b5f612a6086828701612734565b9350506020612a71868287016128a7565b92505060c0612a8286828701612a28565b9150509250925092565b5f819050919050565b612a9e81612a8c565b8114612aa8575f80fd5b50565b5f81359050612ab981612a95565b92915050565b5f805f60608486031215612ad657612ad56126e6565b5b5f612ae386828701612734565b9350506020612af4868287016127ea565b9250506040612b0586828701612aab565b9150509250925092565b5f819050919050565b612b2181612b0f565b8114612b2b575f80fd5b50565b5f81359050612b3c81612b18565b92915050565b5f805f805f806101408789031215612b5d57612b5c6126e6565b5b5f612b6a89828a01612734565b9650506020612b7b89828a016128a7565b95505060c0612b8c89828a01612858565b94505060e0612b9d89828a01612858565b935050610100612baf89828a0161294f565b925050610120612bc189828a01612b2e565b9150509295509295509295565b5f80fd5b5f80fd5b5f80fd5b5f8083601f840112612bef57612bee612bce565b5b8235905067ffffffffffffffff811115612c0c57612c0b612bd2565b5b602083019150836001820283011115612c2857612c27612bd6565b5b9250929050565b5f8060208385031215612c4557612c446126e6565b5b5f83013567ffffffffffffffff811115612c6257612c616126ea565b5b612c6e85828601612bda565b92509250509250929050565b5f81519050919050565b5f82825260208201905092915050565b8281835e5f83830152505050565b5f612cac82612c7a565b612cb68185612c84565b9350612cc6818560208601612c94565b612ccf8161274c565b840191505092915050565b5f6020820190508181035f830152612cf28184612ca2565b905092915050565b5f8115159050919050565b612d0e81612cfa565b8114612d18575f80fd5b50565b5f81359050612d2981612d05565b92915050565b5f805f806101008587031215612d4857612d476126e6565b5b5f612d5587828801612734565b9450506020612d66878288016128a7565b93505060c0612d778782880161294f565b92505060e0612d8887828801612d1b565b91505092959194509250565b612d9d8161270d565b82525050565b5f819050919050565b5f612dc6612dc1612dbc846126ee565b612da3565b6126ee565b9050919050565b5f612dd782612dac565b9050919050565b5f612de882612dcd565b9050919050565b612df881612dde565b82525050565b612e07816127fe565b82525050565b612e1681612836565b82525050565b5f612e2682612dcd565b9050919050565b612e3681612e1c565b82525050565b60a082015f820151612e505f850182612def565b506020820151612e636020850182612def565b506040820151612e766040850182612dfe565b506060820151612e896060850182612e0d565b506080820151612e9c6080850182612e2d565b50505050565b612eab81612836565b82525050565b5f61012082019050612ec55f830188612d94565b612ed26020830187612e3c565b612edf60c0830186612ea2565b612eec60e0830185612ea2565b612efa6101008301846129dc565b9695505050505050565b5f819050919050565b5f60ff82169050919050565b5f612f33612f2e612f2984612f04565b612da3565b612f0d565b9050919050565b612f4381612f19565b82525050565b5f604082019050612f5c5f830185612f3a565b8181036020830152612f6e8184612ca2565b90509392505050565b5f80fd5b5f67ffffffffffffffff821115612f9557612f9461275c565b5b612f9e8261274c565b9050602081019050919050565b5f612fbd612fb884612f7b565b6127ba565b905082815260208101848484011115612fd957612fd8612f77565b5b612fe4848285612c94565b509392505050565b5f82601f83011261300057612fff612bce565b5b8151613010848260208601612fab565b91505092915050565b5f6020828403121561302e5761302d6126e6565b5b5f82015167ffffffffffffffff81111561304b5761304a6126ea565b5b61305784828501612fec565b91505092915050565b5f8151905061306e81612939565b92915050565b5f806040838503121561308a576130896126e6565b5b5f61309785828601613060565b92505060206130a885828601613060565b9150509250929050565b6130bb81612930565b82525050565b6130ca81612b0f565b82525050565b608082015f8201516130e45f850182612e0d565b5060208201516130f76020850182612e0d565b50604082015161310a60408501826130b2565b50606082015161311d60608501826130c1565b50505050565b50565b5f6131315f83612c84565b915061313c82613123565b5f82019050919050565b5f6101408201905061315a5f830185612e3c565b61316760a08301846130d0565b81810361012083015261317981613126565b90509392505050565b61318b81612930565b8114613195575f80fd5b50565b5f815190506131a681613182565b92915050565b5f80604083850312156131c2576131c16126e6565b5b5f6131cf85828601613198565b92505060206131e085828601613198565b9150509250929050565b6131f381612dde565b82525050565b5f60208201905061320c5f8301846131ea565b92915050565b5f81600f0b9050919050565b7f4e487b71000000000000000000000000000000000000000000000000000000005f52601160045260245ffd5b5f61325582613212565b91507fffffffffffffffffffffffffffffffff8000000000000000000000000000000082036132875761328661321e565b5b815f039050919050565b5f8151905061329f81612a95565b92915050565b5f602082840312156132ba576132b96126e6565b5b5f6132c784828501613291565b91505092915050565b5f6fffffffffffffffffffffffffffffffff82169050919050565b5f6133056133006132fb846132d0565b612da3565b612a8c565b9050919050565b613315816132eb565b82525050565b5f60608201905061332e5f8301866131ea565b61333b6020830185612d94565b613348604083018461330c565b949350505050565b613359816126ee565b82525050565b5f60e0820190506133725f830186612d94565b61337f6020830185612e3c565b61338c60c0830184613350565b949350505050565b5f819050919050565b5f6133b76133b26133ad84613394565b612da3565b612f0d565b9050919050565b6133c78161339d565b82525050565b5f6040820190506133e05f8301856133be565b81810360208301526133f28184612ca2565b90509392505050565b5f61340582613212565b915061341083613212565b925082820190507fffffffffffffffffffffffffffffffff8000000000000000000000000000000081126f7fffffffffffffffffffffffffffffff8213171561345c5761345b61321e565b5b92915050565b61346b81612cfa565b82525050565b61347a816126ee565b82525050565b606082015f8201516134945f850182613462565b5060208201516134a760208501826130b2565b5060408201516134ba6040850182613471565b50505050565b5f610120820190506134d45f830185612e3c565b6134e160a0830184613480565b8181036101008301526134f381613126565b90509392505050565b5f60208284031215613511576135106126e6565b5b5f61351e84828501613198565b91505092915050565b5f61353182612930565b91507f800000000000000000000000000000000000000000000000000000000000000082036135635761356261321e565b5b815f039050919050565b61357681612a8c565b82525050565b5f60608201905061358f5f830186612d94565b61359c60208301856131ea565b6135a9604083018461356d565b949350505050565b5f819050919050565b5f6135d46135cf6135ca846135b1565b612da3565b612f0d565b9050919050565b6135e4816135ba565b82525050565b5f6040820190506135fd5f8301856135db565b818103602083015261360f8184612ca2565b90509392505050565b5f61363261362d613628846126ee565b612da3565b612a8c565b9050919050565b61364281613618565b82525050565b5f60608201905061365b5f830186612d94565b6136686020830185613639565b613675604083018461356d565b949350505050565b61368681612b0f565b82525050565b5f610140820190506136a05f830189612d94565b6136ad6020830188612e3c565b6136ba60c0830187612ea2565b6136c760e0830186612ea2565b6136d56101008301856129dc565b6136e361012083018461367d565b979650505050505050565b5f819050919050565b5f61371161370c613707846136ee565b612da3565b612f0d565b9050919050565b613721816136f7565b82525050565b5f60408201905061373a5f830185613718565b818103602083015261374c8184612ca2565b90509392505050565b828183375f83830152505050565b5f61377561377084612f7b565b6127ba565b90508281526020810184848401111561379157613790612f77565b5b61379c848285613755565b509392505050565b5f82601f8301126137b8576137b7612bce565b5b81356137c8848260208601613763565b91505092915050565b5f80604083850312156137e7576137e66126e6565b5b5f6137f485828601612aab565b925050602083013567ffffffffffffffff811115613815576138146126ea565b5b613821858286016137a4565b9150509250929050565b5f613835826126ee565b9050919050565b6138458161382b565b811461384f575f80fd5b50565b5f815190506138608161383c565b92915050565b5f81519050613874816127d4565b92915050565b5f815190506138888161280c565b92915050565b5f8151905061389c81612842565b92915050565b5f815190506138b08161287d565b92915050565b5f60a082840312156138cb576138ca612748565b5b6138d560a06127ba565b90505f6138e484828501613866565b5f8301525060206138f784828501613866565b602083015250604061390b8482850161387a565b604083015250606061391f8482850161388e565b6060830152506080613933848285016138a2565b60808301525092915050565b5f805f805f6101208688031215613959576139586126e6565b5b5f61396688828901613852565b9550506020613977888289016138b6565b94505060c06139888882890161388e565b93505060e06139998882890161388e565b9250506101006139ab88828901613060565b9150509295509295909350565b5f815190506139c681612a12565b92915050565b5f805f60e084860312156139e3576139e26126e6565b5b5f6139f086828701613852565b9350506020613a01868287016138b6565b92505060c0613a12868287016139b8565b9150509250925092565b5f81519050613a2a81612d05565b92915050565b5f805f806101008587031215613a4957613a486126e6565b5b5f613a5687828801613852565b9450506020613a67878288016138b6565b93505060c0613a7887828801613060565b92505060e0613a8987828801613a1c565b91505092959194509250565b5f81519050613aa381612b18565b92915050565b5f805f805f806101408789031215613ac457613ac36126e6565b5b5f613ad189828a01613852565b9650506020613ae289828a016138b6565b95505060c0613af389828a0161388e565b94505060e0613b0489828a0161388e565b935050610100613b1689828a01613060565b925050610120613b2889828a01613a95565b9150509295509295509295565b5f805f60608486031215613b4c57613b4b6126e6565b5b5f613b5986828701613852565b9350506020613b6a86828701613866565b9250506040613b7b86828701613291565b9150509250925092565b613b8e81612cfa565b82525050565b5f61010082019050613ba85f830187612d94565b613bb56020830186612e3c565b613bc260c08301856129dc565b613bcf60e0830184613b85565b95945050505050565b5f819050919050565b5f613bfb613bf6613bf184613bd8565b612da3565b612f0d565b9050919050565b613c0b81613be1565b82525050565b5f604082019050613c245f830185613c02565b8181036020830152613c368184612ca2565b90509392505050565b5f613c49826126ee565b9150613c54836126ee565b9250828203905073ffffffffffffffffffffffffffffffffffffffff811115613c8057613c7f61321e565b5b92915050565b5f613c90826126ee565b9150613c9b836126ee565b9250828201905073ffffffffffffffffffffffffffffffffffffffff811115613cc757613cc661321e565b5b92915050565b5f819050919050565b5f613cf0613ceb613ce684613ccd565b612da3565b612f0d565b9050919050565b613d0081613cd6565b82525050565b5f604082019050613d195f830185613cf7565b8181036020830152613d2b8184612ca2565b90509392505050565b5f82825260208201905092915050565b7f5452414e534645525f46524f4d5f4641494c45440000000000000000000000005f82015250565b5f613d78601483613d34565b9150613d8382613d44565b602082019050919050565b5f6020820190508181035f830152613da581613d6c565b9050919050565b5f602082019050613dbf5f83018461367d565b92915050565b5f60208284031215613dda57613dd96126e6565b5b5f613de784828501613a95565b91505092915050565b5f819050919050565b613e0a613e0582612b0f565b613df0565b82525050565b5f613e1b8285613df9565b602082019150613e2b8284613df9565b602082019150819050939250505056fea2646970667358221220ebbd838ea72722263e3e2b8a9ce2cd93358a71b61bf2d101816346ab755ab62364736f6c634300081a0033","linkReferences":{}},"methodIdentifiers":{"burnCurrency(address,address,uint256)":"4fa73919","mintCurrency(address,address,uint256)":"f02645b8","modifyLiquidity(address,(address,address,uint24,int24,address),int24,int24,int256)":"49c623eb","modifyLiquidityWithSalt(address,(address,address,uint24,int24,address),int24,int24,int256,bytes32)":"5c9f919c","swap(address,(address,address,uint24,int24,address),int256,bool)":"e6209c2d","swapTo(address,(address,address,uint24,int24,address),uint160)":"4e3b3dad","unlockCallback(bytes)":"91dd7346"},"id":75}