{"abi":[{"type":"constructor","inputs":[{"name":"_name","type":"string","internalType":"string"},{"name":"_symbol","type":"string","internalType":"string"},{"name":"_decimals","type":"uint8","internalType":"uint8"}],"stateMutability":"nonpayable"},{"type":"function","name":"allowance","inputs":[{"name":"","type":"address","internalType":"address"},{"name":"","type":"address","internalType":"address"}],"outputs":[{"name":"","type":"uint256","internalType":"uint256"}],"stateMutability":"view"},{"type":"function","name":"approve","inputs":[{"name":"spender","type":"address","internalType":"address"},{"name":"amount","type":"uint256","internalType":"uint256"}],"outputs":[{"name":"","type":"bool","internalType":"bool"}],"stateMutability":"nonpayable"},{"type":"function","name":"balanceOf","inputs":[{"name":"","type":"address","internalType":"address"}],"outputs":[{"name":"","type":"uint256","internalType":"uint256"}],"stateMutability":"view"},{"type":"function","name":"decimals","inputs":[],"outputs":[{"name":"","type":"uint8","internalType":"uint8"}],"stateMutability":"view"},{"type":"function","name":"editSupply","inputs":[{"name":"newSupply","type":"uint256","internalType":"uint256"}],"outputs":[],"stateMutability":"nonpayable"},{"type":"function","name":"mint","inputs":[{"name":"to","type":"address","internalType":"address"},{"name":"amount","type":"uint256","internalType":"uint256"}],"outputs":[],"stateMutability":"nonpayable"},{"type":"function","name":"name","inputs":[],"outputs":[{"name":"","type":"string","internalType":"string"}],"stateMutability":"view"},{"type":"function","name":"symbol","inputs":[],"outputs":[{"name":"","type":"string","internalType":"string"}],"stateMutability":"view"},{"type":"function","name":"totalSupply","inputs":[],"outputs":[{"name":"","type":"uint256","internalType":"uint256"}],"stateMutability":"view"},{"type":"function","name":"transfer","inputs":[{"name":"to","type":"address","internalType":"address"},{"name":"amount","type":"uint256","internalType":"uint256"}],"outputs":[{"name":"","type":"bool","internalType":"bool"}],"stateMutability":"nonpayable"},{"type":"function","name":"transferFrom","inputs":[{"name":"from","type":"address","internalType":"address"},{"name":"to","type":"address","internalType":"address"},{"name":"amount","type":"uint256","internalType":"uint256"}],"outputs":[{"name":"","type":"bool","internalType":"bool"}],"stateMutability":"nonpayable"},{"type":"event","name":"Approval","inputs":[{"name":"owner","type":"address","indexed":true,"internalType":"address"},{"name":"spender","type":"address","indexed":true,"internalType":"address"},{"name":"amount","type":"uint256","indexed":false,"internalType":"uint256"}],"anonymous":false},{"type":"event","name":"Transfer","inputs":[{"name":"from","type":"address","indexed":true,"internalType":"address"},{"name":"to","type":"address","indexed":true,"internalType":"address"},{"name":"amount","type":"uint256","indexed":false,"internalType":"uint256"}],"anonymous":false}],"bytecode":{"object":"0x60a060405234801561000f575f80fd5b50604051611236380380611236833981810160405281019061003191906101e9565b825f908161003f919061047e565b50816001908161004f919061047e565b508060ff1660808160ff168152505050505061054d565b5f604051905090565b5f80fd5b5f80fd5b5f80fd5b5f80fd5b5f601f19601f8301169050919050565b7f4e487b71000000000000000000000000000000000000000000000000000000005f52604160045260245ffd5b6100c58261007f565b810181811067ffffffffffffffff821117156100e4576100e361008f565b5b80604052505050565b5f6100f6610066565b905061010282826100bc565b919050565b5f67ffffffffffffffff8211156101215761012061008f565b5b61012a8261007f565b9050602081019050919050565b8281835e5f83830152505050565b5f61015761015284610107565b6100ed565b9050828152602081018484840111156101735761017261007b565b5b61017e848285610137565b509392505050565b5f82601f83011261019a57610199610077565b5b81516101aa848260208601610145565b91505092915050565b5f60ff82169050919050565b6101c8816101b3565b81146101d2575f80fd5b50565b5f815190506101e3816101bf565b92915050565b5f805f60608486031215610200576101ff61006f565b5b5f84015167ffffffffffffffff81111561021d5761021c610073565b5b61022986828701610186565b935050602084015167ffffffffffffffff81111561024a57610249610073565b5b61025686828701610186565b9250506040610267868287016101d5565b9150509250925092565b5f81519050919050565b7f4e487b71000000000000000000000000000000000000000000000000000000005f52602260045260245ffd5b5f60028204905060018216806102bf57607f821691505b6020821081036102d2576102d161027b565b5b50919050565b5f819050815f5260205f209050919050565b5f6020601f8301049050919050565b5f82821b905092915050565b5f600883026103347fffffffffffffffffffffffffffffffffffffffffffffffffffffffffffffffff826102f9565b61033e86836102f9565b95508019841693508086168417925050509392505050565b5f819050919050565b5f819050919050565b5f61038261037d61037884610356565b61035f565b610356565b9050919050565b5f819050919050565b61039b83610368565b6103af6103a782610389565b848454610305565b825550505050565b5f90565b6103c36103b7565b6103ce818484610392565b505050565b5b818110156103f1576103e65f826103bb565b6001810190506103d4565b5050565b601f82111561043657610407816102d8565b610410846102ea565b8101602085101561041f578190505b61043361042b856102ea565b8301826103d3565b50505b505050565b5f82821c905092915050565b5f6104565f198460080261043b565b1980831691505092915050565b5f61046e8383610447565b9150826002028217905092915050565b61048782610271565b67ffffffffffffffff8111156104a05761049f61008f565b5b6104aa82546102a8565b6104b58282856103f5565b5f60209050601f8311600181146104e6575f84156104d4578287015190505b6104de8582610463565b865550610545565b601f1984166104f4866102d8565b5f5b8281101561051b578489015182556001820191506020850194506020810190506104f6565b868310156105385784890151610534601f891682610447565b8355505b6001600288020188555050505b505050505050565b608051610cd16105655f395f6106060152610cd15ff3fe608060405234801561000f575f80fd5b50600436106100a7575f3560e01c806340c10f191161006f57806340c10f191461016557806345a915de1461018157806370a082311461019d57806395d89b41146101cd578063a9059cbb146101eb578063dd62ed3e1461021b576100a7565b806306fdde03146100ab578063095ea7b3146100c957806318160ddd146100f957806323b872dd14610117578063313ce56714610147575b5f80fd5b6100b361024b565b6040516100c09190610949565b60405180910390f35b6100e360048036038101906100de91906109fa565b6102d6565b6040516100f09190610a52565b60405180910390f35b6101016103c3565b60405161010e9190610a7a565b60405180910390f35b610131600480360381019061012c9190610a93565b6103c9565b60405161013e9190610a52565b60405180910390f35b61014f610604565b60405161015c9190610afe565b60405180910390f35b61017f600480360381019061017a91906109fa565b610628565b005b61019b60048036038101906101969190610b17565b610636565b005b6101b760048036038101906101b29190610b42565b610640565b6040516101c49190610a7a565b60405180910390f35b6101d5610655565b6040516101e29190610949565b60405180910390f35b610205600480360381019061020091906109fa565b6106e1565b6040516102129190610a52565b60405180910390f35b61023560048036038101906102309190610b6d565b6107ee565b6040516102429190610a7a565b60405180910390f35b5f805461025790610bd8565b80601f016020809104026020016040519081016040528092919081815260200182805461028390610bd8565b80156102ce5780601f106102a5576101008083540402835291602001916102ce565b820191905f5260205f20905b8154815290600101906020018083116102b157829003601f168201915b505050505081565b5f8160055f3373ffffffffffffffffffffffffffffffffffffffff1673ffffffffffffffffffffffffffffffffffffffff1681526020019081526020015f205f8573ffffffffffffffffffffffffffffffffffffffff1673ffffffffffffffffffffffffffffffffffffffff1681526020019081526020015f20819055508273ffffffffffffffffffffffffffffffffffffffff163373ffffffffffffffffffffffffffffffffffffffff167f8c5be1e5ebec7d5bd14f71427d1e84f3dd0314c0f7b2291e5b200ac8c7c3b925846040516103b19190610a7a565b60405180910390a36001905092915050565b60025481565b5f8060055f8673ffffffffffffffffffffffffffffffffffffffff1673ffffffffffffffffffffffffffffffffffffffff1681526020019081526020015f205f3373ffffffffffffffffffffffffffffffffffffffff1673ffffffffffffffffffffffffffffffffffffffff1681526020019081526020015f205490507fffffffffffffffffffffffffffffffffffffffffffffffffffffffffffffffff81146104f65782816104799190610c35565b60055f8773ffffffffffffffffffffffffffffffffffffffff1673ffffffffffffffffffffffffffffffffffffffff1681526020019081526020015f205f3373ffffffffffffffffffffffffffffffffffffffff1673ffffffffffffffffffffffffffffffffffffffff1681526020019081526020015f20819055505b8260045f8773ffffffffffffffffffffffffffffffffffffffff1673ffffffffffffffffffffffffffffffffffffffff1681526020019081526020015f205f8282546105429190610c35565b925050819055508260045f8673ffffffffffffffffffffffffffffffffffffffff1673ffffffffffffffffffffffffffffffffffffffff1681526020019081526020015f205f82825401925050819055508373ffffffffffffffffffffffffffffffffffffffff168573ffffffffffffffffffffffffffffffffffffffff167fddf252ad1be2c89b69c2b068fc378daa952ba7f163c4a11628f55a4df523b3ef856040516105f09190610a7a565b60405180910390a360019150509392505050565b7f000000000000000000000000000000000000000000000000000000000000000081565b610632828261080e565b5050565b8060028190555050565b6004602052805f5260405f205f915090505481565b6001805461066290610bd8565b80601f016020809104026020016040519081016040528092919081815260200182805461068e90610bd8565b80156106d95780601f106106b0576101008083540402835291602001916106d9565b820191905f5260205f20905b8154815290600101906020018083116106bc57829003601f168201915b505050505081565b5f8160045f3373ffffffffffffffffffffffffffffffffffffffff1673ffffffffffffffffffffffffffffffffffffffff1681526020019081526020015f205f82825461072e9190610c35565b925050819055508160045f8573ffffffffffffffffffffffffffffffffffffffff1673ffffffffffffffffffffffffffffffffffffffff1681526020019081526020015f205f82825401925050819055508273ffffffffffffffffffffffffffffffffffffffff163373ffffffffffffffffffffffffffffffffffffffff167fddf252ad1be2c89b69c2b068fc378daa952ba7f163c4a11628f55a4df523b3ef846040516107dc9190610a7a565b60405180910390a36001905092915050565b6005602052815f5260405f20602052805f5260405f205f91509150505481565b8060035f82825461081f9190610c68565b925050819055508060045f8473ffffffffffffffffffffffffffffffffffffffff1673ffffffffffffffffffffffffffffffffffffffff1681526020019081526020015f205f82825401925050819055508173ffffffffffffffffffffffffffffffffffffffff165f73ffffffffffffffffffffffffffffffffffffffff167fddf252ad1be2c89b69c2b068fc378daa952ba7f163c4a11628f55a4df523b3ef836040516108cd9190610a7a565b60405180910390a35050565b5f81519050919050565b5f82825260208201905092915050565b8281835e5f83830152505050565b5f601f19601f8301169050919050565b5f61091b826108d9565b61092581856108e3565b93506109358185602086016108f3565b61093e81610901565b840191505092915050565b5f6020820190508181035f8301526109618184610911565b905092915050565b5f80fd5b5f73ffffffffffffffffffffffffffffffffffffffff82169050919050565b5f6109968261096d565b9050919050565b6109a68161098c565b81146109b0575f80fd5b50565b5f813590506109c18161099d565b92915050565b5f819050919050565b6109d9816109c7565b81146109e3575f80fd5b50565b5f813590506109f4816109d0565b92915050565b5f8060408385031215610a1057610a0f610969565b5b5f610a1d858286016109b3565b9250506020610a2e858286016109e6565b9150509250929050565b5f8115159050919050565b610a4c81610a38565b82525050565b5f602082019050610a655f830184610a43565b92915050565b610a74816109c7565b82525050565b5f602082019050610a8d5f830184610a6b565b92915050565b5f805f60608486031215610aaa57610aa9610969565b5b5f610ab7868287016109b3565b9350506020610ac8868287016109b3565b9250506040610ad9868287016109e6565b9150509250925092565b5f60ff82169050919050565b610af881610ae3565b82525050565b5f602082019050610b115f830184610aef565b92915050565b5f60208284031215610b2c57610b2b610969565b5b5f610b39848285016109e6565b91505092915050565b5f60208284031215610b5757610b56610969565b5b5f610b64848285016109b3565b91505092915050565b5f8060408385031215610b8357610b82610969565b5b5f610b90858286016109b3565b9250506020610ba1858286016109b3565b9150509250929050565b7f4e487b71000000000000000000000000000000000000000000000000000000005f52602260045260245ffd5b5f6002820490506001821680610bef57607f821691505b602082108103610c0257610c01610bab565b5b50919050565b7f4e487b71000000000000000000000000000000000000000000000000000000005f52601160045260245ffd5b5f610c3f826109c7565b9150610c4a836109c7565b9250828203905081811115610c6257610c61610c08565b5b92915050565b5f610c72826109c7565b9150610c7d836109c7565b9250828201905080821115610c9557610c94610c08565b5b9291505056fea26469706673582212207be43685a8a4e5ad4a64d12ffc00c30a2965003e56cb8161c601265aaec4c14164736f6c634300081a0033","linkReferences":{}},"methodIdentifiers":{"allowance(address,address)":"dd62ed3e","approve(address,uint256)":"095ea7b3","balanceOf(address)":"70a08231","decimals()":"313ce567","editSupply(uint256)":"45a915de","mint(address,uint256)":"40c10f19","name()":"06fdde03","symbol()":"95d89b41","totalSupply()":"18160ddd","transfer(address,uint256)":"a9059cbb","transferFrom(address,address,uint256)":"23b872dd"},"id":74}