{"abi":[{"type":"constructor","inputs":[{"name":"initialOwner","type":"address","internalType":"address"}],"stateMutability":"nonpayable"},{"type":"function","name":"allowance","inputs":[{"name":"owner","type":"address","internalType":"address"},{"name":"spender","type":"address","internalType":"address"},{"name":"id","type":"uint256","internalType":"uint256"}],"outputs":[{"name":"amount","type":"uint256","internalType":"uint256"}],"stateMutability":"view"},{"type":"function","name":"approve","inputs":[{"name":"spender","type":"address","internalType":"address"},{"name":"id","type":"uint256","internalType":"uint256"},{"name":"amount","type":"uint256","internalType":"uint256"}],"outputs":[{"name":"","type":"bool","internalType":"bool"}],"stateMutability":"nonpayable"},{"type":"function","name":"balanceOf","inputs":[{"name":"owner","type":"address","internalType":"address"},{"name":"id","type":"uint256","internalType":"uint256"}],"outputs":[{"name":"balance","type":"uint256","internalType":"uint256"}],"stateMutability":"view"},{"type":"function","name":"burn","inputs":[{"name":"from","type":"address","internalType":"address"},{"name":"id","type":"uint256","internalType":"uint256"},{"name":"amount","type":"uint256","internalType":"uint256"}],"outputs":[],"stateMutability":"nonpayable"},{"type":"function","name":"clear","inputs":[{"name":"currency","type":"address","internalType":"Currency"},{"name":"amount","type":"uint256","internalType":"uint256"}],"outputs":[],"stateMutability":"nonpayable"},{"type":"function","name":"collectProtocolFees","inputs":[{"name":"recipient","type":"address","internalType":"address"},{"name":"currency","type":"address","internalType":"Currency"},{"name":"amount","type":"uint256","internalType":"uint256"}],"outputs":[{"name":"amountCollected","type":"uint256","internalType":"uint256"}],"stateMutability":"nonpayable"},{"type":"function","name":"donate","inputs":[{"name":"key","type":"tuple","internalType":"struct PoolKey","components":[{"name":"currency0","type":"address","internalType":"Currency"},{"name":"currency1","type":"address","internalType":"Currency"},{"name":"fee","type":"uint24","internalType":"uint24"},{"name":"tickSpacing","type":"int24","internalType":"int24"},{"name":"hooks","type":"address","internalType":"contract IHooks"}]},{"name":"amount0","type":"uint256","internalType":"uint256"},{"name":"amount1","type":"uint256","internalType":"uint256"},{"name":"hookData","type":"bytes","internalType":"bytes"}],"outputs":[{"name":"delta","type":"int256","internalType":"BalanceDelta"}],"stateMutability":"nonpayable"},{"type":"function","name":"extsload","inputs":[{"name":"slot","type":"bytes32","internalType":"bytes32"}],"outputs":[{"name":"","type":"bytes32","internalType":"bytes32"}],"stateMutability":"view"},{"type":"function","name":"extsload","inputs":[{"name":"startSlot","type":"bytes32","internalType":"bytes32"},{"name":"nSlots","type":"uint256","internalType":"uint256"}],"outputs":[{"name":"","type":"bytes32[]","internalType":"bytes32[]"}],"stateMutability":"view"},{"type":"function","name":"extsload","inputs":[{"name":"slots","type":"bytes32[]","internalType":"bytes32[]"}],"outputs":[{"name":"","type":"bytes32[]","internalType":"bytes32[]"}],"stateMutability":"view"},{"type":"function","name":"exttload","inputs":[{"name":"slots","type":"bytes32[]","internalType":"bytes32[]"}],"outputs":[{"name":"","type":"bytes32[]","internalType":"bytes32[]"}],"stateMutability":"view"},{"type":"function","name":"exttload","inputs":[{"name":"slot","type":"bytes32","internalType":"bytes32"}],"outputs":[{"name":"","type":"bytes32","internalType":"bytes32"}],"stateMutability":"view"},{"type":"function","name":"initialize","inputs":[{"name":"key","type":"tuple","internalType":"struct PoolKey","components":[{"name":"currency0","type":"address","internalType":"Currency"},{"name":"currency1","type":"address","internalType":"Currency"},{"name":"fee","type":"uint24","internalType":"uint24"},{"name":"tickSpacing","type":"int24","internalType":"int24"},{"name":"hooks","type":"address","internalType":"contract IHooks"}]},{"name":"sqrtPriceX96","type":"uint160","internalType":"uint160"}],"outputs":[{"name":"tick","type":"int24","internalType":"int24"}],"stateMutability":"nonpayable"},{"type":"function","name":"isOperator","inputs":[{"name":"owner","type":"address","internalType":"address"},{"name":"operator","type":"address","internalType":"address"}],"outputs":[{"name":"isOperator","type":"bool","internalType":"bool"}],"stateMutability":"view"},{"type":"function","name":"mint","inputs":[{"name":"to","type":"address","internalType":"address"},{"name":"id","type":"uint256","internalType":"uint256"},{"name":"amount","type":"uint256","internalType":"uint256"}],"outputs":[],"stateMutability":"nonpayable"},{"type":"function","name":"modifyLiquidity","inputs":[{"name":"key","type":"tuple","internalType":"struct PoolKey","components":[{"name":"currency0","type":"address","internalType":"Currency"},{"name":"currency1","type":"address","internalType":"Currency"},{"name":"fee","type":"uint24","internalType":"uint24"},{"name":"tickSpacing","type":"int24","internalType":"int24"},{"name":"hooks","type":"address","internalType":"contract IHooks"}]},{"name":"params","type":"tuple","internalType":"struct IPoolManager.ModifyLiquidityParams","components":[{"name":"tickLower","type":"int24","internalType":"int24"},{"name":"tickUpper","type":"int24","internalType":"int24"},{"name":"liquidityDelta","type":"int256","internalType":"int256"},{"name":"salt","type":"bytes32","internalType":"bytes32"}]},{"name":"hookData","type":"bytes","internalType":"bytes"}],"outputs":[{"name":"callerDelta","type":"int256","internalType":"BalanceDelta"},{"name":"feesAccrued","type":"int256","internalType":"BalanceDelta"}],"stateMutability":"nonpayable"},{"type":"function","name":"owner","inputs":[],"outputs":[{"name":"","type":"address","internalType":"address"}],"stateMutability":"view"},{"type":"function","name":"protocolFeeController","inputs":[],"outputs":[{"name":"","type":"address","internalType":"address"}],"stateMutability":"view"},{"type":"function","name":"protocolFeesAccrued","inputs":[{"name":"currency","type":"address","internalType":"Currency"}],"outputs":[{"name":"amount","type":"uint256","internalType":"uint256"}],"stateMutability":"view"},{"type":"function","name":"setOperator","inputs":[{"name":"operator","type":"address","internalType":"address"},{"name":"approved","type":"bool","internalType":"bool"}],"outputs":[{"name":"","type":"bool","internalType":"bool"}],"stateMutability":"nonpayable"},{"type":"function","name":"setProtocolFee","inputs":[{"name":"key","type":"tuple","internalType":"struct PoolKey","components":[{"name":"currency0","type":"address","internalType":"Currency"},{"name":"currency1","type":"address","internalType":"Currency"},{"name":"fee","type":"uint24","internalType":"uint24"},{"name":"tickSpacing","type":"int24","internalType":"int24"},{"name":"hooks","type":"address","internalType":"contract IHooks"}]},{"name":"newProtocolFee","type":"uint24","internalType":"uint24"}],"outputs":[],"stateMutability":"nonpayable"},{"type":"function","name":"setProtocolFeeController","inputs":[{"name":"controller","type":"address","internalType":"address"}],"outputs":[],"stateMutability":"nonpayable"},{"type":"function","name":"settle","inputs":[],"outputs":[{"name":"","type":"uint256","internalType":"uint256"}],"stateMutability":"payable"},{"type":"function","name":"settleFor","inputs":[{"name":"recipient","type":"address","internalType":"address"}],"outputs":[{"name":"","type":"uint256","internalType":"uint256"}],"stateMutability":"payable"},{"type":"function","name":"supportsInterface","inputs":[{"name":"interfaceId","type":"bytes4","internalType":"bytes4"}],"outputs":[{"name":"","type":"bool","internalType":"bool"}],"stateMutability":"view"},{"type":"function","name":"swap","inputs":[{"name":"key","type":"tuple","internalType":"struct PoolKey","components":[{"name":"currency0","type":"address","internalType":"Currency"},{"name":"currency1","type":"address","internalType":"Currency"},{"name":"fee","type":"uint24","internalType":"uint24"},{"name":"tickSpacing","type":"int24","internalType":"int24"},{"name":"hooks","type":"address","internalType":"contract IHooks"}]},{"name":"params","type":"tuple","internalType":"struct IPoolManager.SwapParams","components":[{"name":"zeroForOne","type":"bool","internalType":"bool"},{"name":"amountSpecified","type":"int256","internalType":"int256"},{"name":"sqrtPriceLimitX96","type":"uint160","internalType":"uint160"}]},{"name":"hookData","type":"bytes","internalType":"bytes"}],"outputs":[{"name":"swapDelta","type":"int256","internalType":"BalanceDelta"}],"stateMutability":"nonpayable"},{"type":"function","name":"sync","inputs":[{"name":"currency","type":"address","internalType":"Currency"}],"outputs":[],"stateMutability":"nonpayable"},{"type":"function","name":"take","inputs":[{"name":"currency","type":"address","internalType":"Currency"},{"name":"to","type":"address","internalType":"address"},{"name":"amount","type":"uint256","internalType":"uint256"}],"outputs":[],"stateMutability":"nonpayable"},{"type":"function","name":"transfer","inputs":[{"name":"receiver","type":"address","internalType":"address"},{"name":"id","type":"uint256","internalType":"uint256"},{"name":"amount","type":"uint256","internalType":"uint256"}],"outputs":[{"name":"","type":"bool","internalType":"bool"}],"stateMutability":"nonpayable"},{"type":"function","name":"transferFrom","inputs":[{"name":"sender","type":"address","internalType":"address"},{"name":"receiver","type":"address","internalType":"address"},{"name":"id","type":"uint256","internalType":"uint256"},{"name":"amount","type":"uint256","internalType":"uint256"}],"outputs":[{"name":"","type":"bool","internalType":"bool"}],"stateMutability":"nonpayable"},{"type":"function","name":"transferOwnership","inputs":[{"name":"newOwner","type":"address","internalType":"address"}],"outputs":[],"stateMutability":"nonpayable"},{"type":"function","name":"unlock","inputs":[{"name":"data","type":"bytes","internalType":"bytes"}],"outputs":[{"name":"result","type":"bytes","internalType":"bytes"}],"stateMutability":"nonpayable"},{"type":"function","name":"updateDynamicLPFee","inputs":[{"name":"key","type":"tuple","internalType":"struct PoolKey","components":[{"name":"currency0","type":"address","internalType":"Currency"},{"name":"currency1","type":"address","internalType":"Currency"},{"name":"fee","type":"uint24","internalType":"uint24"},{"name":"tickSpacing","type":"int24","internalType":"int24"},{"name":"hooks","type":"address","internalType":"contract IHooks"}]},{"name":"newDynamicLPFee","type":"uint24","internalType":"uint24"}],"outputs":[],"stateMutability":"nonpayable"},{"type":"event","name":"Approval","inputs":[{"name":"owner","type":"address","indexed":true,"internalType":"address"},{"name":"spender","type":"address","indexed":true,"internalType":"address"},{"name":"id","type":"uint256","indexed":true,"internalType":"uint256"},{"name":"amount","type":"uint256","indexed":false,"internalType":"uint256"}],"anonymous":false},{"type":"event","name":"Donate","inputs":[{"name":"id","type":"bytes32","indexed":true,"internalType":"PoolId"},{"name":"sender","type":"address","indexed":true,"internalType":"address"},{"name":"amount0","type":"uint256","indexed":false,"internalType":"uint256"},{"name":"amount1","type":"uint256","indexed":false,"internalType":"uint256"}],"anonymous":false},{"type":"event","name":"Initialize","inputs":[{"name":"id","type":"bytes32","indexed":true,"internalType":"PoolId"},{"name":"currency0","type":"address","indexed":true,"internalType":"Currency"},{"name":"currency1","type":"address","indexed":true,"internalType":"Currency"},{"name":"fee","type":"uint24","indexed":false,"internalType":"uint24"},{"name":"tickSpacing","type":"int24","indexed":false,"internalType":"int24"},{"name":"hooks","type":"address","indexed":false,"internalType":"contract IHooks"},{"name":"sqrtPriceX96","type":"uint160","indexed":false,"internalType":"uint160"},{"name":"tick","type":"int24","indexed":false,"internalType":"int24"}],"anonymous":false},{"type":"event","name":"ModifyLiquidity","inputs":[{"name":"id","type":"bytes32","indexed":true,"internalType":"PoolId"},{"name":"sender","type":"address","indexed":true,"internalType":"address"},{"name":"tickLower","type":"int24","indexed":false,"internalType":"int24"},{"name":"tickUpper","type":"int24","indexed":false,"internalType":"int24"},{"name":"liquidityDelta","type":"int256","indexed":false,"internalType":"int256"},{"name":"salt","type":"bytes32","indexed":false,"internalType":"bytes32"}],"anonymous":false},{"type":"event","name":"OperatorSet","inputs":[{"name":"owner","type":"address","indexed":true,"internalType":"address"},{"name":"operator","type":"address","indexed":true,"internalType":"address"},{"name":"approved","type":"bool","indexed":false,"internalType":"bool"}],"anonymous":false},{"type":"event","name":"OwnershipTransferred","inputs":[{"name":"user","type":"address","indexed":true,"internalType":"address"},{"name":"newOwner","type":"address","indexed":true,"internalType":"address"}],"anonymous":false},{"type":"event","name":"ProtocolFeeControllerUpdated","inputs":[{"name":"protocolFeeController","type":"address","indexed":true,"internalType":"address"}],"anonymous":false},{"type":"event","name":"ProtocolFeeUpdated","inputs":[{"name":"id","type":"bytes32","indexed":true,"internalType":"PoolId"},{"name":"protocolFee","type":"uint24","indexed":false,"internalType":"uint24"}],"anonymous":false},{"type":"event","name":"Swap","inputs":[{"name":"id","type":"bytes32","indexed":true,"internalType":"PoolId"},{"name":"sender","type":"address","indexed":true,"internalType":"address"},{"name":"amount0","type":"int128","indexed":false,"internalType":"int128"},{"name":"amount1","type":"int128","indexed":false,"internalType":"int128"},{"name":"sqrtPriceX96","type":"uint160","indexed":false,"internalType":"uint160"},{"name":"liquidity","type":"uint128","indexed":false,"internalType":"uint128"},{"name":"tick","type":"int24","indexed":false,"internalType":"int24"},{"name":"fee","type":"uint24","indexed":false,"internalType":"uint24"}],"anonymous":false},{"type":"event","name":"Transfer","inputs":[{"name":"caller","type":"address","indexed":false,"internalType":"address"},{"name":"from","type":"address","indexed":true,"internalType":"address"},{"name":"to","type":"address","indexed":true,"internalType":"address"},{"name":"id","type":"uint256","indexed":true,"internalType":"uint256"},{"name":"amount","type":"uint256","indexed":false,"internalType":"uint256"}],"anonymous":false},{"type":"error","name":"AlreadyUnlocked","inputs":[]},{"type":"error","name":"CurrenciesOutOfOrderOrEqual","inputs":[{"name":"currency0","type":"address","internalType":"address"},{"name":"currency1","type":"address","internalType":"address"}]},{"type":"error","name":"CurrencyNotSettled","inputs":[]},{"type":"error","name":"DelegateCallNotAllowed","inputs":[]},{"type":"error","name":"InvalidCaller","inputs":[]},{"type":"error","name":"ManagerLocked","inputs":[]},{"type":"error","name":"MustClearExactPositiveDelta","inputs":[]},{"type":"error","name":"NonzeroNativeValue","inputs":[]},{"type":"error","name":"PoolNotInitialized","inputs":[]},{"type":"error","name":"ProtocolFeeCurrencySynced","inputs":[]},{"type":"error","name":"ProtocolFeeTooLarge","inputs":[{"name":"fee","type":"uint24","internalType":"uint24"}]},{"type":"error","name":"SwapAmountCannotBeZero","inputs":[]},{"type":"error","name":"TickSpacingTooLarge","inputs":[{"name":"tickSpacing","type":"int24","internalType":"int24"}]},{"type":"error","name":"TickSpacingTooSmall","inputs":[{"name":"tickSpacing","type":"int24","internalType":"int24"}]},{"type":"error","name":"UnauthorizedDynamicLPFeeUpdate","inputs":[]}],"bytecode":{"object":"0x60a060405234801561000f575f80fd5b506040516188e83803806188e883398181016040528101906100319190610166565b8080805f806101000a81548173ffffffffffffffffffffffffffffffffffffffff021916908373ffffffffffffffffffffffffffffffffffffffff1602179055508073ffffffffffffffffffffffffffffffffffffffff165f73ffffffffffffffffffffffffffffffffffffffff167f8be0079c531659141344cd1fd0a4f28419497f9722a3daafe3b4186f6b6457e060405160405180910390a350503073ffffffffffffffffffffffffffffffffffffffff1660808173ffffffffffffffffffffffffffffffffffffffff168152505050610191565b5f80fd5b5f73ffffffffffffffffffffffffffffffffffffffff82169050919050565b5f6101358261010c565b9050919050565b6101458161012b565b811461014f575f80fd5b50565b5f815190506101608161013c565b92915050565b5f6020828403121561017b5761017a610108565b5b5f61018884828501610152565b91505092915050565b60805161873f6101a95f395f612707015261873f5ff3fe6080604052600436106101ec575f3560e01c80635a6bcfda1161010c578063a58411941161009f578063f135baaa1161006e578063f135baaa146107a7578063f2fde38b146107e3578063f3cd914c1461080b578063f5298aca14610847578063fe99049a1461086f576101ec565b8063a5841194146106dd578063b6363cf214610705578063dbd035ff14610741578063f02de3b21461077d576101ec565b80638161b874116100db5780638161b874146105ff5780638da5cb5b1461063b57806397e8cd4e146106655780639bf6645f146106a1576101ec565b80635a6bcfda146105365780636276cbbe146105735780637e87ce7d146105af57806380f0b44c146105d7576101ec565b80632d7713891161018457806348c894911161015357806348c894911461045a5780635275965114610496578063558a7297146104be578063598af9e7146104fa576101ec565b80632d7713891461038a57806335fd631a146103b25780633dd45adb146103ee578063426a84931461041e576101ec565b806311da60b4116101c057806311da60b4146102cc578063156e29f6146102ea5780631e2eaeaf14610312578063234266d71461034e576101ec565b8062fdd58e146101f057806301ffc9a71461022c578063095bcdb6146102685780630b0d9c09146102a4575b5f80fd5b3480156101fb575f80fd5b5061021660048036038101906102119190616f45565b6108ab565b6040516102239190616f92565b60405180910390f35b348015610237575f80fd5b50610252600480360381019061024d9190617000565b6108cb565b60405161025f9190617045565b60405180910390f35b348015610273575f80fd5b5061028e6004803603810190610289919061705e565b61092c565b60405161029b9190617045565b60405180910390f35b3480156102af575f80fd5b506102ca60048036038101906102c591906170d8565b610a64565b005b6102d4610ae5565b6040516102e19190616f92565b60405180910390f35b3480156102f5575f80fd5b50610310600480360381019061030b919061705e565b610b30565b005b34801561031d575f80fd5b506103386004803603810190610333919061715b565b610bbc565b6040516103459190617195565b60405180910390f35b348015610359575f80fd5b50610374600480360381019061036f91906173cd565b610bc6565b6040516103819190617494565b60405180910390f35b348015610395575f80fd5b506103b060048036038101906103ab91906174ad565b610d14565b005b3480156103bd575f80fd5b506103d860048036038101906103d391906174d8565b610e27565b6040516103e591906175cd565b60405180910390f35b610408600480360381019061040391906174ad565b610e6a565b6040516104159190616f92565b60405180910390f35b348015610429575f80fd5b50610444600480360381019061043f919061705e565b610eb7565b6040516104519190617045565b60405180910390f35b348015610465575f80fd5b50610480600480360381019061047b91906175ed565b610fb5565b60405161048d9190617698565b60405180910390f35b3480156104a1575f80fd5b506104bc60048036038101906104b791906176b8565b6110c8565b005b3480156104c9575f80fd5b506104e460048036038101906104df9190617720565b61118d565b6040516104f19190617045565b60405180910390f35b348015610505575f80fd5b50610520600480360381019061051b919061775e565b61128c565b60405161052d9190616f92565b60405180910390f35b348015610541575f80fd5b5061055c6004803603810190610557919061784d565b6112b7565b60405161056a9291906178c0565b60405180910390f35b34801561057e575f80fd5b5061059960048036038101906105949190617911565b6114bd565b6040516105a6919061795e565b60405180910390f35b3480156105ba575f80fd5b506105d560048036038101906105d091906176b8565b611769565b005b3480156105e2575f80fd5b506105fd60048036038101906105f89190617977565b6118a2565b005b34801561060a575f80fd5b50610625600480360381019061062091906179b5565b611963565b6040516106329190616f92565b60405180910390f35b348015610646575f80fd5b5061064f611b29565b60405161065c9190617a14565b60405180910390f35b348015610670575f80fd5b5061068b60048036038101906106869190617a2d565b611b4c565b6040516106989190616f92565b60405180910390f35b3480156106ac575f80fd5b506106c760048036038101906106c29190617aad565b611b61565b6040516106d491906175cd565b60405180910390f35b3480156106e8575f80fd5b5061070360048036038101906106fe9190617a2d565b611ba5565b005b348015610710575f80fd5b5061072b60048036038101906107269190617af8565b611c07565b6040516107389190617045565b60405180910390f35b34801561074c575f80fd5b5061076760048036038101906107629190617aad565b611c31565b60405161077491906175cd565b60405180910390f35b348015610788575f80fd5b50610791611c75565b60405161079e9190617a14565b60405180910390f35b3480156107b2575f80fd5b506107cd60048036038101906107c8919061715b565b611c9a565b6040516107da9190617195565b60405180910390f35b3480156107ee575f80fd5b50610809600480360381019061080491906174ad565b611ca4565b005b348015610816575f80fd5b50610831600480360381019061082c9190617b97565b611dcd565b60405161083e9190617494565b60405180910390f35b348015610852575f80fd5b5061086d6004803603810190610868919061705e565b611f9d565b005b34801561087a575f80fd5b5061089560048036038101906108909190617c0a565b612027565b6040516108a29190617045565b60405180910390f35b6004602052815f5260405f20602052805f5260405f205f91509150505481565b5f6301ffc9a760e01b827bffffffffffffffffffffffffffffffffffffffffffffffffffffffff191614806109255750630f632fb360e01b827bffffffffffffffffffffffffffffffffffffffffffffffffffffffff1916145b9050919050565b5f8160045f3373ffffffffffffffffffffffffffffffffffffffff1673ffffffffffffffffffffffffffffffffffffffff1681526020019081526020015f205f8581526020019081526020015f205f8282546109889190617c9b565b925050819055508160045f8673ffffffffffffffffffffffffffffffffffffffff1673ffffffffffffffffffffffffffffffffffffffff1681526020019081526020015f205f8581526020019081526020015f205f8282546109ea9190617cce565b92505081905550828473ffffffffffffffffffffffffffffffffffffffff163373ffffffffffffffffffffffffffffffffffffffff167f1b3d7edb2e9c0b0e7c525b20aaaef0f5940d2ed71663c7d39266ecafac7288593386604051610a51929190617d01565b60405180910390a4600190509392505050565b610a6c61236f565b610aa057610a9f6354e3ca0d60e01b7bffffffffffffffffffffffffffffffffffffffffffffffffffffffff1916612397565b5b610ab583610aad8361239f565b5f03336123ef565b610ae082828573ffffffffffffffffffffffffffffffffffffffff166124589092919063ffffffff16565b505050565b5f610aee61236f565b610b2257610b216354e3ca0d60e01b7bffffffffffffffffffffffffffffffffffffffffffffffffffffffff1916612397565b5b610b2b3361253f565b905090565b610b3861236f565b610b6c57610b6b6354e3ca0d60e01b7bffffffffffffffffffffffffffffffffffffffffffffffffffffffff1916612397565b5b5f610b768361260e565b9050610b8d81610b858461239f565b5f03336123ef565b610bb684610bb08373ffffffffffffffffffffffffffffffffffffffff16612617565b84612636565b50505050565b5f81545f5260205ff35b5f610bcf61236f565b610c0357610c026354e3ca0d60e01b7bffffffffffffffffffffffffffffffffffffffffffffffffffffffff1916612397565b5b610c0b612705565b5f610c158761278a565b90505f610c2182612796565b9050610c2c816127af565b610c6188888888888d6080015173ffffffffffffffffffffffffffffffffffffffff1661280a9095949392919063ffffffff16565b610c768787836129019092919063ffffffff16565b9250610c83888433612a24565b3373ffffffffffffffffffffffffffffffffffffffff16827f29ef05caaff9404b7cb6d1c0e9bbae9eaa7ab2541feba1a9c4248594c08156cb8989604051610ccc929190617d28565b60405180910390a3610d0988888888888d6080015173ffffffffffffffffffffffffffffffffffffffff16612a569095949392919063ffffffff16565b505095945050505050565b5f8054906101000a900473ffffffffffffffffffffffffffffffffffffffff1673ffffffffffffffffffffffffffffffffffffffff163373ffffffffffffffffffffffffffffffffffffffff1614610da1576040517f08c379a0000000000000000000000000000000000000000000000000000000008152600401610d9890617da9565b60405180910390fd5b8060025f6101000a81548173ffffffffffffffffffffffffffffffffffffffff021916908373ffffffffffffffffffffffffffffffffffffffff1602179055508073ffffffffffffffffffffffffffffffffffffffff167fb4bd8ef53df690b9943d3318996006dbb82a25f54719d8c8035b516a2a5b8acc60405160405180910390a250565b6060604051808360051b602083528460208401526040830192508083015b600115610e645786548452602084019350600187019650808410610e45575b82810383f35b5f610e7361236f565b610ea757610ea66354e3ca0d60e01b7bffffffffffffffffffffffffffffffffffffffffffffffffffffffff1916612397565b5b610eb08261253f565b9050919050565b5f8160055f3373ffffffffffffffffffffffffffffffffffffffff1673ffffffffffffffffffffffffffffffffffffffff1681526020019081526020015f205f8673ffffffffffffffffffffffffffffffffffffffff1673ffffffffffffffffffffffffffffffffffffffff1681526020019081526020015f205f8581526020019081526020015f2081905550828473ffffffffffffffffffffffffffffffffffffffff163373ffffffffffffffffffffffffffffffffffffffff167fb3fd5071835887567a0671151121894ddccc2842f1d10bedad13e0d17cace9a785604051610fa29190616f92565b60405180910390a4600190509392505050565b6060610fbf61236f565b15610ff457610ff3635090d6c660e01b7bffffffffffffffffffffffffffffffffffffffffffffffffffffffff1916612397565b5b610ffc612b4d565b3373ffffffffffffffffffffffffffffffffffffffff166391dd734684846040518363ffffffff1660e01b8152600401611037929190617e01565b5f604051808303815f875af1158015611052573d5f803e3d5ffd5b505050506040513d5f823e3d601f19601f8201168201806040525081019061107a9190617ec5565b90505f611085612b73565b146110ba576110b9635212cba160e01b7bffffffffffffffffffffffffffffffffffffffffffffffffffffffff1916612397565b5b6110c2612b9b565b92915050565b6110da826040015162ffffff16612bc0565b15806111165750816080015173ffffffffffffffffffffffffffffffffffffffff163373ffffffffffffffffffffffffffffffffffffffff1614155b1561114b5761114a6330d2164160e01b7bffffffffffffffffffffffffffffffffffffffffffffffffffffffff1916612397565b5b6111598162ffffff16612bd8565b5f6111638361278a565b90506111888260065f8481526020019081526020015f20612c2c90919063ffffffff16565b505050565b5f8160035f3373ffffffffffffffffffffffffffffffffffffffff1673ffffffffffffffffffffffffffffffffffffffff1681526020019081526020015f205f8573ffffffffffffffffffffffffffffffffffffffff1673ffffffffffffffffffffffffffffffffffffffff1681526020019081526020015f205f6101000a81548160ff0219169083151502179055508273ffffffffffffffffffffffffffffffffffffffff163373ffffffffffffffffffffffffffffffffffffffff167fceb576d9f15e4e200fdb5096d64d5dfd667e16def20c1eefd14256d8e3faa2678460405161127a9190617045565b60405180910390a36001905092915050565b6005602052825f5260405f20602052815f5260405f20602052805f5260405f205f9250925050505481565b5f806112c161236f565b6112f5576112f46354e3ca0d60e01b7bffffffffffffffffffffffffffffffffffffffffffffffffffffffff1916612397565b5b6112fd612705565b5f6113078761278a565b90505f61131382612796565b905061131e816127af565b611351888888888c6080015173ffffffffffffffffffffffffffffffffffffffff16612c5690949392919063ffffffff16565b5f6113ce6040518060c001604052803373ffffffffffffffffffffffffffffffffffffffff1681526020018a5f015160020b81526020018a6020015160020b81526020016113a28b60400151612e27565b600f0b81526020018b6060015160020b81526020018a6060015181525083612e6a90919063ffffffff16565b80955081925050506113e08185613272565b945050503373ffffffffffffffffffffffffffffffffffffffff16817ff208f4912782fd25c7f114ca3723a2d5dd6f3bcc3ac8db5af63baa85f711d5ec885f015189602001518a604001518b606001516040516114409493929190617f1b565b60405180910390a35f611480888886868a8a8e6080015173ffffffffffffffffffffffffffffffffffffffff166132b7909695949392919063ffffffff16565b8092508195505050611492815f613501565b156114a7576114a688828a60800151612a24565b5b6114b2888533612a24565b505094509492505050565b5f6114c6612705565b617fff60010b60020b836060015160020b131561151b5761151a836060015163b70024f860e01b7bffffffffffffffffffffffffffffffffffffffffffffffffffffffff191661350e90919063ffffffff16565b5b600160020b836060015160020b121561156c5761156b836060015163e9e9058860e01b7bffffffffffffffffffffffffffffffffffffffffffffffffffffffff191661350e90919063ffffffff16565b5b61157d835f0151846020015161351d565b156115c5576115c4835f01518460200151636e6c983060e01b7bffffffffffffffffffffffffffffffffffffffffffffffffffffffff19166135569092919063ffffffff16565b5b6115f68360400151846080015173ffffffffffffffffffffffffffffffffffffffff1661359990919063ffffffff16565b61163857611637836080015163e65af6a060e01b7bffffffffffffffffffffffffffffffffffffffffffffffffffffffff19166137c790919063ffffffff16565b5b5f61164b846040015162ffffff166137e9565b905061167c8484866080015173ffffffffffffffffffffffffffffffffffffffff1661381c9092919063ffffffff16565b5f6116868561278a565b90506116ad848360065f8581526020019081526020015f2061390b9092919063ffffffff16565b9250846020015173ffffffffffffffffffffffffffffffffffffffff16855f015173ffffffffffffffffffffffffffffffffffffffff16827fdd466e674ea557f56295e2d0218a125ea4b4f0f6f3307b95f85e6110838d6438886040015189606001518a608001518a8a604051611728959493929190617fce565b60405180910390a4611761858585886080015173ffffffffffffffffffffffffffffffffffffffff166139b6909392919063ffffffff16565b505092915050565b60025f9054906101000a900473ffffffffffffffffffffffffffffffffffffffff1673ffffffffffffffffffffffffffffffffffffffff163373ffffffffffffffffffffffffffffffffffffffff16146117ed576117ec6348f5c3ed60e01b7bffffffffffffffffffffffffffffffffffffffffffffffffffffffff1916612397565b5b6117fb8162ffffff16613aa8565b61183e5761183d8162ffffff1663a7abe2f760e01b7bffffffffffffffffffffffffffffffffffffffffffffffffffffffff1916613ac990919063ffffffff16565b5b5f6118488361278a565b90506118658261185783612796565b613aeb90919063ffffffff16565b807fe9c42593e71f84403b84352cd168d693e2c9fcd1fdbcc3feb21d92b43e6696f983604051611895919061801f565b60405180910390a2505050565b6118aa61236f565b6118de576118dd6354e3ca0d60e01b7bffffffffffffffffffffffffffffffffffffffffffffffffffffffff1916612397565b5b5f611908338473ffffffffffffffffffffffffffffffffffffffff16613b1590919063ffffffff16565b90505f6119148361239f565b90508181600f0b146119505761194f63bda73abf60e01b7bffffffffffffffffffffffffffffffffffffffffffffffffffffffff1916612397565b5b61195d84825f03336123ef565b50505050565b5f60025f9054906101000a900473ffffffffffffffffffffffffffffffffffffffff1673ffffffffffffffffffffffffffffffffffffffff163373ffffffffffffffffffffffffffffffffffffffff16146119e8576119e76348f5c3ed60e01b7bffffffffffffffffffffffffffffffffffffffffffffffffffffffff1916612397565b5b611a078373ffffffffffffffffffffffffffffffffffffffff16613b2e565b158015611a215750611a20611a1a613b65565b84613b8d565b5b15611a5657611a5563c79e594860e01b7bffffffffffffffffffffffffffffffffffffffffffffffffffffffff1916612397565b5b5f8214611a635781611aa2565b60015f8473ffffffffffffffffffffffffffffffffffffffff1673ffffffffffffffffffffffffffffffffffffffff1681526020019081526020015f20545b90508060015f8573ffffffffffffffffffffffffffffffffffffffff1673ffffffffffffffffffffffffffffffffffffffff1681526020019081526020015f205f828254611af09190617c9b565b92505081905550611b2284828573ffffffffffffffffffffffffffffffffffffffff166124589092919063ffffffff16565b9392505050565b5f8054906101000a900473ffffffffffffffffffffffffffffffffffffffff1681565b6001602052805f5260405f205f915090505481565b606060405180602082528360208301526040820191508360051b8201855b600115611b9f5780355c8452602084019350602081019050818410611b7f575b82820383f35b611bc48173ffffffffffffffffffffffffffffffffffffffff16613b2e565b15611bd657611bd1613bc5565b611c04565b5f611bf68273ffffffffffffffffffffffffffffffffffffffff16613bea565b9050611c028282613c97565b505b50565b6003602052815f5260405f20602052805f5260405f205f915091509054906101000a900460ff1681565b606060405180602082528360208301526040820191508360051b8201855b600115611c6f578035548452602084019350602081019050818410611c4f575b82820383f35b60025f9054906101000a900473ffffffffffffffffffffffffffffffffffffffff1681565b5f815c5f5260205ff35b5f8054906101000a900473ffffffffffffffffffffffffffffffffffffffff1673ffffffffffffffffffffffffffffffffffffffff163373ffffffffffffffffffffffffffffffffffffffff1614611d31576040517f08c379a0000000000000000000000000000000000000000000000000000000008152600401611d2890617da9565b60405180910390fd5b805f806101000a81548173ffffffffffffffffffffffffffffffffffffffff021916908373ffffffffffffffffffffffffffffffffffffffff1602179055508073ffffffffffffffffffffffffffffffffffffffff163373ffffffffffffffffffffffffffffffffffffffff167f8be0079c531659141344cd1fd0a4f28419497f9722a3daafe3b4186f6b6457e060405160405180910390a350565b5f611dd661236f565b611e0a57611e096354e3ca0d60e01b7bffffffffffffffffffffffffffffffffffffffffffffffffffffffff1916612397565b5b611e12612705565b5f846020015103611e4d57611e4c63be8b850760e01b7bffffffffffffffffffffffffffffffffffffffffffffffffffffffff1916612397565b5b5f611e578661278a565b90505f611e6382612796565b9050611e6e816127af565b5f805f611ea48a8a8a8a8e6080015173ffffffffffffffffffffffffffffffffffffffff16613cf790949392919063ffffffff16565b809350819550829450505050611f2384866040518060a001604052808681526020018e6060015160020b81526020018d5f0151151581526020018d6040015173ffffffffffffffffffffffffffffffffffffffff1681526020018562ffffff168152508c5f0151611f19578d60200151611f1e565b8d5f01515b613ef3565b955050505f611f5f8989878a8a878f6080015173ffffffffffffffffffffffffffffffffffffffff16613fa9909695949392919063ffffffff16565b8092508196505050611f71815f613501565b15611f8657611f8589828b60800151612a24565b5b611f91898633612a24565b50505050949350505050565b611fa561236f565b611fd957611fd86354e3ca0d60e01b7bffffffffffffffffffffffffffffffffffffffffffffffffffffffff1916612397565b5b5f611fe38361260e565b9050611ff881611ff28461239f565b336123ef565b6120218461201b8373ffffffffffffffffffffffffffffffffffffffff16612617565b84614167565b50505050565b5f8473ffffffffffffffffffffffffffffffffffffffff163373ffffffffffffffffffffffffffffffffffffffff16141580156120e6575060035f8673ffffffffffffffffffffffffffffffffffffffff1673ffffffffffffffffffffffffffffffffffffffff1681526020019081526020015f205f3373ffffffffffffffffffffffffffffffffffffffff1673ffffffffffffffffffffffffffffffffffffffff1681526020019081526020015f205f9054906101000a900460ff16155b15612237575f60055f8773ffffffffffffffffffffffffffffffffffffffff1673ffffffffffffffffffffffffffffffffffffffff1681526020019081526020015f205f3373ffffffffffffffffffffffffffffffffffffffff1673ffffffffffffffffffffffffffffffffffffffff1681526020019081526020015f205f8581526020019081526020015f205490507fffffffffffffffffffffffffffffffffffffffffffffffffffffffffffffffff81146122355782816121a99190617c9b565b60055f8873ffffffffffffffffffffffffffffffffffffffff1673ffffffffffffffffffffffffffffffffffffffff1681526020019081526020015f205f3373ffffffffffffffffffffffffffffffffffffffff1673ffffffffffffffffffffffffffffffffffffffff1681526020019081526020015f205f8681526020019081526020015f20819055505b505b8160045f8773ffffffffffffffffffffffffffffffffffffffff1673ffffffffffffffffffffffffffffffffffffffff1681526020019081526020015f205f8581526020019081526020015f205f8282546122929190617c9b565b925050819055508160045f8673ffffffffffffffffffffffffffffffffffffffff1673ffffffffffffffffffffffffffffffffffffffff1681526020019081526020015f205f8581526020019081526020015f205f8282546122f49190617cce565b92505081905550828473ffffffffffffffffffffffffffffffffffffffff168673ffffffffffffffffffffffffffffffffffffffff167f1b3d7edb2e9c0b0e7c525b20aaaef0f5940d2ed71663c7d39266ecafac728859338660405161235b929190617d01565b60405180910390a460019050949350505050565b5f7fc090fc4683624cfc3884e9d8de5eca132f2d0ec062aff75d43c0465d5ceeab235c905090565b805f5260045ffd5b5f6f8000000000000000000000000000000082106123e7576123e66393dafdf160e01b7bffffffffffffffffffffffffffffffffffffffffffffffffffffffff1916612397565b5b819050919050565b5f82600f0b0315612453575f8061242783858773ffffffffffffffffffffffffffffffffffffffff1661438b9092919063ffffffff16565b915091505f810361243f5761243a6143bb565b612450565b5f820361244f5761244e614409565b5b5b50505b505050565b5f6124788473ffffffffffffffffffffffffffffffffffffffff16613b2e565b156124a7575f805f8085875af19050806124a2576124a1835f60e01b63f4b3b1bc60e01b614457565b5b612539565b6040517fa9059cbb00000000000000000000000000000000000000000000000000000000815273ffffffffffffffffffffffffffffffffffffffff8416600482015282602482015260205f6044835f895af13d15601f3d1160015f511416171691505f81525f60208201525f60408201525080612538576125378463a9059cbb60e01b63f27f64e460e01b614457565b5b5b50505050565b5f80612549613b65565b905061256a8173ffffffffffffffffffffffffffffffffffffffff16613b2e565b15612577573491506125f5565b5f3411156125af576125ae63b0ec849e60e01b7bffffffffffffffffffffffffffffffffffffffffffffffffffffffff1916612397565b5b5f6125b861450c565b90505f6125da8373ffffffffffffffffffffffffffffffffffffffff16613bea565b905081816125e89190617c9b565b93506125f2613bc5565b50505b612608816126028461239f565b856123ef565b50919050565b5f819050919050565b5f8173ffffffffffffffffffffffffffffffffffffffff169050919050565b8060045f8573ffffffffffffffffffffffffffffffffffffffff1673ffffffffffffffffffffffffffffffffffffffff1681526020019081526020015f205f8481526020019081526020015f205f8282546126919190617cce565b92505081905550818373ffffffffffffffffffffffffffffffffffffffff165f73ffffffffffffffffffffffffffffffffffffffff167f1b3d7edb2e9c0b0e7c525b20aaaef0f5940d2ed71663c7d39266ecafac72885933856040516126f8929190617d01565b60405180910390a4505050565b7f000000000000000000000000000000000000000000000000000000000000000073ffffffffffffffffffffffffffffffffffffffff163073ffffffffffffffffffffffffffffffffffffffff161461278857612787630d89438e60e01b7bffffffffffffffffffffffffffffffffffffffffffffffffffffffff1916612397565b5b565b5f60a082209050919050565b5f60065f8381526020019081526020015f209050919050565b5f6127bc825f0154614534565b73ffffffffffffffffffffffffffffffffffffffff16036128075761280663486aa30760e01b7bffffffffffffffffffffffffffffffffffffffffffffffffffffffff1916612397565b5b50565b858073ffffffffffffffffffffffffffffffffffffffff163373ffffffffffffffffffffffffffffffffffffffff16146128f85761286860208873ffffffffffffffffffffffffffffffffffffffff1661455390919063ffffffff16565b156128f7576128f533878787878760405160240161288b969594939291906180eb565b60405160208183030381529060405263b6a8b0fa60e01b6020820180517bffffffffffffffffffffffffffffffffffffffffffffffffffffffff83818316178352505050508873ffffffffffffffffffffffffffffffffffffffff1661457890919063ffffffff16565b505b5b50505050505050565b5f80846003015f9054906101000a90046fffffffffffffffffffffffffffffffff1690505f816fffffffffffffffffffffffffffffffff160361296e5761296d63a74f97ab60e01b7bffffffffffffffffffffffffffffffffffffffffffffffffffffffff1916612397565b5b61298c61297a8561239f565b5f036129858561239f565b5f03614660565b91505f8411156129d5576129c484700100000000000000000000000000000000836fffffffffffffffffffffffffffffffff16614677565b856001015f82825401925050819055505b5f831115612a1c57612a0b83700100000000000000000000000000000000836fffffffffffffffffffffffffffffffff16614677565b856002015f82825401925050819055505b509392505050565b612a3a835f0151612a3484614686565b836123ef565b612a518360200151612a4b84614692565b836123ef565b505050565b858073ffffffffffffffffffffffffffffffffffffffff163373ffffffffffffffffffffffffffffffffffffffff1614612b4457612ab460108873ffffffffffffffffffffffffffffffffffffffff1661455390919063ffffffff16565b15612b4357612b41338787878787604051602401612ad7969594939291906180eb565b60405160208183030381529060405263e1b4af6960e01b6020820180517bffffffffffffffffffffffffffffffffffffffffffffffffffffffff83818316178352505050508873ffffffffffffffffffffffffffffffffffffffff1661457890919063ffffffff16565b505b5b50505050505050565b60017fc090fc4683624cfc3884e9d8de5eca132f2d0ec062aff75d43c0465d5ceeab235d565b5f7f7d4b3164c6e45b97e7d87b7125a44c5828d005af88f9d751cfd78729c5d99a0b5c905090565b5f7fc090fc4683624cfc3884e9d8de5eca132f2d0ec062aff75d43c0465d5ceeab235d565b5f6280000062ffffff168262ffffff16149050919050565b612be68162ffffff1661469e565b612c2957612c288162ffffff16631400211360e01b7bffffffffffffffffffffffffffffffffffffffffffffffffffffffff1916613ac990919063ffffffff16565b5b50565b612c35826127af565b612c4b81835f01546146b790919063ffffffff16565b825f01819055505050565b848073ffffffffffffffffffffffffffffffffffffffff163373ffffffffffffffffffffffffffffffffffffffff1614612e1f575f8460400151138015612cc45750612cc36108008773ffffffffffffffffffffffffffffffffffffffff1661455390919063ffffffff16565b5b15612d5557612d4f3386868686604051602401612ce59594939291906181a9565b60405160208183030381529060405263259982e560e01b6020820180517bffffffffffffffffffffffffffffffffffffffffffffffffffffffff83818316178352505050508773ffffffffffffffffffffffffffffffffffffffff1661457890919063ffffffff16565b50612e1e565b5f846040015113158015612d905750612d8f6102008773ffffffffffffffffffffffffffffffffffffffff1661455390919063ffffffff16565b5b15612e1d57612e1b3386868686604051602401612db19594939291906181a9565b6040516020818303038152906040526321d0ee7060e01b6020820180517bffffffffffffffffffffffffffffffffffffffffffffffffffffffff83818316178352505050508773ffffffffffffffffffffffffffffffffffffffff1661457890919063ffffffff16565b505b5b5b505050505050565b5f8190508181600f0b14612e6557612e646393dafdf160e01b7bffffffffffffffffffffffffffffffffffffffffffffffffffffffff1916612397565b5b919050565b5f805f836060015190505f846020015190505f85604001519050612e8e82826146d4565b612e96616da4565b5f84600f0b1461306a57612eac8884865f6147d4565b825f0183602001826fffffffffffffffffffffffffffffffff166fffffffffffffffffffffffffffffffff1681525082151515158152505050612ef288838660016147d4565b8260400183606001826fffffffffffffffffffffffffffffffff166fffffffffffffffffffffffffffffffff16815250821515151581525050505f84600f0b1261301c575f612f448860800151614900565b9050806fffffffffffffffffffffffffffffffff1682602001516fffffffffffffffffffffffffffffffff161115612fb057612faf8463b8e3c38560e01b7bffffffffffffffffffffffffffffffffffffffffffffffffffffffff191661350e90919063ffffffff16565b5b806fffffffffffffffffffffffffffffffff1682606001516fffffffffffffffffffffffffffffffff16111561301a576130198363b8e3c38560e01b7bffffffffffffffffffffffffffffffffffffffffffffffffffffffff191661350e90919063ffffffff16565b5b505b805f015115613042576130418388608001518a6005016149599092919063ffffffff16565b5b806040015115613069576130688288608001518a6005016149599092919063ffffffff16565b5b5b5f806130778a86866149b0565b915091505f61309f8a5f015187878d60a001518f600601614a8590949392919063ffffffff16565b90505f806130ba89868686614ab1909392919063ffffffff16565b915091506130d86130ca8361239f565b6130d38361239f565b614660565b995050505050505f84600f0b121561311457805f0151156130fe576130fd8884614bf8565b5b806040015115613113576131128883614bf8565b5b5b505f83600f0b14613268575f875f015490505f8061313183614c69565b61313a84614534565b915091508460020b8260020b121561317f5761317861317261316d61315e88614c78565b61316788614c78565b8a614fd2565b612e27565b5f614660565b9750613264565b8360020b8260020b1215613234576131cb6131ab6131a6836131a088614c78565b8a614fd2565b612e27565b6131c66131c16131ba89614c78565b858b615019565b612e27565b614660565b97506131f68a6003015f9054906101000a90046fffffffffffffffffffffffffffffffff1687615060565b8a6003015f6101000a8154816fffffffffffffffffffffffffffffffff02191690836fffffffffffffffffffffffffffffffff160217905550613263565b6132605f61325b61325661324789614c78565b61325089614c78565b8b615019565b612e27565b614660565b97505b5b5050505b5050509250929050565b5f805f8460801d85600f0b8560801d86600f0b81840195508083019450505050506132ad61329f83612e27565b6132a883612e27565b614660565b9250505092915050565b5f808873ffffffffffffffffffffffffffffffffffffffff163373ffffffffffffffffffffffffffffffffffffffff16036132f757855f915091506134f5565b8591505f876040015113156133ff576133316104008a73ffffffffffffffffffffffffffffffffffffffff1661455390919063ffffffff16565b156133fa576133eb3389898989898960405160240161335697969594939291906181f7565b604051602081830303815290604052639f063efc60e01b6020820180517bffffffffffffffffffffffffffffffffffffffffffffffffffffffff83818316178352505050506133c560028c73ffffffffffffffffffffffffffffffffffffffff1661455390919063ffffffff16565b8b73ffffffffffffffffffffffffffffffffffffffff166150979092919063ffffffff16565b90506133f78282615100565b91505b6134f4565b61342a6101008a73ffffffffffffffffffffffffffffffffffffffff1661455390919063ffffffff16565b156134f3576134e43389898989898960405160240161344f97969594939291906181f7565b604051602081830303815290604052636c2bbe7e60e01b6020820180517bffffffffffffffffffffffffffffffffffffffffffffffffffffffff83818316178352505050506134be60018c73ffffffffffffffffffffffffffffffffffffffff1661455390919063ffffffff16565b8b73ffffffffffffffffffffffffffffffffffffffff166150979092919063ffffffff16565b90506134f08282615100565b91505b5b5b97509795505050505050565b5f81831415905092915050565b815f528060020b60045260245ffd5b5f8173ffffffffffffffffffffffffffffffffffffffff168373ffffffffffffffffffffffffffffffffffffffff161015905092915050565b60405183815273ffffffffffffffffffffffffffffffffffffffff8316600482015273ffffffffffffffffffffffffffffffffffffffff82166024820152604481fd5b5f6135c460808473ffffffffffffffffffffffffffffffffffffffff1661455390919063ffffffff16565b1580156135f757506135f660088473ffffffffffffffffffffffffffffffffffffffff1661455390919063ffffffff16565b5b15613604575f90506137c1565b61362e60408473ffffffffffffffffffffffffffffffffffffffff1661455390919063ffffffff16565b158015613661575061366060048473ffffffffffffffffffffffffffffffffffffffff1661455390919063ffffffff16565b5b1561366e575f90506137c1565b6136996104008473ffffffffffffffffffffffffffffffffffffffff1661455390919063ffffffff16565b1580156136cc57506136cb60028473ffffffffffffffffffffffffffffffffffffffff1661455390919063ffffffff16565b5b156136d9575f90506137c1565b6137046101008473ffffffffffffffffffffffffffffffffffffffff1661455390919063ffffffff16565b158015613737575061373660018473ffffffffffffffffffffffffffffffffffffffff1661455390919063ffffffff16565b5b15613744575f90506137c1565b5f73ffffffffffffffffffffffffffffffffffffffff168373ffffffffffffffffffffffffffffffffffffffff16146137ae575f613fff841673ffffffffffffffffffffffffffffffffffffffff1611806137a957506137a88262ffffff16612bc0565b5b6137be565b6137bc8262ffffff16612bc0565b155b90505b92915050565b815f5273ffffffffffffffffffffffffffffffffffffffff811660045260245ffd5b5f6137f88262ffffff16612bc0565b15613805575f9050613817565b6138138262ffffff16612bd8565b8190505b919050565b828073ffffffffffffffffffffffffffffffffffffffff163373ffffffffffffffffffffffffffffffffffffffff16146139055761387b6120008573ffffffffffffffffffffffffffffffffffffffff1661455390919063ffffffff16565b156139045761390233848460405160240161389893929190618263565b60405160208183030381529060405263dc98354e60e01b6020820180517bffffffffffffffffffffffffffffffffffffffffffffffffffffffff83818316178352505050508573ffffffffffffffffffffffffffffffffffffffff1661457890919063ffffffff16565b505b5b50505050565b5f80613919855f0154614534565b73ffffffffffffffffffffffffffffffffffffffff161461396457613963637983c05160e01b7bffffffffffffffffffffffffffffffffffffffffffffffffffffffff1916612397565b5b61396d83615145565b90506139a88261399a8361398c875f801b61543c90919063ffffffff16565b61547590919063ffffffff16565b6146b790919063ffffffff16565b845f01819055509392505050565b838073ffffffffffffffffffffffffffffffffffffffff163373ffffffffffffffffffffffffffffffffffffffff1614613aa157613a156110008673ffffffffffffffffffffffffffffffffffffffff1661455390919063ffffffff16565b15613aa057613a9e33858585604051602401613a349493929190618298565b604051602081830303815290604052636fe7e6eb60e01b6020820180517bffffffffffffffffffffffffffffffffffffffffffffffffffffffff83818316178352505050508673ffffffffffffffffffffffffffffffffffffffff1661457890919063ffffffff16565b505b5b5050505050565b5f6103e9610fff831610623e900062fff00084161080821692505050919050565b815f5273ffffffffffffffffffffffffffffffffffffffff811660045260245ffd5b613af4826127af565b613b0a81835f015461549290919063ffffffff16565b825f01819055505050565b5f80613b2183856154af565b9050805c91505092915050565b5f8073ffffffffffffffffffffffffffffffffffffffff168273ffffffffffffffffffffffffffffffffffffffff16149050919050565b5f7f27e098c505d44ec3574004bca052aabf76bd35004c182099d8c575fb238593b95c905090565b5f8173ffffffffffffffffffffffffffffffffffffffff168373ffffffffffffffffffffffffffffffffffffffff1614905092915050565b5f7f27e098c505d44ec3574004bca052aabf76bd35004c182099d8c575fb238593b95d565b5f613c0a8273ffffffffffffffffffffffffffffffffffffffff16613b2e565b15613c1757479050613c92565b8173ffffffffffffffffffffffffffffffffffffffff166370a08231306040518263ffffffff1660e01b8152600401613c509190617a14565b602060405180830381865afa158015613c6b573d5f803e3d5ffd5b505050506040513d601f19601f82011682018060405250810190613c8f91906182f0565b90505b919050565b73ffffffffffffffffffffffffffffffffffffffff82167f27e098c505d44ec3574004bca052aabf76bd35004c182099d8c575fb238593b95d807f1e0745a7db1623981f0b2a5d4232364c00787266eb75ad546f190e6cebe9bd955d5050565b5f805f856020015192508773ffffffffffffffffffffffffffffffffffffffff163373ffffffffffffffffffffffffffffffffffffffff1603613d3f57825f92509250613ee8565b613d6960808973ffffffffffffffffffffffffffffffffffffffff1661455390919063ffffffff16565b15613ee7575f613dd689338a8a8a8a604051602401613d8c959493929190618379565b60405160208183030381529060405263575e24b460e01b6020820180517bffffffffffffffffffffffffffffffffffffffffffffffffffffffff8381831617835250505050614578565b90506060815114613e1157613e10631e048e1d60e01b7bffffffffffffffffffffffffffffffffffffffffffffffffffffffff1916612397565b5b613e23886040015162ffffff16612bc0565b15613e3457613e31816154ef565b91505b613e5e60088a73ffffffffffffffffffffffffffffffffffffffff1661455390919063ffffffff16565b15613ee557613e6c816154fc565b92505f613e7884615509565b90505f81600f0b14613ee3575f808612905081600f0b86613e9991906183c7565b955080613ea8575f8612613eac565b5f86135b15613ee157613ee063fa0b71d660e01b7bffffffffffffffffffffffffffffffffffffffffffffffffffffffff1916612397565b5b505b505b505b5b955095509592505050565b5f805f805f613f0b878a61551590919063ffffffff16565b93509350935093505f831115613f2657613f258684615f05565b5b3373ffffffffffffffffffffffffffffffffffffffff16887f40e9cecb9f5f1f1c5b9c97dec2917b7ee92e57ba5563708daca94dd84ad7112f613f6887614686565b613f7188614692565b855f01518660400151876020015189604051613f929695949392919061844d565b60405180910390a383945050505050949350505050565b5f808873ffffffffffffffffffffffffffffffffffffffff163373ffffffffffffffffffffffffffffffffffffffff1603613fe957855f9150915061415b565b5f613ff384615509565b90505f613fff85615f53565b905061402b60408c73ffffffffffffffffffffffffffffffffffffffff1661455390919063ffffffff16565b156140f9576140eb6140e6338c8c8c8c8c604051602401614051969594939291906184ac565b60405160208183030381529060405263b47b2fb160e01b6020820180517bffffffffffffffffffffffffffffffffffffffffffffffffffffffff83818316178352505050506140c060048f73ffffffffffffffffffffffffffffffffffffffff1661455390919063ffffffff16565b8e73ffffffffffffffffffffffffffffffffffffffff166150979092919063ffffffff16565b612e27565b816140f69190618509565b90505b5f8082600f0b14158061410f57505f83600f0b14155b1561415157895f015115155f8b6020015112151514614137576141328284614660565b614142565b6141418383614660565b5b905061414e8982615100565b98505b8881945094505050505b97509795505050505050565b5f3390508073ffffffffffffffffffffffffffffffffffffffff168473ffffffffffffffffffffffffffffffffffffffff1614158015614229575060035f8573ffffffffffffffffffffffffffffffffffffffff1673ffffffffffffffffffffffffffffffffffffffff1681526020019081526020015f205f8273ffffffffffffffffffffffffffffffffffffffff1673ffffffffffffffffffffffffffffffffffffffff1681526020019081526020015f205f9054906101000a900460ff16155b1561437a575f60055f8673ffffffffffffffffffffffffffffffffffffffff1673ffffffffffffffffffffffffffffffffffffffff1681526020019081526020015f205f8373ffffffffffffffffffffffffffffffffffffffff1673ffffffffffffffffffffffffffffffffffffffff1681526020019081526020015f205f8581526020019081526020015f205490507fffffffffffffffffffffffffffffffffffffffffffffffffffffffffffffffff81146143785782816142ec9190617c9b565b60055f8773ffffffffffffffffffffffffffffffffffffffff1673ffffffffffffffffffffffffffffffffffffffff1681526020019081526020015f205f8473ffffffffffffffffffffffffffffffffffffffff1673ffffffffffffffffffffffffffffffffffffffff1681526020019081526020015f205f8681526020019081526020015f20819055505b505b614385848484615f5f565b50505050565b5f805f61439885876154af565b9050805c925083600f0b836143ad91906183c7565b915081815d50935093915050565b7f7d4b3164c6e45b97e7d87b7125a44c5828d005af88f9d751cfd78729c5d99a0b5c600181039050807f7d4b3164c6e45b97e7d87b7125a44c5828d005af88f9d751cfd78729c5d99a0b5d50565b7f7d4b3164c6e45b97e7d87b7125a44c5828d005af88f9d751cfd78729c5d99a0b5c600181019050807f7d4b3164c6e45b97e7d87b7125a44c5828d005af88f9d751cfd78729c5d99a0b5d50565b5f6390bfb86560e01b9050602080601f3d01040260405182815273ffffffffffffffffffffffffffffffffffffffff861660048201527fffffffff0000000000000000000000000000000000000000000000000000000085166024820152608060448201528160a00160648201523d60848201523d5f60a483013e60048260a4018201527fffffffff0000000000000000000000000000000000000000000000000000000084168260c4018201528160e40181fd5b5f7f1e0745a7db1623981f0b2a5d4232364c00787266eb75ad546f190e6cebe9bd955c905090565b5f8173ffffffffffffffffffffffffffffffffffffffff169050919050565b5f8082841673ffffffffffffffffffffffffffffffffffffffff161415905092915050565b60605f805f8451602086015f885af19050806145aa576145a9848461459c9061859f565b63a9e35b2f60e01b614457565b5b6040519150601f19603f3d011682016040523d82523d5f602084013e60208251108061462457506145da8361602e565b7bffffffffffffffffffffffffffffffffffffffffffffffffffffffff19166146028361602e565b7bffffffffffffffffffffffffffffffffffffffffffffffffffffffff191614155b1561465957614658631e048e1d60e01b7bffffffffffffffffffffffffffffffffffffffffffffffffffffffff1916612397565b5b5092915050565b5f8160018060801b03168360801b17905092915050565b5f818385020490509392505050565b5f8160801d9050919050565b5f81600f0b9050919050565b5f620f424062ffffff168262ffffff1611159050919050565b5f8162ffffff1660d01b8362ffffff60d01b191617905092915050565b8060020b8260020b1261471d5761471c828263c4433ed560e01b7bffffffffffffffffffffffffffffffffffffffffffffffffffffffff191661603b9092919063ffffffff16565b5b7ffffffffffffffffffffffffffffffffffffffffffffffffffffffffffff2761860020b8260020b1215614785576147848263d5e2f7ab60e01b7bffffffffffffffffffffffffffffffffffffffffffffffffffffffff191661350e90919063ffffffff16565b5b620d89e860020b8160020b13156147d0576147cf81631ad777f860e01b7bffffffffffffffffffffffffffffffffffffffffffffffffffffffff191661350e90919063ffffffff16565b5b5050565b5f805f866004015f8760020b60020b81526020019081526020015f2090505f815f015f9054906101000a90046fffffffffffffffffffffffffffffffff1690505f825f0160109054906101000a9004600f0b90506148328288615060565b93505f826fffffffffffffffffffffffffffffffff161415155f856fffffffffffffffffffffffffffffffff16141515141594505f826fffffffffffffffffffffffffffffffff16036148b35761488b895f0154614c69565b60020b8860020b136148b25788600101548360010181905550886002015483600201819055505b5b5f866148ca5787826148c59190618509565b6148d7565b87826148d69190618605565b5b90508060801b6fffffffffffffffffffffffffffffffff86161784555050505094509492505050565b5f80620d89e890505f7ffffffffffffffffffffffffffffffffffffffffffffffffffffffffffff2761890508360020b93505f84820712848205038483056001828203018060018060801b030495505050505050919050565b8160020b91508060020b90508082071561498b5760405163d4d8f3e681528260208201528160408201526044601c8201fd5b80820591508160081d5f528260205260405f20600160ff84161b815418815550505050565b5f805f856004015f8660020b60020b81526020019081526020015f2090505f866004015f8660020b60020b81526020019081526020015f2090505f6149f7885f0154614c69565b90508660020b8160020b1215614a26578160010154836001015403945081600201548360020154039350614a7a565b8560020b8160020b12614a52578260010154826001015403945082600201548260020154039350614a79565b81600101548360010154896001015403039450816002015483600201548960020154030393505b5b505050935093915050565b5f80614a9386868686616058565b9050865f8281526020019081526020015f2091505095945050505050565b5f805f865f015f9054906101000a90046fffffffffffffffffffffffffffffffff1690505f86600f0b03614b2d575f816fffffffffffffffffffffffffffffffff1603614b2857614b2763aefeb92460e01b7bffffffffffffffffffffffffffffffffffffffffffffffffffffffff1916612397565b5b614b70565b614b378187615060565b875f015f6101000a8154816fffffffffffffffffffffffffffffffff02191690836fffffffffffffffffffffffffffffffff1602179055505b614ba487600101548603826fffffffffffffffffffffffffffffffff16700100000000000000000000000000000000616092565b9250614bda87600201548503826fffffffffffffffffffffffffffffffff16700100000000000000000000000000000000616092565b91508487600101819055508387600201819055505094509492505050565b816004015f8260020b60020b81526020019081526020015f205f8082015f6101000a8154906fffffffffffffffffffffffffffffffff02191690555f820160106101000a8154906fffffffffffffffffffffffffffffffff0219169055600182015f9055600282015f905550505050565b5f8160a01c60020b9050919050565b5f808260020b92508260ff1d8381018118915050620d89e860020b811115614cd457614cd383638b86327a60e01b7bffffffffffffffffffffffffffffffffffffffffffffffffffffffff191661350e90919063ffffffff16565b5b5f600182166ffffcb933bd6fad37aa2d162d1a594001600160801b1802600160801b1890505f6002831614614d1d5760806ffff97272373d413259a46990580e213a8202901c90505b5f6004831614614d415760806ffff2e50f5f656932ef12357cf3c7fdcc8202901c90505b5f6008831614614d655760806fffe5caca7e10e4e61c3624eaa0941cd08202901c90505b5f6010831614614d895760806fffcb9843d60f6159c9db58835c9266448202901c90505b5f6020831614614dad5760806fff973b41fa98c081472e6896dfb254c08202901c90505b5f6040831614614dd15760806fff2ea16466c96a3843ec78b326b528618202901c90505b5f6080831614614df55760806ffe5dee046a99a2a811c461f1969c30538202901c90505b5f610100831614614e1a5760806ffcbe86c7900a88aedcffc83b479aa3a48202901c90505b5f610200831614614e3f5760806ff987a7253ac413176f2b074cf7815e548202901c90505b5f610400831614614e645760806ff3392b0822b70005940c7a398e4b70f38202901c90505b5f610800831614614e895760806fe7159475a2c29b7443b29c7fa6e889d98202901c90505b5f611000831614614eae5760806fd097f3bdfd2022b8845ad8f792aa58258202901c90505b5f612000831614614ed35760806fa9f746462d870fdf8a65dc1f90e061e58202901c90505b5f614000831614614ef85760806f70d869a156d2a1b890bb3df62baf32f78202901c90505b5f618000831614614f1d5760806f31be135f97d08fd981231505542fcfa68202901c90505b5f62010000831614614f435760806f09aa508b5b7a84e1c677de54f3e99bc98202901c90505b5f62020000831614614f685760806e5d6af8dedb81196699c329225ee6048202901c90505b5f62040000831614614f8c5760806d2216e584f5fa1ea926041bedfe988202901c90505b5f62080000831614614fae5760806b048a170391f7dc42444e8fa28202901c90505b5f841315614fbd57805f190490505b60018060201b03810160201c92505050919050565b5f8082600f0b12614ff957614ff2614fed8585856001616155565b616293565b5f03615010565b61500f61500a8585855f035f616155565b616293565b5b90509392505050565b5f8082600f0b126150405761503961503485858560016162d4565b616293565b5f03615057565b6150566150518585855f035f6162d4565b616293565b5b90509392505050565b5f81600f0b6fffffffffffffffffffffffffffffffff84160190508060801c15615091576393dafdf15f526004601cfd5b92915050565b5f806150a38585614578565b9050826150b3575f9150506150f9565b60408151146150ec576150eb631e048e1d60e01b7bffffffffffffffffffffffffffffffffffffffffffffffffffffffff1916612397565b5b6150f5816154fc565b9150505b9392505050565b5f805f8460801d85600f0b8560801d86600f0b818403955080830394505050505061513b61512d83612e27565b61513683612e27565b614660565b9250505092915050565b5f73fffd8963efd1fc6a506488495d951d516396168273ffffffffffffffffffffffffffffffffffffffff166401000276a3830373ffffffffffffffffffffffffffffffffffffffff1611156151cf576151ce82636148752460e01b7bffffffffffffffffffffffffffffffffffffffffffffffffffffffff1916613ac990919063ffffffff16565b5b5f60208373ffffffffffffffffffffffffffffffffffffffff16901b90505f8190505f6151fb8261632d565b60ff1690506080811061521657607f810383901c9150615220565b80607f0383901b91505b5f604060808303901b9050828302607f1c92508260801c80603f1b8217915083811c935050828302607f1c92508260801c80603e1b8217915083811c935050828302607f1c92508260801c80603d1b8217915083811c935050828302607f1c92508260801c80603c1b8217915083811c935050828302607f1c92508260801c80603b1b8217915083811c935050828302607f1c92508260801c80603a1b8217915083811c935050828302607f1c92508260801c8060391b8217915083811c935050828302607f1c92508260801c8060381b8217915083811c935050828302607f1c92508260801c8060371b8217915083811c935050828302607f1c92508260801c8060361b8217915083811c935050828302607f1c92508260801c8060351b8217915083811c935050828302607f1c92508260801c8060341b8217915083811c935050828302607f1c92508260801c8060331b8217915083811c935050828302607f1c92508260801c8060321b82179150505f693627a301d71055774c85820290505f60806f028f6481ab7f045a5af012a19d003aaa8303901d90505f60806fdb2df09e81959a81455e260799a0632f8401901d90508060020b8260020b1461542c578873ffffffffffffffffffffffffffffffffffffffff1661540382614c78565b73ffffffffffffffffffffffffffffffffffffffff1611156154255781615427565b805b61542e565b815b975050505050505050919050565b5f8173ffffffffffffffffffffffffffffffffffffffff168373ffffffffffffffffffffffffffffffffffffffff191617905092915050565b5f8162ffffff1660a01b8362ffffff60a01b191617905092915050565b5f8162ffffff1660b81b8362ffffff60b81b191617905092915050565b5f73ffffffffffffffffffffffffffffffffffffffff83165f5273ffffffffffffffffffffffffffffffffffffffff821660205260405f20905092915050565b5f60608201519050919050565b5f60408201519050919050565b5f8160801d9050919050565b5f805f615520616df0565b5f865f015490505f866040015190505f816155505761554b615541846163d3565b62ffffff166163e4565b615567565b61556661555c846163d3565b62ffffff166163f6565b5b61ffff1690505f885f015190505f61557e85614534565b865f019073ffffffffffffffffffffffffffffffffffffffff16908173ffffffffffffffffffffffffffffffffffffffff16815250506155bd85614c69565b866020019060020b908160020b815250508a6003015f9054906101000a90046fffffffffffffffffffffffffffffffff1686604001906fffffffffffffffffffffffffffffffff1690816fffffffffffffffffffffffffffffffff16815250505f6156308b6080015162ffffff16616403565b6156425761563d86616419565b615655565b6156548b6080015162ffffff1661642a565b5b90505f841461567a57615675818561ffff1661644e90919063ffffffff16565b61567c565b805b975050620f42408762ffffff16106156ca575f8a5f015113156156c9576156c8639620624660e01b7bffffffffffffffffffffffffffffffffffffffffffffffffffffffff1916612397565b5b5b5f8a5f0151036156e4575f80985098505050505050615efc565b83156157f0576156f385614534565b73ffffffffffffffffffffffffffffffffffffffff168a6060015173ffffffffffffffffffffffffffffffffffffffff16106157715761577061573586614534565b8b60600151637c9c6e8f60e01b7bffffffffffffffffffffffffffffffffffffffffffffffffffffffff19166164749092919063ffffffff16565b5b6401000276a373ffffffffffffffffffffffffffffffffffffffff168a6060015173ffffffffffffffffffffffffffffffffffffffff16116157eb576157ea8a60600151639e4d7cc760e01b7bffffffffffffffffffffffffffffffffffffffffffffffffffffffff1916613ac990919063ffffffff16565b5b615901565b6157f985614534565b73ffffffffffffffffffffffffffffffffffffffff168a6060015173ffffffffffffffffffffffffffffffffffffffff16116158775761587661583b86614534565b8b60600151637c9c6e8f60e01b7bffffffffffffffffffffffffffffffffffffffffffffffffffffffff19166164749092919063ffffffff16565b5b73fffd8963efd1fc6a506488495d951d5263988d2673ffffffffffffffffffffffffffffffffffffffff168a6060015173ffffffffffffffffffffffffffffffffffffffff1610615900576158ff8a60600151639e4d7cc760e01b7bffffffffffffffffffffffffffffffffffffffffffffffffffffffff1916613ac990919063ffffffff16565b5b5b615909616e39565b84615918578b6002015461591e565b8b600101545b8160e00181815250505b5f83148061596857508a6060015173ffffffffffffffffffffffffffffffffffffffff16875f015173ffffffffffffffffffffffffffffffffffffffff16145b615db857865f0151815f019073ffffffffffffffffffffffffffffffffffffffff16908173ffffffffffffffffffffffffffffffffffffffff16815250506159c887602001518c60200151878f6005016164b7909392919063ffffffff16565b826020018360400182151515158152508260020b60020b81525050507ffffffffffffffffffffffffffffffffffffffffffffffffffffffffffff2761860020b816020015160020b13615a48577ffffffffffffffffffffffffffffffffffffffffffffffffffffffffffff27618816020019060020b908160020b815250505b620d89e860020b816020015160020b12615a7257620d89e8816020019060020b908160020b815250505b615a7f8160200151614c78565b816060019073ffffffffffffffffffffffffffffffffffffffff16908173ffffffffffffffffffffffffffffffffffffffff1681525050615adc875f0151615ad08784606001518f606001516165db565b8960400151868c616629565b8a5f01856080018660a0018760c0018481525084815250848152508473ffffffffffffffffffffffffffffffffffffffff1673ffffffffffffffffffffffffffffffffffffffff16815250505050505f8b5f01511315615b7557615b438160a00151616293565b83039250615b638160c001518260800151615b5e9190617cce565b616293565b82615b6e919061866c565b9150615ba7565b615b888160c00151826080015101616293565b83019250615b998160a00151616293565b82615ba491906183c7565b91505b5f841115615c00575f848962ffffff1614615be157620f4240858360c001518460800151010281615bdb57615bda6186ac565b5b04615be7565b8160c001515b9050808260c0018181510391508181525050808a019950505b5f87604001516fffffffffffffffffffffffffffffffff161115615c6457615c548160c0015170010000000000000000000000000000000089604001516fffffffffffffffffffffffffffffffff16614677565b8160e00181815101915081815250505b806060015173ffffffffffffffffffffffffffffffffffffffff16875f015173ffffffffffffffffffffffffffffffffffffffff1603615d5b57806040015115615d2d575f8086615cbe578d600101548360e00151615cc9565b8260e001518e600201545b915091505f615cde8f856020015185856167b9565b90508715615cec57805f0390505b615cfa8a6040015182615060565b8a604001906fffffffffffffffffffffffffffffffff1690816fffffffffffffffffffffffffffffffff16815250505050505b84615d3c578060200151615d45565b60018160200151035b876020019060020b908160020b81525050615db3565b805f015173ffffffffffffffffffffffffffffffffffffffff16875f015173ffffffffffffffffffffffffffffffffffffffff1614615db257615da0875f0151615145565b876020019060020b908160020b815250505b5b615928565b615de4875f0151615dd689602001518961547590919063ffffffff16565b61543c90919063ffffffff16565b8c5f018190555086604001516fffffffffffffffffffffffffffffffff168c6003015f9054906101000a90046fffffffffffffffffffffffffffffffff166fffffffffffffffffffffffffffffffff1614615e785786604001518c6003015f6101000a8154816fffffffffffffffffffffffffffffffff02191690836fffffffffffffffffffffffffffffffff1602179055505b84615e8f578060e001518c60020181905550615e9d565b8060e001518c600101819055505b5f8b5f015112151585151514615ed357615ecc615eb983612e27565b615ec7858e5f015103612e27565b614660565b9950615ef5565b615ef2615ee4848d5f015103612e27565b615eed84612e27565b614660565b99505b5050505050505b92959194509250565b8060015f8473ffffffffffffffffffffffffffffffffffffffff1673ffffffffffffffffffffffffffffffffffffffff1681526020019081526020015f205f82825401925050819055505050565b5f81600f0b9050919050565b8060045f8573ffffffffffffffffffffffffffffffffffffffff1673ffffffffffffffffffffffffffffffffffffffff1681526020019081526020015f205f8481526020019081526020015f205f828254615fba9190617c9b565b92505081905550815f73ffffffffffffffffffffffffffffffffffffffff168473ffffffffffffffffffffffffffffffffffffffff167f1b3d7edb2e9c0b0e7c525b20aaaef0f5940d2ed71663c7d39266ecafac7288593385604051616021929190617d01565b60405180910390a4505050565b5f60208201519050919050565b6040518381528260020b60048201528160020b6024820152604481fd5b5f604051826026820152836006820152846003820152858152603a600c82012091505f60408201525f60208201525f815250949350505050565b5f8083850290505f8019858709828110838203039150508084116160b4575f80fd5b5f81036160c7578382049250505061614e565b5f8486880990508281118203915080830392505f85865f0316905080860495508084049350600181825f0304019050808302841793505f600287600302189050808702600203810290508087026002038102905080870260020381029050808702600203810290508087026002038102905080870260020381029050808502955050505050505b9392505050565b5f8373ffffffffffffffffffffffffffffffffffffffff168573ffffffffffffffffffffffffffffffffffffffff16111561619557838580955081965050505b73ffffffffffffffffffffffffffffffffffffffff85166161bc5762bfc9215f526004601cfd5b5f606060ff16846fffffffffffffffffffffffffffffffff16901b90505f86860373ffffffffffffffffffffffffffffffffffffffff16905083616246578673ffffffffffffffffffffffffffffffffffffffff1661623283838973ffffffffffffffffffffffffffffffffffffffff16616092565b816162405761623f6186ac565b5b04616287565b61628661626a83838973ffffffffffffffffffffffffffffffffffffffff16616810565b8873ffffffffffffffffffffffffffffffffffffffff1661684f565b5b92505050949350505050565b5f8190505f8112156162cf576162ce6393dafdf160e01b7bffffffffffffffffffffffffffffffffffffffffffffffffffffffff1916612397565b5b919050565b5f806162e08686616861565b90505f6c0100000000000000000000000090505f856fffffffffffffffffffffffffffffffff169050616314818484616092565b9350845f83858409111684019350505050949350505050565b5f808211616339575f80fd5b816fffffffffffffffffffffffffffffffff1060071b905081811c67ffffffffffffffff1060061b8117905081811c63ffffffff1060051b8117905081811c61ffff1060041b8117905081811c60ff1060031b811790507f07060605060205000602030205040001060502050303040105050304000000006f8421084210842108cc6318c6db6d54be83831c1c601f161a81179050919050565b5f8160b81c62ffffff169050919050565b5f600c8262ffffff16901c9050919050565b5f610fff82169050919050565b5f8062400000831662ffffff1614159050919050565b5f8160d01c62ffffff169050919050565b5f6164398262ffffff166168a4565b90506164498162ffffff16612bd8565b919050565b5f610fff8316925062ffffff82169150818302620f424081048385010391505092915050565b60405183815273ffffffffffffffffffffffffffffffffffffffff8316600482015273ffffffffffffffffffffffffffffffffffffffff82166024820152604481fd5b5f805f6164c486866168b2565b9050831561655c575f806164d7836168d0565b915091505f8160ff1660ff8016037fffffffffffffffffffffffffffffffffffffffffffffffffffffffffffffffff901c90505f818b5f8660010b60010b81526020019081526020015f20541690505f81141595508561653e57888360ff16860302616551565b886165488261632d565b840360ff168603025b9650505050506165d1565b5f8061656d836001019350836168d0565b915091505f60018260ff166001901b031990505f818b5f8660010b60010b81526020019081526020015f20541690505f8114159550856165b757888360ff0360ff168601026165ca565b88836165c2836168e6565b0360ff168601025b9650505050505b5094509492505050565b5f73ffffffffffffffffffffffffffffffffffffffff8316925073ffffffffffffffffffffffffffffffffffffffff8216915060018416828410188284188181028418925050509392505050565b5f805f805f8562ffffff1690505f8973ffffffffffffffffffffffffffffffffffffffff168b73ffffffffffffffffffffffffffffffffffffffff16101590505f8089129050801561672a575f61668b8a5f0385620f424003620f4240616092565b9050826166a45761669f8d8d8d60016162d4565b6166b2565b6166b18c8e8d6001616155565b5b96508681106166e6578b9750620f424084146166dd576166d8878586620f424003616810565b6166df565b865b94506166ff565b8096506166f58d8c8386616982565b9750868a5f030394505b82616715576167108d898d5f616155565b616722565b616721888e8d5f6162d4565b5b9550506167aa565b816167405761673b8c8c8c5f616155565b61674d565b61674c8b8d8c5f6162d4565b5b945084891061675e578a9650616770565b88945061676d8c8b87856169f1565b96505b81616787576167828c888c60016162d4565b616795565b616794878d8c6001616155565b5b95506167a7868485620f424003616810565b93505b50505095509550955095915050565b5f80856004015f8660020b60020b81526020019081526020015f209050806001015484038160010181905550806002015483038160020181905550805f0160109054906101000a9004600f0b915050949350505050565b5f61681c848484616092565b90505f828061682e5761682d6186ac565b5b84860914616848575f8160010191508111616847575f80fd5b5b9392505050565b5f808284061182840401905092915050565b5f73ffffffffffffffffffffffffffffffffffffffff821673ffffffffffffffffffffffffffffffffffffffff8416038060ff1d81810181189250505092915050565b5f62bfffff82169050919050565b5f8260020b92508160020b91505f8284071282840503905092915050565b5f808260020b60081d915060ff83169050915091565b5f8082116168f2575f80fd5b815f03821691507f80404055430052664432000050206106740530260200001075062001761170777fb6db6db6ddddddddd34d34d349249249210842108c6318c639ce739cffffffff830260fa1c60021b1b60fc1c60051b90507e1f0d1e100c1d070f090b19131c1706010e11080a1a141802121b1503160405601f83831c63d76453e004161a81179050919050565b5f6fffffffffffffffffffffffffffffffff84161573ffffffffffffffffffffffffffffffffffffffff86161517156169c257634f2461b85f526004601cfd5b816169d9576169d48585856001616a5e565b6169e7565b6169e68585856001616bd0565b5b9050949350505050565b5f6fffffffffffffffffffffffffffffffff84161573ffffffffffffffffffffffffffffffffffffffff8616151715616a3157634f2461b85f526004601cfd5b81616a4757616a428585855f616bd0565b616a54565b616a538585855f616a5e565b5b9050949350505050565b5f8115616b0d575f73ffffffffffffffffffffffffffffffffffffffff8016841115616ab357616aae846c01000000000000000000000000876fffffffffffffffffffffffffffffffff16616092565b616ad9565b846fffffffffffffffffffffffffffffffff16606060ff1685901b616ad891906186d9565b5b9050616b05818773ffffffffffffffffffffffffffffffffffffffff16616b009190617cce565b616d4e565b915050616bc8565b5f73ffffffffffffffffffffffffffffffffffffffff8016841115616b5b57616b56846c01000000000000000000000000876fffffffffffffffffffffffffffffffff16616810565b616b7f565b616b7e606060ff1685901b866fffffffffffffffffffffffffffffffff1661684f565b5b90508073ffffffffffffffffffffffffffffffffffffffff871611616bab57634323a5555f526004601cfd5b808673ffffffffffffffffffffffffffffffffffffffff16039150505b949350505050565b5f808303616be057849050616d46565b5f606060ff16856fffffffffffffffffffffffffffffffff16901b90508215616cc5575f8673ffffffffffffffffffffffffffffffffffffffff16850290508673ffffffffffffffffffffffffffffffffffffffff16858281616c4657616c456186ac565b5b0403616c86575f8183019050828110616c8457616c7a838973ffffffffffffffffffffffffffffffffffffffff1683616810565b9350505050616d46565b505b50616cbd81858873ffffffffffffffffffffffffffffffffffffffff1684616cae91906186d9565b616cb89190617cce565b61684f565b915050616d46565b5f8673ffffffffffffffffffffffffffffffffffffffff168502905080821173ffffffffffffffffffffffffffffffffffffffff88168683041416616d115763f5c787f15f526004601cfd5b5f8183039050616d40616d3b848a73ffffffffffffffffffffffffffffffffffffffff1684616810565b616d4e565b93505050505b949350505050565b5f819050818173ffffffffffffffffffffffffffffffffffffffff1614616d9f57616d9e6393dafdf160e01b7bffffffffffffffffffffffffffffffffffffffffffffffffffffffff1916612397565b5b919050565b60405180608001604052805f151581526020015f6fffffffffffffffffffffffffffffffff1681526020015f151581526020015f6fffffffffffffffffffffffffffffffff1681525090565b60405180606001604052805f73ffffffffffffffffffffffffffffffffffffffff1681526020015f60020b81526020015f6fffffffffffffffffffffffffffffffff1681525090565b6040518061010001604052805f73ffffffffffffffffffffffffffffffffffffffff1681526020015f60020b81526020015f151581526020015f73ffffffffffffffffffffffffffffffffffffffff1681526020015f81526020015f81526020015f81526020015f81525090565b5f604051905090565b5f80fd5b5f80fd5b5f73ffffffffffffffffffffffffffffffffffffffff82169050919050565b5f616ee182616eb8565b9050919050565b616ef181616ed7565b8114616efb575f80fd5b50565b5f81359050616f0c81616ee8565b92915050565b5f819050919050565b616f2481616f12565b8114616f2e575f80fd5b50565b5f81359050616f3f81616f1b565b92915050565b5f8060408385031215616f5b57616f5a616eb0565b5b5f616f6885828601616efe565b9250506020616f7985828601616f31565b9150509250929050565b616f8c81616f12565b82525050565b5f602082019050616fa55f830184616f83565b92915050565b5f7fffffffff0000000000000000000000000000000000000000000000000000000082169050919050565b616fdf81616fab565b8114616fe9575f80fd5b50565b5f81359050616ffa81616fd6565b92915050565b5f6020828403121561701557617014616eb0565b5b5f61702284828501616fec565b91505092915050565b5f8115159050919050565b61703f8161702b565b82525050565b5f6020820190506170585f830184617036565b92915050565b5f805f6060848603121561707557617074616eb0565b5b5f61708286828701616efe565b935050602061709386828701616f31565b92505060406170a486828701616f31565b9150509250925092565b6170b781616ed7565b81146170c1575f80fd5b50565b5f813590506170d2816170ae565b92915050565b5f805f606084860312156170ef576170ee616eb0565b5b5f6170fc868287016170c4565b935050602061710d86828701616efe565b925050604061711e86828701616f31565b9150509250925092565b5f819050919050565b61713a81617128565b8114617144575f80fd5b50565b5f8135905061715581617131565b92915050565b5f602082840312156171705761716f616eb0565b5b5f61717d84828501617147565b91505092915050565b61718f81617128565b82525050565b5f6020820190506171a85f830184617186565b92915050565b5f80fd5b5f601f19601f8301169050919050565b7f4e487b71000000000000000000000000000000000000000000000000000000005f52604160045260245ffd5b6171f8826171b2565b810181811067ffffffffffffffff82111715617217576172166171c2565b5b80604052505050565b5f617229616ea7565b905061723582826171ef565b919050565b5f62ffffff82169050919050565b6172518161723a565b811461725b575f80fd5b50565b5f8135905061726c81617248565b92915050565b5f8160020b9050919050565b61728781617272565b8114617291575f80fd5b50565b5f813590506172a28161727e565b92915050565b5f6172b282616ed7565b9050919050565b6172c2816172a8565b81146172cc575f80fd5b50565b5f813590506172dd816172b9565b92915050565b5f60a082840312156172f8576172f76171ae565b5b61730260a0617220565b90505f617311848285016170c4565b5f830152506020617324848285016170c4565b60208301525060406173388482850161725e565b604083015250606061734c84828501617294565b6060830152506080617360848285016172cf565b60808301525092915050565b5f80fd5b5f80fd5b5f80fd5b5f8083601f84011261738d5761738c61736c565b5b8235905067ffffffffffffffff8111156173aa576173a9617370565b5b6020830191508360018202830111156173c6576173c5617374565b5b9250929050565b5f805f805f61010086880312156173e7576173e6616eb0565b5b5f6173f4888289016172e3565b95505060a061740588828901616f31565b94505060c061741688828901616f31565b93505060e086013567ffffffffffffffff81111561743757617436616eb4565b5b61744388828901617378565b92509250509295509295909350565b5f819050919050565b5f819050919050565b5f61747e61747961747484617452565b61745b565b617452565b9050919050565b61748e81617464565b82525050565b5f6020820190506174a75f830184617485565b92915050565b5f602082840312156174c2576174c1616eb0565b5b5f6174cf84828501616efe565b91505092915050565b5f80604083850312156174ee576174ed616eb0565b5b5f6174fb85828601617147565b925050602061750c85828601616f31565b9150509250929050565b5f81519050919050565b5f82825260208201905092915050565b5f819050602082019050919050565b61754881617128565b82525050565b5f617559838361753f565b60208301905092915050565b5f602082019050919050565b5f61757b82617516565b6175858185617520565b935061759083617530565b805f5b838110156175c05781516175a7888261754e565b97506175b283617565565b925050600181019050617593565b5085935050505092915050565b5f6020820190508181035f8301526175e58184617571565b905092915050565b5f806020838503121561760357617602616eb0565b5b5f83013567ffffffffffffffff8111156176205761761f616eb4565b5b61762c85828601617378565b92509250509250929050565b5f81519050919050565b5f82825260208201905092915050565b8281835e5f83830152505050565b5f61766a82617638565b6176748185617642565b9350617684818560208601617652565b61768d816171b2565b840191505092915050565b5f6020820190508181035f8301526176b08184617660565b905092915050565b5f8060c083850312156176ce576176cd616eb0565b5b5f6176db858286016172e3565b92505060a06176ec8582860161725e565b9150509250929050565b6176ff8161702b565b8114617709575f80fd5b50565b5f8135905061771a816176f6565b92915050565b5f806040838503121561773657617735616eb0565b5b5f61774385828601616efe565b92505060206177548582860161770c565b9150509250929050565b5f805f6060848603121561777557617774616eb0565b5b5f61778286828701616efe565b935050602061779386828701616efe565b92505060406177a486828701616f31565b9150509250925092565b6177b781617452565b81146177c1575f80fd5b50565b5f813590506177d2816177ae565b92915050565b5f608082840312156177ed576177ec6171ae565b5b6177f76080617220565b90505f61780684828501617294565b5f83015250602061781984828501617294565b602083015250604061782d848285016177c4565b604083015250606061784184828501617147565b60608301525092915050565b5f805f80610140858703121561786657617865616eb0565b5b5f617873878288016172e3565b94505060a0617884878288016177d8565b93505061012085013567ffffffffffffffff8111156178a6576178a5616eb4565b5b6178b287828801617378565b925092505092959194509250565b5f6040820190506178d35f830185617485565b6178e06020830184617485565b9392505050565b6178f081616eb8565b81146178fa575f80fd5b50565b5f8135905061790b816178e7565b92915050565b5f8060c0838503121561792757617926616eb0565b5b5f617934858286016172e3565b92505060a0617945858286016178fd565b9150509250929050565b61795881617272565b82525050565b5f6020820190506179715f83018461794f565b92915050565b5f806040838503121561798d5761798c616eb0565b5b5f61799a858286016170c4565b92505060206179ab85828601616f31565b9150509250929050565b5f805f606084860312156179cc576179cb616eb0565b5b5f6179d986828701616efe565b93505060206179ea868287016170c4565b92505060406179fb86828701616f31565b9150509250925092565b617a0e81616ed7565b82525050565b5f602082019050617a275f830184617a05565b92915050565b5f60208284031215617a4257617a41616eb0565b5b5f617a4f848285016170c4565b91505092915050565b5f8083601f840112617a6d57617a6c61736c565b5b8235905067ffffffffffffffff811115617a8a57617a89617370565b5b602083019150836020820283011115617aa657617aa5617374565b5b9250929050565b5f8060208385031215617ac357617ac2616eb0565b5b5f83013567ffffffffffffffff811115617ae057617adf616eb4565b5b617aec85828601617a58565b92509250509250929050565b5f8060408385031215617b0e57617b0d616eb0565b5b5f617b1b85828601616efe565b9250506020617b2c85828601616efe565b9150509250929050565b5f60608284031215617b4b57617b4a6171ae565b5b617b556060617220565b90505f617b648482850161770c565b5f830152506020617b77848285016177c4565b6020830152506040617b8b848285016178fd565b60408301525092915050565b5f805f806101208587031215617bb057617baf616eb0565b5b5f617bbd878288016172e3565b94505060a0617bce87828801617b36565b93505061010085013567ffffffffffffffff811115617bf057617bef616eb4565b5b617bfc87828801617378565b925092505092959194509250565b5f805f8060808587031215617c2257617c21616eb0565b5b5f617c2f87828801616efe565b9450506020617c4087828801616efe565b9350506040617c5187828801616f31565b9250506060617c6287828801616f31565b91505092959194509250565b7f4e487b71000000000000000000000000000000000000000000000000000000005f52601160045260245ffd5b5f617ca582616f12565b9150617cb083616f12565b9250828203905081811115617cc857617cc7617c6e565b5b92915050565b5f617cd882616f12565b9150617ce383616f12565b9250828201905080821115617cfb57617cfa617c6e565b5b92915050565b5f604082019050617d145f830185617a05565b617d216020830184616f83565b9392505050565b5f604082019050617d3b5f830185616f83565b617d486020830184616f83565b9392505050565b5f82825260208201905092915050565b7f554e415554484f52495a454400000000000000000000000000000000000000005f82015250565b5f617d93600c83617d4f565b9150617d9e82617d5f565b602082019050919050565b5f6020820190508181035f830152617dc081617d87565b9050919050565b828183375f83830152505050565b5f617de08385617642565b9350617ded838584617dc7565b617df6836171b2565b840190509392505050565b5f6020820190508181035f830152617e1a818486617dd5565b90509392505050565b5f80fd5b5f67ffffffffffffffff821115617e4157617e406171c2565b5b617e4a826171b2565b9050602081019050919050565b5f617e69617e6484617e27565b617220565b905082815260208101848484011115617e8557617e84617e23565b5b617e90848285617652565b509392505050565b5f82601f830112617eac57617eab61736c565b5b8151617ebc848260208601617e57565b91505092915050565b5f60208284031215617eda57617ed9616eb0565b5b5f82015167ffffffffffffffff811115617ef757617ef6616eb4565b5b617f0384828501617e98565b91505092915050565b617f1581617452565b82525050565b5f608082019050617f2e5f83018761794f565b617f3b602083018661794f565b617f486040830185617f0c565b617f556060830184617186565b95945050505050565b617f678161723a565b82525050565b5f617f87617f82617f7d84616eb8565b61745b565b616eb8565b9050919050565b5f617f9882617f6d565b9050919050565b5f617fa982617f8e565b9050919050565b617fb981617f9f565b82525050565b617fc881616eb8565b82525050565b5f60a082019050617fe15f830188617f5e565b617fee602083018761794f565b617ffb6040830186617fb0565b6180086060830185617fbf565b618015608083018461794f565b9695505050505050565b5f6020820190506180325f830184617f5e565b92915050565b5f61804282617f8e565b9050919050565b61805281618038565b82525050565b6180618161723a565b82525050565b61807081617272565b82525050565b61807f81617f9f565b82525050565b60a082015f8201516180995f850182618049565b5060208201516180ac6020850182618049565b5060408201516180bf6040850182618058565b5060608201516180d26060850182618067565b5060808201516180e56080850182618076565b50505050565b5f610120820190506180ff5f830189617a05565b61810c6020830188618085565b61811960c0830187616f83565b61812660e0830186616f83565b81810361010083015261813a818486617dd5565b9050979650505050505050565b61815081617452565b82525050565b608082015f82015161816a5f850182618067565b50602082015161817d6020850182618067565b5060408201516181906040850182618147565b5060608201516181a3606085018261753f565b50505050565b5f610160820190506181bd5f830188617a05565b6181ca6020830187618085565b6181d760c0830186618156565b8181036101408301526181eb818486617dd5565b90509695505050505050565b5f6101a08201905061820b5f83018a617a05565b6182186020830189618085565b61822560c0830188618156565b618233610140830187617485565b618241610160830186617485565b818103610180830152618255818486617dd5565b905098975050505050505050565b5f60e0820190506182765f830186617a05565b6182836020830185618085565b61829060c0830184617fbf565b949350505050565b5f610100820190506182ac5f830187617a05565b6182b96020830186618085565b6182c660c0830185617fbf565b6182d360e083018461794f565b95945050505050565b5f815190506182ea81616f1b565b92915050565b5f6020828403121561830557618304616eb0565b5b5f618312848285016182dc565b91505092915050565b6183248161702b565b82525050565b61833381616eb8565b82525050565b606082015f82015161834d5f85018261831b565b5060208201516183606020850182618147565b506040820151618373604085018261832a565b50505050565b5f6101408201905061838d5f830188617a05565b61839a6020830187618085565b6183a760c0830186618339565b8181036101208301526183bb818486617dd5565b90509695505050505050565b5f6183d182617452565b91506183dc83617452565b92508282019050828112155f8312168382125f84121516171561840257618401617c6e565b5b92915050565b5f81600f0b9050919050565b61841d81618408565b82525050565b5f6fffffffffffffffffffffffffffffffff82169050919050565b61844781618423565b82525050565b5f60c0820190506184605f830189618414565b61846d6020830188618414565b61847a6040830187617fbf565b618487606083018661843e565b618494608083018561794f565b6184a160a0830184617f5e565b979650505050505050565b5f610160820190506184c05f830189617a05565b6184cd6020830188618085565b6184da60c0830187618339565b6184e8610120830186617485565b8181036101408301526184fc818486617dd5565b9050979650505050505050565b5f61851382618408565b915061851e83618408565b925082820190507fffffffffffffffffffffffffffffffff8000000000000000000000000000000081126f7fffffffffffffffffffffffffffffff8213171561856a57618569617c6e565b5b92915050565b5f819050602082019050919050565b5f61858a8251616fab565b80915050919050565b5f82821b905092915050565b5f6185a982617638565b826185b384618570565b90506185be8161857f565b925060048210156185fe576185f97fffffffff0000000000000000000000000000000000000000000000000000000083600403600802618593565b831692505b5050919050565b5f61860f82618408565b915061861a83618408565b925082820390506f7fffffffffffffffffffffffffffffff81137fffffffffffffffffffffffffffffffff800000000000000000000000000000008212171561866657618665617c6e565b5b92915050565b5f61867682617452565b915061868183617452565b925082820390508181125f8412168282135f8512151617156186a6576186a5617c6e565b5b92915050565b7f4e487b71000000000000000000000000000000000000000000000000000000005f52601260045260245ffd5b5f6186e382616f12565b91506186ee83616f12565b9250826186fe576186fd6186ac565b5b82820490509291505056fea2646970667358221220a4fe50734fa98f91f6dfb462d9ab803815edf114c62217afa026e8be2d075fb564736f6c634300081a0033","linkReferences":{}},"methodIdentifiers":{"allowance(address,address,uint256)":"598af9e7","approve(address,uint256,uint256)":"426a8493","balanceOf(address,uint256)":"00fdd58e","burn(address,uint256,uint256)":"f5298aca","clear(address,uint256)":"80f0b44c","collectProtocolFees(address,address,uint256)":"8161b874","donate((address,address,uint24,int24,address),uint256,uint256,bytes)":"234266d7","extsload(bytes32)":"1e2eaeaf","extsload(bytes32,uint256)":"35fd631a","extsload(bytes32[])":"dbd035ff","exttload(bytes32)":"f135baaa","exttload(bytes32[])":"9bf6645f","initialize((address,address,uint24,int24,address),uint160)":"6276cbbe","isOperator(address,address)":"b6363cf2","mint(address,uint256,uint256)":"156e29f6","modifyLiquidity((address,address,uint24,int24,address),(int24,int24,int256,bytes32),bytes)":"5a6bcfda","owner()":"8da5cb5b","protocolFeeController()":"f02de3b2","protocolFeesAccrued(address)":"97e8cd4e","setOperator(address,bool)":"558a7297","setProtocolFee((address,address,uint24,int24,address),uint24)":"7e87ce7d","setProtocolFeeController(address)":"2d771389","settle()":"11da60b4","settleFor(address)":"3dd45adb","supportsInterface(bytes4)":"01ffc9a7","swap((address,address,uint24,int24,address),(bool,int256,uint160),bytes)":"f3cd914c","sync(address)":"a5841194","take(address,address,uint256)":"0b0d9c09","transfer(address,uint256,uint256)":"095bcdb6","transferFrom(address,address,uint256,uint256)":"fe99049a","transferOwnership(address)":"f2fde38b","unlock(bytes)":"48c89491","updateDynamicLPFee((address,address,uint24,int24,address),uint24)":"52759651"},"id":27}